:020000040800F2
:1000000048110020D9000008FF000008310D000849
:1000100000000000000000000000000000000000E0
:1000200000000000000000000000000003010008C4
:100030000000000000000000050100085514000841
:100040000901000809010008090100080901000868
:100050000901000809010008090100080901000858
:100060000901000809010008DD090008390A000833
:100070000901000809010008090100080901000838
:10008000090100080000000000000000090100084C
:10009000000000000901000809010008090100082A
:1000A00000000000090100080901000859180008B3
:1000B00039190008000000000901000809010008C2
:1000C0000448854600F0A8FB00F048F800480047C7
:1000D00035450008481100200C4880F308880C487A
:1000E0000168090E0B4A914205D10B480B4901608A
:1000F0000B480C4901600C4880470C480047FEE75C
:10010000FEE7FEE7FEE7FEE7FEE7000048110020FD
:10011000040000001F000000181002400100000051
:10012000000001400000000059140008C100000850
:1001300030B50B46014600202022012409E00D467F
:10014000D5409D4205D31D469540491B2546954007
:1001500040191546521E002DF1DC30BD70B5054C1E
:10016000054D03E0206800198047241DAC42F9D1F9
:1001700070BD0000FC70000800710008F8B5024670
:100180004A40D40F42004B0052085B089A4202D208
:100190000246084611464A0023D0C30D4A00DDB28C
:1001A000120EAD1A202D35DA49020126490AF6054C
:1001B0008A19002C00D0524220214F1B1146B94011
:1001C0002A411018C20D9A4221D0002C17D0012DBF
:1001D00008DCDA05801AD20F8019D207DBB200F0F2
:1001E0004CF9F8BDDA05801A012340001B06C0183F
:1001F00080185A428018CA0F1043490007E0490886
:10020000C2071143DA05801A80194008801800F0EF
:100210002CF9F8BD61000122511A001BF7E70122F9
:10022000D2075140AAE70122D2075040A6E7024672
:1002300070B54A40D30FDB0740002DD04A002AD0CA
:10024000010E140E000212020919400A520A841803
:10025000E50104465443000A120A2E045043A4192F
:100260004219200CC543AA18120C0125AD03521CDB
:10027000521912047F39240400D0521C104301D4B7
:100280004000491EC2B20C06C0092018401C40089C
:10029000802A02D003E0002070BD40084000002901
:1002A00000DA0020184370BD70B502464A40D50FF1
:1002B00040004A00ED0740085208002814D0002AE8
:1002C00012D0C40DD30D41020120C0055202490ACB
:1002D000520AE41A091812187D34914201D3641CA1
:1002E00000E04900002C01DA002070BD002391429B
:1002F00001D3891A0343400849000028F7D1002997
:100300000AD0914202D10121C90705E0914201D2F0
:10031000012101E00121C943E005C018401900F0A6
:10032000A4F870BD420005D04200120E52428A422B
:1003300001DB00207047C90508187047C217C10FBC
:10034000504010B54018CA079623002100F095F8D8
:1003500010BD10B500229623114600F08EF810BD96
:10036000C20F410040020123400ADB05D207090EFB
:10037000C0187F2901DA00207047962903DC9623F4
:10038000591AC84001E096398840002AF4D040420A
:100390007047410040020122400AD205090E801830
:1003A0007F2901DA00207047962903DC9622511A32
:1003B000C840704796398840704700004A000903DA
:1003C0000123090B1B051943094B10B5520D9A4225
:1003D00001DA002010BD064B34339A4203DC9A1A2E
:1003E00000F032F810BD03495118884010BD0000DC
:1003F000FF030000CDFBFFFFC20FD2074000400803
:100400000BD0C10D0723DB01C91840020905400AC2
:100410001143C2084007114370470020014670474E
:100420000122D207002800DB101A002900DB511A34
:10043000814270470122D207002800DB101A0029F0
:1004400000DB511A8842704710B5202A04DB0846A9
:10045000203AD040002110BD0B46D340D04020248C
:10046000A21A91400843194610BD002904DA401C25
:10047000490001D140084000704770B40024050CC9
:1004800005D11024000402D1002921D01124050E29
:1004900001D100020834050F01D10001241D850F90
:1004A00001D18000A41C002801DB4000641C00294D
:1004B00008D020252E1B0D46F540A14000D001217B
:1004C0002943084301061B1B000ADB1D02D500203F
:1004D00070BC7047DB05181880180029F8DA401C3A
:1004E0004900F5D170BC40084000704710B541008C
:1004F0000DD04100090E962909DC7E290ADC07DBB4
:10050000410205D0C00F7F21C007C905401810BDAA
:10051000002010BD9622541A20210A1B014691404A
:10052000E040FFF7A2FFA04010BD10B5002B08DA95
:100530000024401C614192185B411A4301D14008DC
:10054000400010BDF0B51FB482B005460C0003D0CA
:10055000084601F0D4FA02E001F0D1FA2030024658
:1005600000902146284600F069F9049B059A04464C
:100570000F4618431143084314D0184610431BD0AC
:10058000009840210A1A18460599FFF75DFF0546B5
:100590000E46009A0599049800F050F9084305D0DA
:1005A000012004E02046394607B0F0BD0020C11705
:1005B00005430E432C43374300990E986305401AB8
:1005C0007905E40A00220C43FD0A0A3002D5002016
:1005D0000146E9E70105101969410C9C0D9D0019C0
:1005E0006941FFF7A2FFDFE7F0B50746084658402C
:1005F00087B0C00F049048000E46590040084908D3
:10060000BC1A884105D2384631461E4617460B466D
:1006100002465800400810434CD0300D039040056E
:100620005900400D490D0590401A0290402872DA99
:1006300018030121000B090508430190049800925A
:10064000002805D001995242002088410092019073
:10065000029840210A1A0199009800F0EFF8054627
:100660000C466B4607CB00F0F9F8C0197141039AAC
:100670000E0D0023D71756401A467A40164344D031
:10068000049A002A2DD0029A012A039A15DC120539
:10069000C01A914101263605001C7141D20F059EFA
:1006A000D2070093019202962A462346FFF74AFF9B
:1006B00007B0F0BD38463146FAE71605224A0F4624
:1006C000B218C01AB74101210905001C4F4100189A
:1006D0007F41114618187941E20F10436D196441AA
:1006E00013E0E2076D0815436408C2071443039A38
:1006F00001261205C01A91413605001C7141CE0732
:10070000400830434908C01851412A462346FFF7A4
:100710000CFFCDE7FFE7049801224000C117121A31
:1007200000238B4104983146C417381AA141EEE7E3
:1007300030B40124E407634030BC55E730B40124F1
:10074000E407614030BC4FE70000E0FFF8B5054624
:10075000480040080C46284304D06000184A400D69
:10076000904201DD2846F8BD15493539884210DC34
:1007700088420BDB290D200308432903014305D0E0
:10078000E00F1049C00741180020F8BD00200146C5
:10079000F8BD161A4020821B2846214600F04EF86C
:1007A00007460091284621463246FFF74DFE3A465D
:1007B000009BFFF7BAFE324600F040F8F8BD00009B
:1007C000330400000000F03F10B5002904DB0124D1
:1007D000E40740428C412146002B04DB1C460123E8
:1007E000DB075242A3418B4200D1824210BD000080
:1007F00010B5002904DB0124E40740428C41214666
:10080000002B04DB1C460123DB075242A341994223
:1008100000D1904210BD0000064C0125064E05E0B7
:10082000E36807CC2B430C3C98471034B442F7D311
:10083000FFF74AFCDC700008FC70000810B5202AA5
:1008400004DB0146203A9140002010BD9140202356
:100850009C1A0346E3401943904010BD10B5202A6E
:1008600006DBCB170846203A1041C1170B4306E0C0
:100870000B461341D0402024A21A91400843194648
:1008800010BD70B58C180578401C6B075B0F01D14B
:100890000378401C2A1106D10278401C03E0067838
:1008A0000E70401C491C5B1EF9D12B0705D4002398
:1008B000521E0DD40B70491CFAE70378401CCB1A6A
:1008C000921C03E01D780D70491C5B1C521EF9D56B
:1008D000A142D8D3002070BD836A0B43836242617A
:1008E00070470029816801D0012200E002221143F3
:1008F000816070470029C16802D00122114301E0E4
:1009000049084900C1607047C26802239A43C26027
:10091000C2680A43C2607047826800210123DB0776
:100920001A4382600F231B038268491CD20FD2072F
:10093000994201D0002AF7D18168002901DB006CBF
:10094000704700207047000030B5C268084B8C68C3
:100950001A400B680D792343CC686D032C43234365
:100960000C69496923430B431343C36030BD000046
:1009700003D2FFFF81680422114381607047002188
:10098000016001718160C1600161416170470000D7
:100990000122054992050028886801D0104300E033
:1009A00090438860704700000027014070B50546FD
:1009B00000200346D5240DE0EA5C504000220606E4
:1009C00002D54000604000E04000521CC0B2082A3E
:1009D000F5DB5B1C8B42EFDB70BD000010B5002126
:1009E000124800F041F8114800213C3800F03CF872
:1009F0000E480021283800F037F80D4C072100225E
:100A00000902204600F077FD601500F027F800216C
:100A1000204600F05AFD074C6068022803D10120EF
:100A2000606005F0D1F80020606010BD5800024001
:100A3000002C0140B403002010B5012464032046BB
:100A400000F064F8012802D1204600F001F810BD42
:100A500001494860704700000000024001494860B9
:100A600070470000000002400029016802D0012206
:100A7000114301E0014A114001607047FEFF000090
:100A80000168204A114001600021016041608160DD
:100A9000C1601D491C4A0839904202D148680F22A2
:100AA00005E0194A1432904204D14868F0221043FC
:100AB00048607047144A2832904203D148680F2298
:100AC0001202F4E7104A3C32904203D148680F22E8
:100AD0001203ECE70C4A5032904203D148680F22CF
:100AE0001204E4E7084A6432904203D148680F22B6
:100AF0001205DCE7044A78329042DAD148680F22C6
:100B00001206D4E7FEFF000008000240034A014637
:100B1000126800200A4200D0012070470000024005
:100B2000002A026801D00A4300E08A43026070474D
:100B300030B503680C4A0C6A13408A684D69224339
:100B40000C692C4322438C692243CC6922434C6AB2
:100B500022438C6A22431A430260CA6842600A68D0
:100B600082604968C16030BD0F80FFFF41607047FF
:100B70000021016041608160C1600161416181616A
:100B8000C16101624162816270470000F0B50B27CC
:100B900006463F04384600F067F804280FD1084C99
:100BA00020690225284320616661206940210843AD
:100BB0002061384600F058F82169A9432161F0BD51
:100BC0000020024008490420CA68D20701D0012051
:100BD0007047CA68D20601D502207047C968490724
:100BE000FBD5032070470000002002400248016945
:100BF000802211430161704700200240F8B506468B
:100C000000200B273F0400900D46384600F02CF8DA
:100C1000042815D10B4C206901210843206135803F
:100C2000384600F021F8042806D1B61C290C00969D
:100C30003180384600F018F82169490849002161DF
:100C4000F8BD00000020024004480169090603D5F0
:100C500003494160034941607047000000200240A1
:100C600023016745AB89EFCD00B50346FFF7AAFF27
:100C700002E0FFF7A7FF5B1E012803D0002B00D185
:100C8000052000BD002BF4D1FAE7F0B500220325C2
:100C900001230C6893401C409C422AD10C79012C02
:100CA00001D0022C12D1876854002E46A640B743CB
:100CB00087604E79A64084682643866084889C437A
:100CC000848084888B7993401C4384800668530019
:100CD0002C469C40A64306600E7907689E403E4322
:100CE0000660C668A643C660CC799C40C3681C43B6
:100CF000C460521C102ACBD3F0BD4B07DB0E9A40C8
:100D0000C90810B589000818016A0F249C40A14346
:100D10000162016A1143016210BD0246128A00207D
:100D20000A4200D0012070470185704781617047F9
:100D3000052002F035FB0029016802D00122114391
:100D400001E049084900016070470122920300292F
:100D5000416801D0114300E0914341607047024671
:100D6000926900200A4200D00120704710B5026845
:100D70005208520002600268134B8C681A40240229
:100D80004B681443234303600F230A681B069A43EE
:100D90000261026801231A43026000228260C2607D
:100DA0000B698A691A43826082680123DB031A4354
:100DB0008260CA680368134303604268034B496951
:100DC0001A401143416010BDFFE0CF00FF7FFF07D5
:100DD000406AC0B2704781627047000070B5049DE0
:100DE00044688905890D1204034E114319433440A8
:100DF00029432143416070BD009800FC70B5074C49
:100E0000074D2146284600F0CDF82146284600F03F
:100E100021F92146284600F075F970BD0000F04127
:100E200000004843F8B51E4C06462068002801DC47
:100E30003046F8BDA168E069FFF7F9F90546616839
:100E4000A069FFF7F4F93146FFF7EDF92946FFF7FE
:100E5000E6F905464000FF214008C905081AC00F01
:100E600004D1284600F099FE002800D0354661697B
:100E7000E069FFF7DCF90090A06921690746FFF7F8
:100E8000D6F906462846E168FFF7D1F93146FFF763
:100E900075F90099FFF772F9E761A561F8BD0000E7
:100EA0002C030020F8B51E4C0646206A002801DC01
:100EB0003046F8BDA16AE06BFFF7B9F90546616AF3
:100EC000A06BFFF7B4F93146FFF7ADF92946FFF7FC
:100ED000A6F905464000FF214008C905081AC00FC1
:100EE00004D1284600F059FE002800D03546616B39
:100EF000E06BFFF79CF90090A06B216B0746FFF7B2
:100F000096F906462846E16AFFF791F93146FFF760
:100F100035F90099FFF732F9E763A563F8BD0000E2
:100F20002C030020F8B51E4C0646206C002801DC7E
:100F30003046F8BDA16CE06DFFF779F90546616CAC
:100F4000A06DFFF774F93146FFF76DF92946FFF7F9
:100F500066F905464000FF214008C905081AC00F80
:100F600004D1284600F019FE002800D03546616DF6
:100F7000E06DFFF75CF90090A06D216D0746FFF76B
:100F800056F906462846E16CFFF751F93146FFF75E
:100F9000F5F80099FFF7F2F8E765A565F8BD0000E0
:100FA0002C030020FEB50D46FFF77EF901462648CA
:100FB000FFF77AF905F0DEFE01460090FFF737F9FA
:100FC00004460190214801F0B9FE0121FFF7AAF97A
:100FD0000099FFF72CF97F27FF053946FFF7CEF878
:100FE0002146FFF7CBF81A4C06462560002D29DD77
:100FF00031460198FFF758F905460121E060FFF7F7
:1010000091F96561206139460198FFF708F90121DE
:10101000FFF788F93146FFF747F960600B48019DFB
:1010200001F08CFE0121FFF77DF90099FFF7FFF831
:101030003946FFF7F8F82946FFF7A0F83146FFF7E1
:1010400033F9A060FEBD0000DA0F4940DA0F493FD6
:101050002C030020FEB50D46FFF726F90146264871
:10106000FFF722F905F086FE01460090FFF7DFF852
:1010700004460190214801F061FE0121FFF752F979
:101080000099FFF7D4F87F27FF053946FFF776F878
:101090002146FFF773F81A4C06462562002D29DD1C
:1010A00031460198FFF700F905460121E062FFF79C
:1010B00039F96563206339460198FFF7B0F80121DB
:1010C000FFF730F93146FFF7EFF860620B48019DFA
:1010D00001F034FE0121FFF725F90099FFF7A7F889
:1010E0003946FFF7A0F82946FFF748F83146FFF7E1
:1010F000DBF8A062FEBD0000DA0F4940DA0F493F7D
:101100002C030020FEB50D46FFF7CEF80146264819
:10111000FFF7CAF805F02EFE01460090FFF787F8AA
:1011200004460190214801F009FE0121FFF7FAF879
:101130000099FFF77CF87F27FF053946FFF71EF877
:101140002146FFF71BF81A4C06462564002D29DDC1
:1011500031460198FFF7A8F805460121E064FFF742
:10116000E1F86565206539460198FFF758F80121D7
:10117000FFF7D8F83146FFF797F860640B48019DF8
:1011800001F0DCFD0121FFF7CDF80099FFF74FF8E2
:101190003946FFF748F82946FEF7F0FF3146FFF7DA
:1011A00083F8A064FEBD0000DA0F4940DA0F493F22
:1011B0002C03002030B5827801240178002A15D054
:1011C0008B080E4A9B009A1813688907C90EFF25E1
:1011D0008D40AB434578AD072D0E8D401D43156006
:1011E0000078C006C00E8440054804E0C806C00E62
:1011F000844003488030046030BD000000E400E01B
:1012000000E100E070B5FF2500210446AD05C943AB
:10121000FFF788F806460F4960100C1A2146304641
:10122000FFF705F82146FFF702F82946FEF7FBFF16
:101230002146FEF7FCFF044601463046FEF7F7FF65
:101240002146FEF7F4FF2946FEF7EDFF2146FEF7A3
:10125000EEFF70BDDF59375F044A0029516901D0A4
:10126000014300E0814351617047000000100240DB
:10127000044A0029D16901D0014300E08143D161D2
:101280007047000000100240044A0029916901D013
:10129000014300E08143916170470000001002406B
:1012A000F8B5464E0446716800200C22444D1140AA
:1012B00005D0042903D0082903D00C2918D02560B3
:1012C00018E07168706803228902D2030F0F104082
:1012D000BF1C002809D0F06A0107090F2846491CE5
:1012E000FEF726FF7843206004E036487843FAE7AB
:1012F000354921607168354F0906090F7B5C21680B
:101300000A46DA40626073685B055B0FFB5CDA409B
:10131000A260336BDB0501D42D4B05E073685B04E1
:1013200001D4530800E09308E360336B5F06294B58
:1013300003D4284F1237276100E02361376BFF0683
:1013400001D4656100E06161376BBF070ED0376B78
:10135000BF07BF0F012F0BD0376BBF07BF0F022F87
:1013600008D0376BFF43BF0706D006E0A26104E058
:10137000A16102E0A36100E0A561376BBF03BF0F6D
:101380000FD0326B9203920F012A0CD0316B89037C
:10139000890F022909D0316B8903890F032906D0EF
:1013A00006E0E26104E0E16102E0E36100E0E561A2
:1013B000316B090600D404482062F8BD00100240D9
:1013C00000127A0000093D00006CDC02BC03002022
:1013D000809FD5000080000004490A6B10239A43C7
:1013E0000A630A6B02430A63704700000010024060
:1013F000704700000CB500200090019013491120A7
:1014000008601348416841604168416041687B223F
:10141000D2039143416041680522D20411434160E7
:101420000168012212061143016001688901FCD59F
:101430004168890889004160416802221143416086
:1014400041680907890F0229FAD10CBD002002402A
:10145000001002407047000010B5144801680122D6
:10146000114301604168124A114041600168114A0C
:1014700011400160016801229204914301604168BA
:101480003F22120491434160C16A09090901C16206
:10149000016BFF22543291430163416B49084900BB
:1014A000416300218160FFF7A5FF10BD00100240DD
:1014B0000CB8FF08FFFFF6FE80220029018801D04A
:1014C000114300E09143018070470029018802D058
:1014D0000122114301E04908490001807047403072
:1014E0000029818803D00122D203114301E049047D
:1014F000490C81807047002A828901D00A4300E0AC
:101500008A4382817047000070B5028C52085200F5
:101510000284048C8288038B7025AB439B080D8862
:101520009B001D4302239C438E894B882643104C0D
:101530003343A04208D00F4CA04205D00E4CA0422D
:1015400002D00E4CA0420DD10824A343CC891C43E9
:1015500004239C438B882343094C22400C8A144368
:101560004A8A22438280058389684163038470BD6F
:10157000002C01400040014000440140004801406F
:10158000FFFC0000028B08239A430A430283704742
:1015900070B5028C10239A430284048C8288038BDA
:1015A0001A4D2B400D782D062D0C1D4320239C43F6
:1015B0008B891B051E0C4B8826431B051B0C144CEA
:1015C0003343A04202D0134EB04219D1124E3240E2
:1015D0000E8AB604360C3243A04211D18024A343B4
:1015E000CC892405240C1C4340239C438B881B0579
:1015F0001B0C2343094C22404C8AA404240C224394
:101600008280058389688163038470BDFF8C00003C
:10161000002C014000400140FFFB0000FFF70000EC
:10162000028B034B09021A401143018370470000EB
:10163000FFF7000030B5028C124B1A400284058C73
:101640008288838B104C23400C782406240C1C4386
:101650000E4B1D400B7B1B071B0C2B438D782D075E
:101660002D0C1D430A4B984205D10A4B13400A8AA0
:101670009205120C1A438280848389680164058470
:1016800030BD0000FFEF0000FF8C0000FFDF000016
:10169000002C0140FFBF00000021018041808180BB
:1016A00081608181C18101824182704741627047BE
:1016B00010B50288144B984206D00124A407A0421A
:1016C00002D0124CA04203D17024A2434C88224382
:1016D0000F4CA04203D00F4C22400C8922430280C1
:1016E0004A68C2620A880285984208D00A4A904233
:1016F00005D00A4A904202D0094A904201D1897A23
:1017000001860121818210BD002C014000040040AF
:1017100000100040FFFC0000004001400044014078
:10172000004801400021C94341600021018001813E
:10173000418081727047000010B5074C002120469F
:10174000FFF792F90C212046FFF710FA01212046FD
:10175000FFF78AF910BD000044000240F0B50121F6
:1017600006464C0495B02046FFF782FD0121204635
:10177000FFF772FD02216846017200248472012580
:10178000C5720321417204200927FF06019001A9B7
:101790003846FFF77AFA012202213846FFF7ADFA00
:1017A0000E960C260F941094119413940EA92748AA
:1017B000129600F03BF90121244800F019F90121AB
:1017C000224800F0E0F84021204800F0D5F81C2124
:1017D0006846017044708570FFF7ECFC01210846F3
:1017E000FFF73AFD1A4F3846FFF74AF917480794B2
:1017F000283003901748049010200590802008900E
:10180000400106960C9009940A940B9403A90D9438
:101810003846FFF78DF9012202213846FFF780F99B
:1018200001228021094800F0B8F86803FFF710F999
:1018300000213846FFF718F90B2168460170447003
:101840008570FFF7B7FC15B0F0BD00000044004004
:101850004400024094040020F8B532484669846987
:10186000314D324FE86900280AD0384600F034F98B
:101870002F4AE9785054E86F844231D2001B31E09E
:10188000E86F844201D2061B01E0311B0E180821CB
:101890003846EC6700F089F8002803D00821384664
:1018A00000F06AF823480024864201D96C7102E0F6
:1018B000687910280FD2384600F00EF91C4A697971
:1018C000103A5054491CC8B26871102801D26C6299
:1018D00001E00120686268790007000F6871F8BDB7
:1018E000321B1018124E012212044036904201D3CE
:1018F0000020C0434900705208213846EC6700F0D0
:1019000054F8002808D0E9780120C04349007052FB
:101910000821384600F030F8E878401C8006800E38
:10192000E870F8BD00E000E0E80100200038014068
:10193000740700208813000070B50D4D0D4C29462A
:10194000204600F039F8002803D02946204600F050
:1019500015F80821204600F028F8012806D10821B2
:10196000204600F009F8204600F0B6F870BD0000EF
:10197000050105000044004001627047090C012286
:101980008A40026270470029016802D00122114397
:1019900001E04908490001607047002A826801D0CF
:1019A0000A4300E08A43826070470246D269002001
:1019B0000A4200D00120704730B50A04130E0125F9
:1019C0002A4600248A40012B0ED0022B0ED08368B9
:1019D000090C1340C0698D402840002B02D000281C
:1019E00000D00124204630BD0368F1E74368EFE7EB
:1019F00008220029816801D0114300E091438160F1
:101A0000704710B50B041C0E01238B40022C02D032
:101A1000032C02D002E0001D00E008300168002A1B
:101A200001D0194300E09943016010BD30B5044670
:101A3000006889B00D4640084000206060680321BE
:101A400009038843A9680143616020681A49EA686C
:101A50000840696811432A69024311432160A06864
:101A600003210902884369690143A1606846FFF7C1
:101A700017FC1248844201D1069805E010488442C0
:101A800001D1079800E0029821680904296800D56F
:101A90004000FEF74DFB2A6852088A4200D8401CDD
:101AA0002168090404D50107064A490F104008437C
:101AB000A08109B030BD0000F3E9FFFF003801400C
:101AC00000440040F0FF0000002A426801D00A43B1
:101AD00000E08A4342607047808CC005C00D7047AB
:101AE0000146034888600348C86008467047000004
:101AF0000AD7A33C5073A43D002101607047202108
:101B0000020C01D010211046020A01D010460839FB
:101B1000020901D01046091F820801D01046891E13
:101B2000420801D0881E7047081A7047F0B4040CB0
:101B30008BB2264682B25E430D0C1046370C5843DA
:101B4000360480190021794116466E43370C36045D
:101B50008019794126466E438919F0BC704730B42C
:101B60007446641E2578641CAB4200D21D46635D3A
:101B70005B00E31830BC18474100080200D0042085
:101B80000A0E01D001221043090EFF2901D10221C2
:101B90000843012800D105207047FF2140000906B5
:101BA000884201D10120704700207047FFB581B005
:101BB0001C4617460E0007D0019D02E02846B0479C
:101BC000ED192046641EF9D2019805B0F0BD10B59C
:101BD0000121FEF7A7FB10BD10B500210846FEF756
:101BE00063FB10BD5E2110B5C9430807FEF79AFBE1
:101BF00010BD0000F0B50E4614465100FF2212063B
:101C000087B0914203D31116316007B0F0BD0120B7
:101C10002502C0070543E00D7838C206D20E202009
:101C2000871A6000000E7838401181004D487844D2
:101C30000B189C464358002A14D0604640689340D5
:101C40000146F84003436046806891408646F8406C
:101C50000143039160467146C0689140F8400143DA
:101C60000F4603E06046416803918768184629469D
:101C7000FFF75CFF0291049029460398FFF756FF97
:101C80000391069038462946FFF750FF0F46069805
:101C9000029B3D18049A0399BD4201D2012700E03E
:101CA00000278818C019002F02D0884202D903E00B
:101CB000884201D2012100E0002159180A46203251
:101CC0009709C20C89065203400337601143019003
:101CD0000846FEF733FB02900198FEF73AFB12210B
:101CE000C943FEF71FFB01902846FEF732FB252172
:101CF000C943FEF717FB009001990298FEF73EFAE0
:101D00000099FEF73BFA0121C9024018050B2D038B
:101D100028460299FEF783FA0199FEF780FA0099A6
:101D2000FEF781FA1049FEF782FA00900F49284623
:101D3000FEF77DFA0099FEF721FA00900C4928463B
:101D4000FEF775FA0099FEF719FA002C00DB5CE744
:101D500001210907C91B31600121C907484007B0AB
:101D6000F0BD00008A540000DB0FC92F22AAFD2914
:101D70000000C92F02E008C8121F08C1002AFAD1CA
:101D800070477047002001E001C1121F002AFBD1FB
:101D9000704700000149086070470000D40300202C
:101DA00010B50323102207490748FFF7FFFE074835
:101DB0000021016004480323082205493030FFF761
:101DC000F5FE10BDE11A00081006002024010020D5
:101DD000F91A0008F8B5154E7F20C00537460025D2
:101DE0001837B06000F028F80024A0003958801996
:101DF0000F4A02F00FFB641C032CF6DB01F0E0FE3F
:101E0000FF20F5306D1C8542ECDB7F21C905B068F1
:101E1000FEF705FA074D0024B060A000801929469E
:101E200002F0A4FA641C032CF7DBF8BDA005002027
:101E30001F856B3F0000FA43F0B587B006236A4662
:101E40003B21682002F08CF80098019900024018AC
:101E500000B24042FEF772FA05460298039900026A
:101E6000401800B2114E4042FEF768FA044604984A
:101E700005990002401800B2FEF760FA0146012001
:101E8000C007414045404440B16030C60B270024A4
:101E9000FF43083EA50070593946FEF743FA641C1B
:101EA0007051032CF6DB07B0F0BD0000B805002030
:101EB00070B594B04020069003206946087700244E
:101EC000CC77092006A9C006FEF7DFFE01214802F3
:101ED000FFF7DAF901210846FFF7BEF92948089013
:101EE0002948099002200B9080200D9040000E9010
:101EF0000A9480000F90202010900C940002234D33
:101F0000119008A912942846FEF712FE1D4E0221D8
:101F1000403E3046FEF7F8FC01213046FEF7EAFC71
:101F20006846FEF72CFD01206946009408710420E4
:101F30000590029404943046FEF706FD0121072225
:101F400049043046FEF7C8FC072240213046FEF720
:101F5000C3FC0120FEF71CFD3046FEF7DDFC01212D
:101F60003046FEF7BEFC3046FEF704FD0121284650
:101F7000FEF77AFD06480088FEF7EBF90249486053
:101F800014B070BD402401408C03002008000240C2
:101F9000BAF7FF1F10B50B49002803D0012808D05D
:101FA000002010BD0888FEF7D4F90749FEF73FF975
:101FB00010BD4888FEF7CDF9014602484068FEF79B
:101FC00073F910BD8C0300203333113CF0B584004D
:101FD000304887B005597F2168004008C905029044
:101FE000FEF721F906462946FEF721F9294930393D
:101FF00009680191FEF71BF9059029460298FEF742
:1020000016F92449203909680091FEF710F90746AE
:102010002048083001592846FEF701F91D4904906F
:1020200028390968FEF703F93146FEF700F91A4925
:1020300009680391FEF7FBF80599FEF79FF815492B
:10204000064610390851083904980968FEF7EFF878
:102050000299FEF7ECF80399FEF7E9F83946FEF726
:102060008DF80C490839085101463046FEF786F8CC
:10207000084E103630513046083805510099019805
:10208000FEF77CF80146A01902F070F9305907B04C
:10209000F0BD00005C01002090010020F8B505466D
:1020A0000C46480000D1294C01210026C9078D4269
:1020B00003D94C404D408126F605002C09DC204612
:1020C00048402C460546012189073046FEF756F860
:1020D000064621462846FEF7ADF910D82146284687
:1020E000FEF79DF8074621462846FEF747F80446C6
:1020F0007F213D46C9053046FEF740F80646214699
:102100002846FEF7D1F804461149FEF790F8114928
:10211000FEF734F82146FEF78AF80F49FEF72EF84D
:102120002146FEF784F804460C493046FEF77FF856
:102130002146FEF723F80A49884202DD0949FEF7E5
:102140006EF80949FEF773F8F8BD0000567C0A2ABC
:102150004BC887BD7EAE36BE42DA833FDB0F493FB8
:10216000DB0F4940DB0FC940E12E654270B5194CC9
:10217000E06E002804D00025012809D0E56670BD76
:102180000120E06504F05CFAE06E401CE06670BD82
:10219000172004F022FFC00608D58F21002004F08C
:1021A00041FFE566E56502F011FD70BD01F008FD37
:1021B00008498031C96A401A07498842F5D9E120A7
:1021C00004F0EAFE8F21002004F02CFFE566E565AF
:1021D00070BD0000E80100201027000070B5002548
:1021E00006462C46A00030580146FEF720F8294646
:1021F000FDF7C4FF641CE4B20546032CF2D3FFF7DD
:1022000001F801467F20C005FEF74EF870BD0000C2
:10221000F8B51D4D0C216E68074632464A431B49EE
:10222000184853182A6894001959002F02D0491CE5
:10223000195102E0491E16481951002E06D1002AF4
:1022400001D0012A02D10F49FDF7F1FF0021C94356
:10225000FEF768F8AE683159FDF790FF002800DD01
:1022600030512968002902D1002800DD70606868BB
:102270000C225043054A890080184058002800DA93
:102280004042F8BDCDCCCC3D740100209406002026
:10229000CDCCCCBD30B5002207239C1A6418203C5D
:1022A000855CE47FA54201D0002030BD521C072A86
:1022B000F3DB012030BD0000FEB5072004F08DFEE9
:1022C0000007400F0026072801D0022000E030461A
:1022D0000124734D00286BD0E868002821D001F05C
:1022E0006FFC07460F216F4804F061FE00F008FE06
:1022F000002855D028468030416A491C4162686CEC
:10230000002801D0FFF732FF2E6665486E668030E8
:10231000E96C07634763C163AE60E86D00283DD098
:102320003EE00F215F4804F042FE5E4B1868A4288F
:1023300001D0A3283CD1A32802D15B486C64A865D6
:10234000574F187EA0373870187F7870188CB87087
:10235000988C5649F8708868C968009001910120EE
:102360008100595C6A4611544D4AC0321218203A15
:10237000401CD1770628F3DB0621684604F0EBFD0C
:102380003020694608700621684604F0E4FDE86CD8
:10239000395C252004F046FEEC6009E002F016FCF2
:1023A0006869401C6861092802DD0A202C616861A7
:1023B000E86D002801D0FFF7D9FE01F001FC384993
:1023C00007468031096B411AA86D82007D20C0004C
:1023D000101881420DD9E86800280AD030488030B2
:1023E0000763696E002901D1C06BE86402F0EEFB5F
:1023F0006C66E96D686E08431BD1286E0090052855
:1024000017D2E868002814D025487D218030006B61
:10241000C900381A88420CD9A96DFDF789FE01461A
:102420000098401C814204D302F0D0FB286E401C6F
:1024300028661B488030406B391A1D48814206D9F6
:102440001C48AC60066046608660C66002E0A86812
:10245000002803D0686D002802D011E06C650FE001
:10246000286D1549381A88420AD90D48EE600621B0
:10247000D1306C6504F06FFD0021052004F0D2FD21
:1024800001F09EFB064C8034A16B411A0848814242
:1024900005D9606A6662A06201F092FBA063FEBD8E
:1024A000E80100207408002088130000AC700008C8
:1024B00040420F0070050020C0E1E40000B504F0C8
:1024C00019F900BDF0B57F208BB0C0050490FE481F
:1024D000807B002802D13F200006049000252C4676
:1024E000FA48AE008059FA4F4200FA495208B851F2
:1024F0008A4201DCBC510FE00122D207904204D88D
:102500007F22D2050023009203E0F34A0023F3491F
:10251000009202F0F3FAB8516D1C032DE0DB03F0DA
:10252000EFF9EF480068FDF714FFE94D0746296809
:102530000498FDF77CFE3946FDF779FEE94E3146F9
:10254000FDF775FE019069680498FDF770FE394645
:10255000FDF76DFE3146FDF76AFE0290E248006825
:10256000FDF7F7FE0746A9680498FDF760FE3946B7
:10257000FDF75DFE3146FDF75AFE0390D248DB4E73
:10258000C0780C3D002803D0D9480068002831D01D
:10259000D848019901600299416003990027816040
:1025A000D248BE008159D3488059FDF738FE7F1CC0
:1025B000A851032FF4DB03F0E1FC002003F046F800
:1025C000012003F043F8022003F040F8BE4BCA4D4F
:1025D0001A78CA49CA480126002A7DD0BB4AD76862
:1025E000C84A974202DD0268002A76D02A68012A8A
:1025F000FBD04FE10021B64804F01AFBC24F03990B
:102600007868FDF714FE049001213868C907484036
:102610000399FDF70CFE0590B86803990746FDF78E
:1026200006FE0690B9480990B9480890B94800904C
:10263000A548B949027AC079002A7DD0002814D073
:1026400003C94700490049087F0838460791FDF74C
:10265000F1FE00D9079F08993846FDF7E1FE16D82C
:1026600038460899FDF720FE13E00120C007874295
:1026700037D8AA480168AA4801600020FFF7A6FCE5
:102680000499FDF77BFD3168FDF7C9FD4DE07F2022
:10269000C00508908E480099006847007F083846BA
:1026A000FDF7BEFE05D838460099FDF7FDFD07464B
:1026B00001E07F27FF0508990998FDF7B8FD009014
:1026C00098483946FDF7B3FD0099FDF757FD0746D9
:1026D0008D488168012001E0D1E0D7E0C007814248
:1026E00002D931680198CFE78C4801688C480160B5
:1026F00031680198FDF793FD3946FDF798FD00908C
:102700007F203946C005FDF78AFD07460020FFF708
:102710005DFC0499FDF732FD3168FDF780FD394617
:10272000FDF785FD0099FDF729FD28607168029885
:10273000FDF775FD686000E001E0B1689AE00028EF
:102740007ED07F200027C0050999FDF768FD0A901B
:10275000714903C940004D006D08400806462946EE
:10276000FDF768FE00D8354628460899FDF758FE63
:1027700004D828460899FDF797FD01E07F20C005A1
:1027800007905348BD0040590099460076083046EE
:10279000FDF746FE05D830460099FDF785FD064653
:1027A00001E07F26F60507990998FDF740FD07909F
:1027B00031460A98FDF73BFD0799FDF7DFFC0790CE
:1027C000514881680120C007814206D947484159D4
:1027D00001A84059FDF723FD24E0504841595048D5
:1027E00041514248415901A84059FDF718FD079948
:1027F000FDF71DFD06467F20C0050799FDF70FFD7B
:1028000007903846FFF7E2FB04A94959FDF7B6FCEB
:1028100036494959FDF703FD0799FDF708FD314693
:10282000FDF7ACFC2A497F1C0C394851012F8FDD84
:102830002E4881680698FDF7F2FC25490C3900E026
:1028400001E08860B7E600273448BE00815934486B
:1028500081513846FFF7BAFB04A98959FDF78EFC70
:1028600022498959FDF7DBFC7F1CA851012FEBDDC4
:102870001E4881680698FDF7D2FCA8609BE62A4AAC
:102880000C601268012A07D12C6005E0274A1278F3
:10289000002A01D00E6006600B4A254FD27A002A2A
:1028A00053D0FE610968002951D0F8690028074813
:1028B00051D0C5681F492846FDF7B9FC1E49FDF7F0
:1028C0005DFCB8610F4839E0A004002070050020CD
:1028D000240400200AD7233C000080BF0AD723BC71
:1028E000E802002035FA8E3CEC020020AC05002006
:1028F0000001002000070020680000207800002070
:102900007C000020CDCCCC3DF40000209A99993E6B
:1029100000005C423333733FF4050020E8050020DB
:102920005C0100203333333FF8010020D502002042
:102930000000002077BE7F3F6F12833A85421ADD88
:10294000DE480168002915D015E0FC61AAE7DB49E3
:10295000BC610C6005E0C068D949884203DAD748F9
:10296000BC61046007E0FDF75AFCD649FDF75FFC47
:10297000B861D2480660D4480079002819D0D349FC
:10298000BC61D34B0868984211D2D24A90420EDA09
:10299000486898420BD2904209DA8868984206D279
:1029A000904204DAC868002801DD904201DBCA4881
:1029B0000660CA48CA4900780968084303D1C94873
:1029C000B969814223DA7868002807D001F0F8F865
:1029D0007968401AC449884200D97C600025E8B271
:1029E000002103F047F86D1C032DF8DDBF4D0021D9
:1029F0002A46BF4801F00EFDBD482A460021001DB1
:102A000001F008FDBC613E603C620BB0F0BD0020EF
:102A1000386001F0D5F87860B6480068002802D028
:102A2000B548C068B861B5480024006801283FD1A6
:102A3000B348B54D0168B348814205DAFDF7EFFBB5
:102A40002946FDF7F4FB0446B0480168B0488142CE
:102A500005DAFDF7E4FB2946FDF7E9FB04467F2094
:102A6000C005844201DD044601E0002C07DDA949D0
:102A70002046FDF7DCFB7969FDF780FB03E099490F
:102A80007869FDF7CCFB3F2109067861884201DDBA
:102A9000796105E00121C907884201D900207861E8
:102AA00020467969FDF76AFBB969FDF7BCFBB8619F
:102AB00099489A4E00680890002804D10121B06816
:102AC000C9074840B060306800900146884808381F
:102AD00080690746FDF7A3FB099075682946FDF755
:102AE0009EFBB4682146FDF749FB079038460099E4
:102AF000FDF744FB07462946FDF791FB2146FDF70C
:102B00008EFB059029460998FDF738FB2146FDF715
:102B100086FB069038462946FDF730FB2146FDF737
:102B20002DFB04900898002803D10120C0074440E1
:102B3000B460002404AEA5007059214602F00CF8E0
:102B4000641C7051032CF6DD0020664F0446009093
:102B5000A50070590099FDF76DFC01D270590090E5
:102B600070593946FDF75CFC00D27759641C042C7F
:102B7000EEDB7F21C9050098FDF751FB3F252D06AF
:102B8000A84200DD28465A4C083CA168FDF752FCDB
:102B900004D26349A068FDF7F1FA03E06149A06837
:102BA000FDF73DFB4F4FA060A84201DDA56003E0AB
:102BB0005D49884200D9A1604D48012108388068EC
:102BC000C907884200D959485949FDF730FB002808
:102BD0000DDD3946FDF7D2FA07460024A5007059ED
:102BE0003946FDF71CFB641C7051042CF6DB33489E
:102BF000006801281ED100252C46A700F05929465F
:102C0000FDF70EFC00D2F559641C042CF5DB494895
:102C1000854201D9054603E00120C007854209D954
:102C20000024A700F0592946FDF7F9FA641CF05179
:102C3000042CF6DB2E4800210838214F0D467F1E5C
:102C40000162AC0030590121C907884202D9002035
:102C5000305104E07F21C905884200DD31513648FA
:102C60003159FDF7E4FA3946FDF788FA1649305133
:102C70000978002904D0EAB20146104602F0FAFEB3
:102C800030590121C907884202D90020305104E09F
:102C90007F21C905884200DD31513159144C083C6F
:102CA000206AFDF76BFA6D1C2062032DC9DD01213E
:102CB000C943206AFDF736FB2062A6E674000020B7
:102CC000CDCC4C3D9932873FA004002070050020F8
:102CD000A4707DBFA4707D3F44000020CE02002080
:102CE000F00100206F12833A40420F00EC51383F50
:102CF0000800002008010020000600206C000020D1
:102D00002C000020CDCC2C400000404030000020A2
:102D10003333534017B7D13870000020F406002039
:102D20000AD7A33B0AD7233CCDCCCCBD17B7D1B82B
:102D3000CDCCCC3DCDCC4CBE3333733FF0B5024649
:102D400004464E4B83B040006946984209D2732135
:102D50000906884202D20020C04300E00020009013
:102D600030E05000464B400898426CD2454910462E
:102D7000FDF75DFAFDF7BAFB0746FDF7F1FA8007AC
:102D8000800F009040493846FDF751FA01903F49C5
:102D90003846FDF74CFA06463D493846FDF747FAF6
:102DA00005463C493846FDF742FA2146FDF73BFA15
:102DB0002946FDF734FA3146FDF731FA0199FDF75E
:102DC0002EFA044625467F27009CFF05002C3EDB9B
:102DD000E007314E294608461BD0FDF728FA074682
:102DE0002E49FDF724FA2E49FDF71DFA3946FDF765
:102DF0001EFA2C49FDF7C2F93946FDF718FA2946A3
:102E0000FDF715FA2946FDF7B9F9A10718D503B062
:102E1000F0BDFDF70CFA05462349FDF708FA2349F2
:102E2000FDF7ACF92946FDF702FA2149FDF7A6F9AD
:102E30002946FDF7FCF93946FDF7A0F9A107E6D5CB
:102E4000704003B0F0BD1046FEF7D4FEB9E7FF2195
:102E500068000906884202D2384603B0F0BD8842B5
:102E600006D10120FEF796FFFEF7B6FE03B0F0BDD7
:102E70002846FEF7ACFE03B0F0BD0000B61F927E00
:102E8000490E494683F9223F1A61342C0020A233AF
:102E900000A0FD390000C93F00000080336D4C39AF
:102EA000DA82083CA0AA2ABEB93AB2BACA9F2A3D21
:102EB000DDFFFFBEF3B5074681B0102001F0E8FD4D
:102EC000041E1BD00020207102986071E46001256F
:102ED000A46026467F1C0EE0102001F0D9FD0028DA
:102EE0000CD0057102994171C6608460B0606D1CA0
:102EF0000646EDB2E060BD42EED32046FEBD0000C6
:102F0000F8B56D4F3868A5287ED1002108468200AB
:102F1000BA58401C51180E28F9DBC8B2B96B884268
:102F2000F2D16548103002F081FB644E3060624897
:102F3000183002F07BFB70605F48283002F076FBAF
:102F4000B060388C796A8007800D4018FDF7F6F97B
:102F50005B49FDF76CF90146F0605A48002502789C
:102F600001245948002A29D0584A1278002A04D14D
:102F7000574A914201DD047000E00570397A4A0732
:102F8000D20F4906C272C90F01735249097800294C
:102F900009D0012909D002290AD00329C4700BD015
:102FA0000572C4713DE0C57000E0C470057201E0B7
:102FB000C4700472C57134E00472F2E746490978BE
:102FC00000290BD0397B0906C90F0170397A0A072D
:102FD000D20FC907C270C90F81710AE0397A0A0796
:102FE000D20F02703A7BC9071206D20F8271C90F45
:102FF000C170B968CA06D20FC2718A06D20F0272B6
:103000003B7B9A06D20F00E054E0C2725A07D20FFF
:1030100082727A68FA2A09D0002289074270C90FA1
:1030200081702E490978012902D002E00122F4E7DB
:1030300081710746C078002823D0387A0028F879B3
:1030400004D0002804D12649306803E000280AD0C3
:103050002449306802F03EFD30602249706802F079
:1030600039FD706004E01E49306802F033FD3060C5
:103070001B49B06802F02EFDB06000201A4A1B4BBD
:103080000CE01849306802F025FD30601549706881
:1030900002F020FD70601649B068EBE715541E5C25
:1030A000395C8E4200D014541954401C0E28F5DBB4
:1030B0000120F8BD0020F8BD740800207005002034
:1030C000F7FF7F3AD5020020A0040020CE020020A6
:1030D0000AD7233CD6020020D8020020D7020020C5
:1030E000CDCC0C3FCDCC4C3F90050020800500207E
:1030F0009A99193F10B50020FFF78AF810BD08B55E
:10310000C100081A0090411E009101D30846FAE759
:1031100008BD000070B58AB000F052FD2349884216
:1031200042D302206946087101258D71CD710320BB
:1031300048711F4E802430460094FDF7A6FD002202
:1031400007213046FDF7D9FD694630460094FDF76A
:103150009CFD002207213046FDF7CFFD01218803A9
:10316000FEF792F80024E120400208940390042026
:10317000104E079004940594069403A93046FEF778
:1031800055FC01220C493046FEF73BFC012130463C
:10319000FEF7F9FB1B20694608724C728D7202A87B
:1031A000FEF708F8054884620AB070BD80841E00EE
:1031B000000400480038014005010500E801002036
:1031C000FEB56D4C0127A06A002803DAA760FFF75F
:1031D000A1FFE760A06A002800D1A760664D803596
:1031E0002868686003F05AFC03CD083D884202D08D
:1031F00000F0E6FCA86000F0E3FCA9680026401A95
:103200005E49884201D9A662FEBDA06A0128FBD1B1
:1032100060695B49401E884200D2E660594D68688B
:10322000FDF797F88921C905FCF7F9FF5249096AAA
:103230000191FCF7FCFF544C20600090A868FDF75A
:1032400088F88921C905FCF7EAFF0199FCF7EFFF2F
:103250006060E868FDF77DF88921C905FCF7DFFFAC
:103260000199FCF7E4FFA0602868FDF772F8892156
:10327000C905FCF7D4FF0199FCF7D9FF0021C94328
:10328000FDF750F83F210906FCF778FF7F21C905BB
:10329000E060884201DDE16004E00121C907884265
:1032A00000D9E660394DE878002826D0287A002831
:1032B000E87903D0002803D1354902E000280AD07C
:1032C0003449009802F006FC20603249606802F040
:1032D00001FC606004E02E49009802F0FBFB2060D6
:1032E0002B49A06802F0F6FB2649A060244A086931
:1032F000C93290420ED901200DE02649009802F013
:10330000E9FB20602349606802F0E4FB6060224929
:10331000A068E7E7002028704869904201D90120A1
:1033200000E00020E8708869904201D9012000E0A7
:1033300000202872C869904201D9012000E00020D5
:10334000E871086A904201D9012000E00020A870CD
:10335000486A904201D9012000E00020A871064887
:10336000E12241699200914200DC4DE70761C760AC
:10337000511C86604161FEBDE801002040420F0003
:10338000830300003C07002070050020A0040020FB
:10339000CDCC0C3FCDCC4C3F9A99193F70470000E3
:1033A00006460024E0B2002102F064FB641C032CFA
:1033B000F8DD0B4DAF0000240CE0FF2000F0CDFF46
:1033C0002846FFF79CFEFF2000F0BEFF2846FFF7CF
:1033D00096FE641CB442F0DB3846FFF790FEEAE745
:1033E000400D030010B50349FCF7C8FE00F004F8D7
:1033F00010BD0000DB0FC93F70B50446134E144DDD
:1034000003E03146FCF7BAFE0446AC42F9D8114D50
:10341000AC4204DD3146FCF702FF0446F8E7012028
:10342000C0070D490D4D8442204605D9FCF7FFFE2B
:103430002946FCF7A3FE04E0FCF7F9FE2946FCF759
:10344000F2FE2146FCF7F3FE70BD0000DB0FC94021
:10345000DB0F49C0DB0F49407B81CF3E83F9A23FA0
:10346000FEB500273D460024681CFCF767FF01906D
:103470000E49A8000E58601CFCF760FF0090A100E8
:1034800071580198FCF7D3FE0099FCF7D0FE08496B
:10349000FCF7CDFE3946FCF771FE641C0746032C91
:1034A000E9DB6D1C032DDEDBFEBD0000DC0100202E
:1034B0008D976E3F10B5FFF7D3FF0149086010BD2F
:1034C00080000020F8B50020012400F0ADF9524D35
:1034D000A8427DD1FF2000F0A7F9A84278D120466C
:1034E000022500F0A9F94D4948600968FCF798FFEA
:1034F00011D100260024B70028466D1C00F09CF96D
:103500004749A200C959641C8850032CF4DB761C7F
:10351000032EEFDB00E00B2528466D1C00F08CF934
:10352000404C206028466D1C00F086F960602846FB
:103530006D1C00F081F9A06028466D1C00F07CF93C
:10354000FCF727FF3849086028466D1C00F074F925
:10355000FCF71FFF3549086028466D1C00F064F930
:1035600033490870284600F05FF932490870262078
:1035700000F05AF9C0B2304900240870012800D97F
:103580000C70272000F050F9C0B22C4901280870B7
:1035900000D90C70282000F047F9C0B22849012852
:1035A000087000D90C70292000F03EF925490870F8
:1035B0002A2000F039F9244908702B2000F034F952
:1035C000224908702C2000F02FF92149087000E0F2
:1035D00021E02D2000F028F91E4908702F2000F06E
:1035E00023F91D490870302000F01EF91B490870AE
:1035F000312000F019F91A490870362000F01CF942
:10360000FCF7AEFE17490860372000F015F9FCF70B
:10361000A7FE15490860F8BD0100AA12800000202D
:10362000DC010020A0050020E8020020EC020020C0
:10363000C9020020CA020020D7020020D8020020C0
:10364000D5020020D6020020CF020020D1020020A7
:10365000D2020020D3020020D4020020D902002090
:10366000C80200206C00002070000020F8B500F0B7
:10367000E7F800F0C7F8002001244D4903F07CFC76
:103680004C4920460225096800F0DEF80026002497
:10369000B7004948A100C059415828466D1C00F0A8
:1036A000D3F8641C032CF4DB761C032EEFDB434CB5
:1036B00028466D1C216800F0C7F828466D1C61681B
:1036C00000F0C2F828466D1CA16800F0BDF83C4827
:1036D0000068FCF73EFE014628466D1C00F0B4F879
:1036E00038480068FCF735FE014628466D1C00F09E
:1036F000ABF8354928466D1C097803F03DFC33488A
:103700000178284603F038FC31480178262003F080
:1037100033FC30480178272003F02EFC2E48017836
:10372000282003F029FC2D480178292003F024FCEF
:103730002B4801782A2003F01FFC2A4801782B200F
:1037400003F01AFC284801782C2003F015FC2748C8
:1037500001782D2003F010FC254801782F2003F07C
:103760000BFC24480178302003F006FC2248017845
:10377000312003F001FC21487F240068E405002883
:1037800001D0214600E00021362000F05DF81C4801
:103790000068002801D0214600E00021372000F019
:1037A00053F80349FF2003F0E7FB00F039F8F8BDB8
:1037B0000100AA1280000020DC010020A0050020EA
:1037C000E8020020EC020020C9020020CA0200200A
:1037D000D7020020D8020020D5020020D602002007
:1037E000CF020020D1020020D2020020D30200200C
:1037F000D4020020D9020020C80200206C00002062
:103800007000002010B50548FDF7C0F9042803D06A
:10381000FDF7ECF9012010BD002010BD007C000870
:1038200010B5FDF7E3F910BD0249800040180068AB
:1038300070470000007C000800B5FFF7F5FF00BDF1
:1038400010B5FDF701FA10BD10B503F095FB10BDE2
:1038500030B53F4C2178814277D006216218203A5A
:10386000D27F6254491E0129F8DA2070394938485C
:10387000FEF710FD7F25002802D06570032030BDC3
:1038800034493348C91DFEF705FD002802D0657094
:10389000042030BD2F492E480E31FEF7FBFC0028D6
:1038A00002D06570012030BD2A4929481531FEF744
:1038B000F1FC002802D06570022030BD2549244863
:1038C000C91FFEF7E7FC002802D06570092030BD53
:1038D00020491F480E39FEF7DDFC002802D0657034
:1038E0000A2030BD1B491A481539FEF7D3FC0028C1
:1038F00002D065700B2030BD164915481C31FEF70B
:10390000C9FC002802D06570052030BD114910485F
:103910002331FEF7BFFC002802D06570062030BDC1
:103920000C490B482A31FEF7B5FC002802D065701F
:10393000072030BD074906483131FEF7ABFC0028AF
:1039400003D06570082030BDFFE70020FBE70000D2
:103950009C0000205B700008F8B500F07FF80400C0
:1039600064D00125354F012C1ED13868002832D093
:103970003348056000203860FFF778FEFFF7A2FDAE
:10398000002002460C26034673432E4E00219B194D
:103990008E00491C9A510329FADB401C0328F1DBF5
:1039A00000F00EF9284908600221284E0B2C17D090
:1039B0000A2C1CD02648042C21D0032C23D0072C01
:1039C00000DB3D60052C23D0062C24D0072C2ED004
:1039D000082C2FD022E000F00DF9FEF7FBF9CBE721
:1039E0001C4A05E01060081A30603D60E9E71A4A99
:1039F0001068002801D00020F4E70120F2E70571EB
:103A00000F4805600AE00E490D600021017105E0D4
:103A100001F0C0F801E001F0AFF83060386800282C
:103A200004D03068002801D105480560F8BD00F0D9
:103A300025FCF2E7FFF75EFBEFE7000088000020BF
:103A4000440000209406002064000020480000206C
:103A5000A0040020700000206C00002070B53748E2
:103A6000374C0068002864D0364B37481A6851003C
:103A7000490881420BDA9D686D006D08854206DABF
:103A80005D686D006D08854201DA00202FE02F4D42
:103A9000AA4202D89E68AE4206D95E6876007608D1
:103AA000864201DA012022E0294EB24202DC9A6805
:103AB000B24206DD5A6852005208824201DA022000
:103AC00015E05A68AA4208D9814206DA9D686D005D
:103AD0006D08854201DA032009E0B24208DD814227
:103AE00006DA996849004908814201DA0420206019
:103AF00000F066F806CC083C914200D0E060E26835
:103B0000801A144A90420FD9002904D1124A9042D7
:103B100001D90C2005E0114A904204D97F2903D035
:103B2000FF20A06000E0A1606160A068FFF790FE48
:103B300070BD7F20A0606060002070BD000000208C
:103B40008C00002070050020CDCC4C3E333333BFB9
:103B50003333333FA086010060AE0A0020A1070086
:103B600070B5134C134A606800231349904206D97C
:103B70000D7D012D03D10D6EAD680D660B750F4DDA
:103B8000A84206DD4E7D012E03D10E6EF6680E664C
:103B90004B750123A84203DA904201D24B750B7595
:103BA0002068A84203DA904201D28B75CB7570BDB4
:103BB000700500209A9919BFC80200209A99193FF0
:103BC00000B503F0A5F900BD1CB523200121400478
:103BD000FDF742FB01206946087100208871C87119
:103BE00003204871022000900920C006FDF74DF81F
:103BF0001CBD0000F0B591B0FFF7E2FF0F90054645
:103C00000B900A9000208100574B0CAA5B58401C77
:103C100053500328F7DB8DE00A980A95281A09907B
:103C200001D10120099006236A464321682000F053
:103C300097F9009801990002401800B2FCF77EFB4A
:103C40000790029803990002401800B2FCF776FB37
:103C50000690049805990002401800B2FCF76EFB2C
:103C6000424E0890307800F01BFB20464049FCF79C
:103C70005FFA4048814201D9012100E0002130680B
:103C8000C207D20F914201D0401C30603748017802
:103C90000907090F00260160B4000CAF06A83959C6
:103CA0000059FCF7C7FB04D238593349FCF766FAD0
:103CB000385106A839590059FCF7B2FB04D23859DB
:103CC0002D49FCF7ACFA3851E0192C4900F04EFBB5
:103CD00038592B4940004008FCF750FA014606AF1E
:103CE000385940004008FCF7A5FB06D2FFF768FFF3
:103CF0000B901E48012101600BE00998FCF729FB9D
:103D0000204900F0C3FB024617483959201800F03B
:103D100081FB761C032EBFDB7D24E400FFF750FF00
:103D2000401BA04203D20A20FFF7E9F9F6E7FFF7AC
:103D300047FF05460B982C1A1348844205D20F986A
:103D40001249281A884200D266E70B98291A0E48B1
:103D5000814207D20020044A01468300401CD15012
:103D60000328FADB11B0F0BDC4050020DC00002000
:103D700024F40000127A0000CDCCCC3D0000484471
:103D80000000C8420024F44880841E00C0E1E40022
:103D900010B58AB002206946087101208871C87187
:103DA0000320164C00902046FCF76FFF01220021F3
:103DB0002046FCF7A2FF012211462046FCF79DFF9A
:103DC00001214805FDF754FA1020FDF705FB0C48CA
:103DD000029000200F2104910390AB21094C059023
:103DE00007900691089002A92046FCF7BFFF012129
:103DF0002046FCF7A0FF0AB010BD000000140048E8
:103E00001808700000540040F8B517461E460446D6
:103E1000012200F03BF80920800200906004010CB0
:103E20000123F2B25B061248FCF7D8FF114D0020C7
:103E3000287018E0002408E0641C600B05D00E49CF
:103E40000868401C08600020F8BD04210848FCF701
:103E500086FF0028F0D00648FCF7BAFF29788A00D0
:103E6000B850491C29702878B042E3DB0120F8BD26
:103E700000540040B00300209403002008B5012343
:103E80006A46FFF7C1FF009808BD0000F7B582B091
:103E9000174600241C4D1D4E02E0641C600B24D10B
:103EA0000121C9033046FCF75AFF0128F5D0012053
:103EB000400300900298FAB24004010C00233046FF
:103EC000FCF78CFF02E0641C600B0ED1022130462F
:103ED000FCF745FF0028F6D00398C1B23046FCF746
:103EE0007AFF08E0641C600B05D02868401C28603D
:103EF000002005B0F0BD01213046FCF730FF00285E
:103F0000F0D00120F5E700009403002000540040A9
:103F100070B5154600240222FFF7B8FFE9B20C4D38
:103F20002846FCF758FF07E0641C600B04D00949E1
:103F30000868401C086070BD40212846FCF70FFF50
:103F40000028F1D001212846FCF7FFFE70BD0000DB
:103F5000005400409403002010B5FFF719FF10BD76
:103F600010B5FFF751FF10BD10B5FFF787FF10BD6B
:103F700010B5FFF7CDFF10BDF0B5A24CA24D91B02A
:103F800021682868FCF74BF9A04E0746306061684D
:103F90006868FCF744F97060A168A868FCF73FF90D
:103FA000B0603846FCF73EFF30607068FCF77AFF7F
:103FB0007060B068FCF7B6FFB0609549684602F0E3
:103FC000C1FF9448002400680AAF03909248A500FE
:103FD00040590399FCF72BF9641C7851032CF5DB4D
:103FE0000B98FEF7ABFE03900B9802F0BDFB079019
:103FF0000A98FEF7A3FE0D9001250A98ED07684088
:1040000002F0B2FB04460C98FEF798FE06900C985E
:10401000684002F0A9FB049003990698FCF707F9A1
:1040200008900D990698FCF702F907460399049841
:10403000FCF7FDF8059006990798FCF7F8F80E9044
:1040400004990798FCF7F3F809900D9804996840D3
:10405000FCF7EDF80F9021460E98FCF7E8F805996B
:10406000FCF78CF8109021460998FCF7E0F80899C5
:10407000FCF7D9F8069007980D996840FCF7D7F837
:10408000079021460898FCF7D2F80999FCF7CBF87D
:10409000054621460598FCF7CAF80E99FCF76EF81C
:1040A000049003990D98FCF7C2F82946584D0890E2
:1040B000A8680590FCF7BBF8099068681099039010
:1040C000FCF7B5F839460D902F683846FCF7AFF885
:1040D0000D99FCF753F80999FCF750F800900499F2
:1040E0000598FCF7A4F8049006990398FCF79FF84C
:1040F000069038460F99FCF79AF80699FCF73EF8B7
:104100000499FCF73BF8019008990598FCF78FF8A3
:10411000049007990398FCF78AF8039021463846E3
:10412000FCF785F80399FCF729F80499FCF726F8C1
:1041300002906946284602F005FF3448FEF74EF823
:1041400036497F220968D205002926D03449354BEB
:104150004118994242D2014600241046FCF7A4F8C7
:104160000390A700F159FCF762F8641CF051032C8E
:1041700001DA0398F5E727483F210906006800F0B7
:1041800097F907460024A000315840193A4600F03C
:1041900041F9641C032CF6DB20E0014600241046A4
:1041A000FCF782F80390A700F159FCF740F8641C73
:1041B000F051032C01DA0398F5E716483F21090670
:1041C000006800F075F907460024A0003158401936
:1041D0003A4600F01FF9641C032CF6DB1248017A02
:1041E000002902D1C07900280AD0A9682868FDF703
:1041F00055FF0E4C2060A9686868FDF74FFF6060AE
:1042000011B0F0BDA0050020B8050020DC0500209D
:10421000F400002060000020AC0500200000002019
:10422000CCCCCCC032337300A0040020F4050020B5
:10423000F8B500260D4FFDF7FFFD0024A5000C4842
:1042400079594059FBF7EBFF01460A480A4A2818FA
:1042500000F0E0F8641C032CF0DB7D20C000FEF7CA
:104260004EFF761C642EE6DBF8BD0000A0050020A2
:10427000B8050020F40000209A99593F10B501209C
:10428000FDF7C6FF10BD0EB500226B461A805A809E
:1042900001911A819A726946FDF70AFA0EBD000073
:1042A00070B50646FFF78CFC194C21692061451A50
:1042B0003046FCF74EF81749FBF7B9FF06460121D7
:1042C000204689070C3000F051F82846FCF741F8E9
:1042D000054630466168FBF7A2FF2946FBF7A7FFBA
:1042E0000D49FBF7A4FFE168FBF748FF0B49E060CD
:1042F000884205DDFF2000F030F87F20C00503E094
:10430000FF2000F021F800206060002070BD000058
:10431000A40000208988883D6F12833A48E1FA3E64
:1043200070B50D460446FFF74BFC2146FBF700FF36
:104330006C432009814203D90F2000F00EF870BDB4
:104340000F2000F001F870BD10B5C00704D009209F
:104350000221C006FCF7E8FC10BD10B5C00704D070
:1043600009200221C006FCF7E1FC10BD70B504462F
:104370000120C0070D4645400E462068FCF75AF85C
:1043800000D2266028462168FCF754F800D2256048
:1043900070BD1CB501214804FCF75EFF02200090AF
:1043A0000020694609240871E4062046FCF76DFCEC
:1043B00002212046FCF7BAFC1CBD00007CB5802021
:1043C0000090012069460871002088710F4DC87166
:1043D0002846FCF75AFC80212846FCF7A7FC0C482D
:1043E000FEF78DFE002480212846FCF79DFC7820F6
:1043F000FEF785FE80212846FCF798FC7820FEF722
:104400007EFE641CE4B2092CEDD37CBD00040048A0
:1044100060EA000070B505460C467F20164611463E
:10442000C005FBF7FCFE2146FBF701FF04463146C1
:104430002868FBF7FCFE2146FBF7A0FE286070BD54
:10444000F3B5104E104F8C0083B031597869FBF7EB
:10445000EEFE019030460C38055938692946FBF7C5
:10446000E6FE0090B9690398FBF7E1FE0099FBF7BF
:1044700085FE0199FBF7D3FE314635510C390851C1
:1044800005B0F0BD300700207401002010B5FBF727
:104490000BFF7F24E4052146FBF7C5FEA04201DDAA
:1044A000204610BD0121C9078842FAD9002010BD5D
:1044B00010B5FBF7BCFE7F24E4052146FBF7B3FEF5
:1044C000A04201DD204610BD0121C9078842FAD96A
:1044D000002010BDF8B5164A09018C18054627685A
:1044E000A1686068FBF74AFE0090E168FBF746FEB2
:1044F00001467F20C005FBF7D7FE0099FBF797FE2A
:10450000064639462846FBF78AFE3146FBF78FFE02
:104510003946FBF733FE05467F203146C005FBF7E1
:104520007EFE0099FBF783FE256060602846F8BD9B
:10453000100600200EB57D20C000FEF7E0FDFDF75F
:10454000BDFF02F013FC0927FF0602213846FCF7E5
:10455000E4FBFD4E0025002823D1FFF72FFF357027
:1045600002213846FCF7D9FB0028F9D000240221AB
:104570003846FCF7D2FB002808D13078401C307058
:1045800002213846FCF7C9FB0028F9D0307803280F
:1045900001D303203070ED48641C8442E7D3FFF759
:1045A00065F8FFF711FBFF20FFF7D7FE02F0B4FA22
:1045B00002F098FC00F01AFB4B208001FDF7CEF8CA
:1045C000E348FEF79CFDFFF7C7FC01F0D7F9002197
:1045D000084601F04FFA0021012001F04BFA0021BA
:1045E000032001F047FA0021022001F043FA02F013
:1045F0008FF902F07BF9002814D0FDF759FCD5485B
:1046000001278773FEF756FFFEF75CFF3078D24E26
:10461000002809D0D14C01280BD0022808D003284B
:104620000ED015E0042098E001F048FDCC480EE0E3
:104630000020FCF7DDFE02F001F8CA48276006E022
:104640000020FCF7D5FEFEF7A9FEC7482560B06341
:104650000024C04FAA200C3F3870552078700720E6
:10466000B8700120F870C1480521007838713846CB
:10467000FCF79CF97871BD71FD713D727D72BD7260
:10468000FD72FDF759F8BA48641C8442E1DB00244E
:104690000020FDF77FFC3169FBF7C9FD07460120CB
:1046A000FDF778FC0146AC48B24A1030FFF7B2FE85
:1046B000A948B04A39460830FFF7ACFEAC48641C44
:1046C0008442E5DBAC4FB068062401902046FBF73E
:1046D00035FE014600900198FBF7E6FDB84202DD89
:1046E0000098F06102E0641E002CEFDCF169019893
:1046F000FBF7DAFDA149884201DA02202DE0FCF740
:104700007DFBFFF777FA01F0ADFAFFF791FD9C48CA
:104710000068002801D007201FE0FFF751FA30643D
:10472000FFF74EFA8C4C0646206C301AFBF711FE50
:10473000E063002802DC7F20C005E0639149FBF7BD
:1047400076FD9149E063884201DD062005E08C4852
:1047500026640068142802DD0820FEF721FE02F01E
:1047600015F9FDF7AFFEFFF707FC0020FDF712FC7F
:10477000794C2169FBF75BFD07460120FDF70AFC38
:10478000014620467B4A1030FFF744FE7F48794AB5
:10479000016820461430FFF73DFE7D49E069FBF7D4
:1047A00046FD01907B4A01A8A168FFF733FE204631
:1047B000704A39460830FFF72DFE0121C9430198A0
:1047C000FBF7B0FD07467449A068FBF730FD39469A
:1047D000FBF725FD00907148676987425BDD204645
:1047E000C06A0446FBF7AAFD6C49FBF720FD394679
:1047F000FBF71DFD0099FBF7C1FC5649A400703181
:10480000085107465448406B002808D00020524BFE
:1048100030398200401C8F500C28FADB5D634D4814
:104820005F4910300059FBF702FD029049484030C3
:1048300001593846FBF7F3FC0299FBF79FFC454909
:1048400040310F51303908510146FBF7F0FC414F20
:104850000146A037E019534AFFF7DCFD3E483E49C8
:10486000C06A401CC8620C2815DBCD623868002481
:1048700002903848A700A030C0590299FBF7D0FD3C
:1048800006D23448A030C05902903348611C0163FD
:10489000641C0C2CEDDB304CA069002800D03F4894
:1048A0004149FBF76BFC0746206BFBF747FD3B4993
:1048B000FBF7BDFC6169FBF7BAFC0099FBF75EFCF6
:1048C0003946FBF7ADFD03D33849A068884202DAC8
:1048D0000120A06100E0A561206BFBF72FFD2F49AF
:1048E000FBF7A5FC6169FBF7A2FC0099FBF746FC0E
:1048F000E0602F480068002805D02E480078002886
:1049000001D1FFF729F814488069002801D0082157
:1049100008E029480068002806D0284800680028D8
:1049200004D00F2126485DE00C215AE00948807927
:10493000002847D00027084C206A002855D0A06ADC
:10494000002841D043E00000CF02002000093D00D4
:10495000A0860100A0040020240000200402002002
:10496000B9220008E1610008C1310008CA02002034
:1049700088130000492E7F3FCDCC6C403333534029
:1049800094030020BD3786350AD7A33C20000020C1
:104990006666864029EA7F3F0000A03FCDCCCC3D33
:1049A00042F27C3F67B17F3FCDCC4C40CDCC2C4018
:1049B00000000020CE020020F4010020F0010020C1
:1049C00020A107000127B6E7FFF7FAF8A062FFF77A
:1049D000F7F8A16A411A2948814201D92562A562E6
:1049E00008212748FFF79CFC2DE02648406A002854
:1049F00020D0FFF7E5F804462248806A00280AD153
:104A00002048002F846203D0FF20FFF79DFC02E0C6
:104A1000FF20FFF7A2FC1B48816A621A17498A42ED
:104A200003D9416A8562491E4162806A1649201A8B
:104A3000884208D9002F03D0FF20FFF78EFC02E048
:104A4000FF20FFF781FC01F0FBF901F0A9F80D4C04
:104A5000A06B804720680D49401C2060A068FBF7D0
:104A6000E6FBFBF77DFC606000F0F2F87D24E400DB
:104A7000FFF7A6F8801BA042FAD351E620A1070059
:104A8000A086010024000020E09304000000C8423A
:104A9000F0B50B30C108C900144F0026144A0FE0CE
:104AA00003688B420BD38B4205D95C1A43184568C7
:104AB00030C3083B00E04368136002C004E0021DFD
:104AC00010680028ECD13046002803D1386800284F
:104AD00001D00020F0BD064A06481060064A121AAE
:104AE000D208D20044C001203860D7E7D0030020AC
:104AF000CC0300204C090020480D0020FFB581B0F8
:104B000007460E4610460A9DFBF789FB04462846D9
:104B10000499FBF784FB054631463846FBF77FFBDB
:104B20002946FBF784FB2146FBF7BEFB0499FBF704
:104B300025FB05B0F0BD000010B506490868002847
:104B400007D000200860091D08710920C006FCF785
:104B50009CF810BD9803002070B503468C00044DEE
:104B6000044A60191946FFF755FC285970BD00002A
:104B700034040020BA30223F05490868022804D0D6
:104B800001DA02200860401C70470020FAE70000AC
:104B9000740100200C494868002804D0012807D07F
:104BA00002280AD10BE0084844308860012003E065
:104BB00005485030886002204860401C7047024819
:104BC000383088600020F7E77401002010B50649EE
:104BD000C86C401C8007800FC864A031095C252088
:104BE00002F020FA10BD0000E801002010B50021FD
:104BF0000720FEF75FF9154C0121A062E062092051
:104C0000FEF758F92063606302210420FEF752F991
:104C1000A063E06303210020FEF74CF92064606488
:104C200004210320FEF746F9A064E0640521042076
:104C3000FEF740F92065606506210320FEF73AF98A
:104C4000A065E065A06A206610BD0000C8020020D3
:104C5000F8B5FE4DFE49A86901260024884204DA11
:104C6000401CA8610620A87104E0287A002801D120
:104C70002E72AC71A879F74F0300FCF770FF08059E
:104C8000C7F0EFEEEDECEBC6F048457BF248002DA7
:104C9000C1680DC833D0F14DAB427DD9F04B99427C
:104CA0007DDABA427BDDEF49884278D2984276DAE3
:104CB000E64AED4D9671002081006B58116B401C47
:104CC0000B608968C0B211630328F5D3E74D00205B
:104CD00081006B58116B401C0B608968C0B2116376
:104CE0000328F5D3E24D002081006B58116B401C66
:104CF0000B608968C0B211630328F5D345E0DD4D30
:104D00002D78002D4BD1D54DAB4248D9D44DA94279
:104D100045DDD94B994242DABA4240DDD149884259
:104D20003DD2A8423BDAC94ACF4D9671002081009E
:104D30006B58116B401C0B608968C0B2116303286B
:104D4000F5D3CA4D002081006B58116B401C0B60DD
:104D50008968C0B211630328F5D3C54D00208100D6
:104D60006B58116B401C0B608968C0B2116303283B
:104D7000F5D3B64D00201C352B5C916B401C0B709D
:104D80008968C0B291630428F6D3506B1063D06B6E
:104D900090639078107100E001E05078D070B74DCA
:104DA0002868C82831D3A94B0F209A79B449120139
:104DB0001043B04A087010784870B2488C70008870
:104DC000060ACE700871D8794871107AD6794300F6
:104DD000B600D278334313438B71002A03D10028E5
:104DE00001D0012000E00020C8710C724C728C725E
:104DF000CC7200200B5CCA7A401CD218C0B2CA72B6
:104E00000B28F7D3FCF798FC2C60F8BDFEF7A8FE42
:104E100091480068B8424EDDA87D01284BD1286E2C
:104E200000790300FCF79BFE0805090E121C2024E4
:104E30004146686B2866022002E0E86B2866032082
:104E4000A87137E0686C28660420F9E7E86C2866EA
:104E50000520F5E772E3CDE228E2C8E169E150E020
:104E6000686D28660620EBE7E86D28660720E7E70F
:104E7000AC71E86A28662C756C75FEF7F7FBFEF7D7
:104E800021FB814E00210C230A4600205A4392192F
:104E90008300401CD4500328FADB491C0329F2DBB1
:104EA000FEF78EFE7949086004E0AC71E86A286676
:104EB0002C756C75AC75714E3068C828A5D3AA796D
:104EC0000F206F49120110430870286E0079487056
:104ED000A87C8870E87CC8700C714C718C71CC71A6
:104EE0000C724C728C72CC7200200B5CCA7A401C23
:104EF000D218C0B2CA720B28F7D3FCF71DFC34607D
:104F0000F8BDFEF72DFE54480068B84233DDA87D99
:104F1000012830D12F6E3879092826D25C493868AB
:104F2000FBF72CF93860686B28634F4A0020296B27
:104F300086000B6893518968401C29630328F6DBBF
:104F40004A4A002086000B6893518968401C2963F7
:104F50000328F7DB464A002086000B6893518968D6
:104F6000401C29630328F7DB04E0AE71686B2863FB
:104F7000E86A2866AC75384801683848814230D9FB
:104F8000E87D01282DD12E6E3079092828D240499C
:104F90003068FBF744F93060002800DC3460686B4F
:104FA0002863314A0020296B86000B689351896879
:104FB000401C29630328F6DB2C4A002086000B687E
:104FC00093518968401C29630328F7DB284A002095
:104FD00086000B6893518968401C29630328F7DB1E
:104FE000EC75264F3868C8288AD3A9790F200901A3
:104FF000234E08433070286E1B4D00797070254990
:105000002868FBF714F9FBF7F7F901F009F8FBF74B
:10501000D5F9B0701F496868FBF709F9FBF7ECF99F
:1050200000F0FEFFFBF7CAF9F0701A49A868FBF719
:10503000FEF8FBF7E1F900F0F3FFFBF7BFF90B4DCA
:10504000307114492868FBF7F2F825E0C802002007
:105050004A0600009A99193F700500209A9919BFD5
:105060009A99993E9A9999BEAC010020B801002006
:10507000C4010020A00400203333333F240000206B
:1050800094040020280000209406002064000020E2
:105090000AD7233C0000C842FBF7AEF900F0C0FF7E
:1050A000FBF78CF97071F9496868FBF7C0F8FBF7FA
:1050B000A3F900F0B5FFFBF781F9B071F349A868D7
:1050C000FBF7B5F8FBF798F900F0AAFFFBF776F9C4
:1050D000EF4DF071ED492868FBF7A9F8FBF78CF963
:1050E00000F09EFFFBF76AF93072E8496868FBF749
:1050F0009EF8FBF781F900F093FFFBF75FF9707200
:10510000E249A868FBF793F8FBF776F900F088FF0F
:10511000FBF754F9B072F4720020325CF17A401C53
:105120008918C0B2F1720B28F7D3FCF705FB3C607D
:10513000F8BDFEF715FDD7480068B84212DDA87D1E
:1051400001280FD1286E0079002830D0012836D0F0
:1051500002283CD0032842D0AE71E86BA863E86A0D
:105160002866AC75CC4E3068C828E1D3AA790F20E8
:10517000CA49120110430870286E00794870687B94
:105180008870A87BC870E87B0871287C48718C7196
:10519000CC710C724C728C72CC7200200B5CCA7A8F
:1051A000401CD218C0B2CA720B28F7D3A5E6687BA0
:1051B000002802D000206873D3E70120FBE7A87B1A
:1051C000401CC0B2A8730428CBD9AC73C9E7E87BF4
:1051D000002802D00020E873C3E70120FBE7287C09
:1051E000002802D000202874BBE70120FBE7FEF76F
:1051F000B7FCA84B1868B8420ADDA97D012907D180
:10520000A749C978002902D0AE71E96A2966AC7550
:10521000A14F3968C8298BD3AA790F219F4E12015B
:1052200011433170296E1D46097971709749FAF75B
:10523000FEFFFBF7E1F800F0F3FEFBF7BFF8B070FC
:1052400092496868FAF7F3FFFBF7D6F800F0E8FE3A
:10525000FBF7B4F8F0708D49A868FAF7E8FFFBF7A0
:10526000CBF800F0DDFEFBF7A9F830718749E8685C
:10527000FAF7DDFFFBF7C0F800F0D2FEFBF79EF86F
:10528000707187480178B171C178F171017A31721A
:10529000C0797072B472F4720020325CF17A401CF2
:1052A0008918C0B2F1720B28F7D33EE7FEF758FC1D
:1052B00078480068B84261DDA87D01285ED1286E7B
:1052C0000079002806D001280DD0022815D0032827
:1052D00053D14FE02879401CC0B22871272800D94B
:1052E0002C716E7149E0E878401CC0B2E87001286A
:1052F00000D9EC70022068713FE06879022816D16D
:10530000E9786970654F6C71AA2038705520787003
:105310000520B870FE70397101463846FBF746FB30
:105320007871BC71FC713C727C72BC72FC726879E1
:10533000012816D12879A870584F6C71AA213970AC
:10534000552179700721B970FE70387105213846F2
:10535000FBF72CFB7871BC71FC713C727C72BC72E7
:10536000FC72FEF783F9FEF72BFC4E490860FCF750
:10537000E3F902E0AE71E86A2866AC754548016859
:105380004948814210D9E87D01280DD1286E007965
:10539000002808D12879002801D128202871C0B21E
:1053A000401E28716E71EC753B4E3068C82800D2E3
:1053B000BEE6AA790F203949120110430870286E01
:1053C00000794870A87888706878C8700C7128795E
:1053D0004871E8788871CC710C724C728C72CC7206
:1053E00000200B5CCA7A401CD218C0B2CA720B28CB
:1053F000F7D382E5FEF7B4FB26480068B84232DDF9
:10540000A97D01292FD1296E09790B00FCF7A7FB93
:1054100005040C141C252A00697A491CC9B269725A
:1054200020291FD96C721DE0A97A491CC9B2A97242
:10543000202917D9AC7215E0E97A491CC9B2E97282
:1054400020290FD9EC720DE0697C491CC9B269743E
:10545000282907D91C21697404E0AE71696D29659A
:10546000E96A2966AC751049884240D9E87D01286F
:105470003DD1286E20210079002817D001281DD0A9
:10548000022823D0032831D128E000000000C842C0
:10549000C401002070050020240000209404002096
:1054A000A0040020640000209A9919BF687A00289F
:1054B00002D0401E687219E0697217E0A87A0028CD
:1054C00002D0401EA87211E0A9720FE0E87A00280D
:1054D00002D0401EE87209E0E97207E0687C401ED5
:1054E000C0B268741C2801D228206874EC754B4E39
:1054F0003068C82800D21BE6AA790F20484912015B
:1055000010430870286E00794870687A8870A87A0D
:10551000C870E87A08714C71287B8871687CC87102
:105520000C724C728C72CC7200200B5CCA7A401CDC
:10553000D218C0B2CA720B28F7D3DEE4FEF710FB14
:1055400038480168B94223DDA87D012820D1286EA2
:105550000079002806D0012808D002280AD00328A4
:1055600015D10FE0286A0A30286210E0686A0A3014
:1055700068620CE02878002802D00020287006E03D
:105580000120FBE7AE71E86DA865E86A2866AC7596
:105590002548814219D9E87D012816D1286E007965
:1055A000002804D0012806D002280DD107E0286A7F
:1055B0000A38286208E0686A0A38686204E02878D5
:1055C000002828D000202870EC75144E3068C828B8
:1055D00091D3AA790F201249120110430870286E46
:1055E00000794870288C020A8A70C870A88C020A58
:1055F0000A71487128788871CC710C724C728C7267
:10560000CC7200200B5CCA7A401CD218C0B2CA729D
:105610000B28F7D371E40120D5E700002400002017
:1056200094040020700500209A9919BF10B54168B4
:1056300000788007800DFF38FF3802380818FAF725
:105640007DFE0821C943FAF76DFE10BDF0B5064690
:105650009D4A9F48D3789D4900689E4FB4008FB003
:10566000002B02D0127A002A11D0002803D038591A
:10567000FAF7DDFD3851022E19DA9649183108592A
:10568000C207401CD20F0851002A07D00FE00028A3
:10569000EDD1914800680028E9D0ECE78D4831460B
:1056A0004830005901F0A4FA8A490C3108518B485E
:1056B0000025015987483C300059FAF7B1FE04D162
:1056C00087480059002800DD012584480121005940
:1056D000C90748407F493C310959FAF7A1FE06D174
:1056E0007F4801590120C007814200D90125022EBF
:1056F0000BDA78480C3001593C300059FAF78FFD2D
:10570000400078494008884228DC002D26D17148A5
:105710000221543000590090FAF704FE6D496031BF
:105720000959FAF72BFD6E490D592946FAF726FD5E
:105730006D49FAF77CFD6D490959FAF778FD6C4916
:105740000968FAF774FD3959FAF718FD61493851BB
:1057500060310098085108460C3805515F480C30FC
:1057600001595C482018FEF701FE604818300759BF
:105770005B4839460059FAF75AFD5C490C3909591A
:105780000091FAF754FD534D7F2101903C35C90536
:105790003846FAF744FD0099FAF749FD5549095989
:1057A0000391FAF744FD0199FAF7E8FC49490959D0
:1057B000FAF7E4FC28514D480C30005902900028BB
:1057C00001DC285972E04C480AA9027807A8002A8F
:1057D00006D0464A243A12590251444A183A05E082
:1057E0003C4A603A125902513A4A543A12590A5103
:1057F00000597F22D205009090420859019001463D
:1058000004AF104608DAFAF70AFD0D903B480199FB
:105810000059400040080BE0FAF701FD0D90009997
:105820000198FAF741FD014634480059400040080C
:10583000FAF7FDFC0D99FAF7A1FC38512548243000
:1058400001590398FAF7EBFC0299FAF7F0FC2749A3
:105850004439C9690D91FAF7EAFC0E901D483030C1
:1058600001591830025901921046FAF7D8FC0299F2
:10587000FAF7DDFC0099FAF7DAFC3959FAF7D7FCA8
:105880000D99FAF7D4FC0E99FAF7C9FC1149019A5F
:1058900030310A510F4A0399243211513146FEF733
:1058A000CFFD01462859FAF769FC28510F494439C0
:1058B000C968FAF7BCFC2851084801596019FEF77D
:1058C00055FD28590FB0F0BDA004002048E17A3FF3
:1058D00000000020B806002074000020947000082A
:1058E00018040020CDCCCC3D7EAA2A3EB801002071
:1058F00060000020AC050020C80200202404002025
:10590000F8B5144801681448FAF7CEFC134CE0616E
:105910001348016813480068FAF7C6FC7F25124E49
:10592000ED053346114A12490095FFF7E7F8E060AC
:10593000B04201DDE66002E0A84200DAE5600D4811
:10594000C078002804D00C49E068FAF770FCE060E9
:10595000F8BD00006000002017B7513B7401002023
:10596000400000202C000020713DAA3F6666764072
:1059700000002040A00400206666663FFEB50225B8
:1059800069460D710320487100248C71CC7101218E
:105990000846FBF76DFC334F6E0739463046FEF77D
:1059A00072FC01210220FBF763FC39462E4F38467A
:1059B000FEF769FC2D48602101800121418084812E
:1059C00009020182846080200924E406009069466F
:1059D0002046FBF75AF9012207212046FBF78DF9F3
:1059E00022493846FBF7D4FDA803009069462046BB
:1059F000FBF74BF902220F212046FBF77EF91B49EA
:105A00003046FBF781FD1A4C694620460095FBF7AE
:105A10003CF9012211462046FBF76FF9134938463D
:105A2000FBF708FE0820009069462046FBF72DF999
:105A3000022203212046FBF760F90C493046FBF7B0
:105A4000A7FD01213046FBF740FD01213046FBF761
:105A500046FD01213846FBF738FD01213846FBF7AA
:105A60003EFDFEBDCF07000000040040C00800203E
:105A70000004004810B50A46044613491046FAF7D8
:105A8000D6FBFAF76DFC002801DA002003E00F498D
:105A9000884200DD0846002C0AD0012C0CD00121E0
:105AA0008907022C0CD0032C01D180B2886310BD71
:105AB000074980B2086010BD054980B24039F5E75A
:105AC00080B2486310BD000000E0F944CF07000039
:105AD00040040040F8B506467F20C0050C468142D0
