:020000040800F2
:10000000B00F0020D9000008FF000008450D0008CF
:1000100000000000000000000000000000000000E0
:1000200000000000000000000000000003010008C4
:100030000000000000000000050100086514000831
:100040000901000809010008090100080901000868
:100050000901000809010008090100080901000858
:100060000901000809010008F10900084D0A00080B
:100070000901000809010008090100080901000838
:10008000090100080000000000000000090100084C
:10009000000000000901000809010008090100082A
:1000A000000000000901000809010008090100081A
:1000B0006918000800000000090100080901000893
:1000C0000448854600F0B2FB00F052F800480047B3
:1000D00069430008B00F00200C4880F308880C48E2
:1000E0000168090E0B4A914205D10B480B4901608A
:1000F0000B480C4901600C4880470C480047FEE75C
:10010000FEE7FEE7FEE7FEE7FEE70000B00F002097
:10011000040000001F000000181002400100000051
:10012000000001400000000069140008C100000840
:1001300030B50B46014600202022012409E00D467F
:10014000D5409D4205D31D469540491B2546954007
:1001500040191546521E002DF1DC30BD0321001D53
:10016000401E037812021A43491EF9D51046704703
:1001700070B5054C054D03E0206800198047241D2B
:10018000AC42F9D170BD00000C6B0008106B000888
:10019000F8B502464A40D40F42004B0052085B08B3
:1001A0009A4202D20246084611464A0023D0C30DA5
:1001B0004A00DDB2120EAD1A202D35DA49020126B1
:1001C000490AF6058A19002C00D0524220214F1B03
:1001D0001146B9402A411018C20D9A4221D0002C74
:1001E00017D0012D08DCDA05801AD20F8019D2074A
:1001F000DBB200F04CF9F8BDDA05801A01234000AB
:100200001B06C01880185A428018CA0F10434900B4
:1002100007E04908C2071143DA05801A801940082F
:10022000801800F02CF9F8BD61000122511A001B62
:10023000F7E70122D2075140AAE70122D207504036
:10024000A6E7024670B54A40D30FDB0740002DD029
:100250004A002AD0010E140E000212020919400AA7
:10026000520A8418E50104465443000A120A2E0477
:100270005043A4194219200CC543AA18120C012599
:10028000AD03521C521912047F39240400D0521CB1
:10029000104301D44000491EC2B20C06C009201808
:1002A000401C4008802A02D003E0002070BD4008B6
:1002B0004000002900DA0020184370BD70B50246E6
:1002C0004A40D50F40004A00ED0740085208002878
:1002D00014D0002A12D0C40DD30D41020120C00554
:1002E0005202490A520AE41A091812187D3491423E
:1002F00001D3641C00E04900002C01DA002070BD2D
:100300000023914201D3891A034340084900002881
:10031000F7D100290AD0914202D10121C90705E095
:10032000914201D2012101E00121C943E005C01839
:10033000401900F0A4F870BD420005D04200120E32
:1003400052428A4201DB00207047C90508187047F5
:10035000C217C10F504010B54018CA07962300219C
:1003600000F095F810BD10B500229623114600F05C
:100370008EF810BDC20F410040020123400ADB0588
:10038000D207090EC0187F2901DA0020704796298C
:1003900003DC9623591AC84001E096398840002AA8
:1003A000F4D040427047410040020122400AD20589
:1003B000090E80187F2901DA00207047962903DC96
:1003C0009622511AC84070479639884070470000FD
:1003D0004A0009030123090B1B051943094B10B5FA
:1003E000520D9A4201DA002010BD064B34339A4276
:1003F00003DC9A1A00F032F810BD03495118884006
:1004000010BD0000FF030000CDFBFFFFC20FD207AD
:10041000400040080BD0C10D0723DB01C918400282
:100420000905400A1143C2084007114370470020E4
:10043000014670470122D207002800DB101A00296C
:1004400000DB511A814270470122D207002800DBED
:10045000101A002900DB511A8842704710B5202A73
:1004600004DB0846203AD040002110BD0B46D340A3
:10047000D0402024A21A91400843194610BD0029FB
:1004800004DA401C490001D140084000704770B4B4
:100490000024050C05D11024000402D1002921D02C
:1004A0001124050E01D100020834050F01D100010D
:1004B000241D850F01D18000A41C002801DB400011
:1004C000641C002908D020252E1B0D46F540A140B4
:1004D00000D001212943084301061B1B000ADB1D34
:1004E00002D5002070BC7047DB0518188018002961
:1004F000F8DA401C4900F5D170BC40084000704754
:1005000010B541000DD04100090E962909DC7E2965
:100510000ADC07DB410205D0C00F7F21C007C905F7
:10052000401810BD002010BD9622541A20210A1B2D
:1005300001469140E040FFF7A2FFA04010BD10B57A
:10054000002B08DA0024401C614192185B411A43D9
:1005500001D14008400010BDF0B51FB482B005467F
:100560000C0003D0084601F046FA02E001F043FA1D
:100570002030024600902146284600F069F9049B8D
:10058000059A04460F4618431143084314D01846F1
:1005900010431BD0009840210A1A18460599FFF70E
:1005A0005DFF05460E46009A0599049800F050F943
:1005B000084305D0012004E02046394607B0F0BDCD
:1005C0000020C11705430E432C43374300990E9872
:1005D0006305401A7905E40A00220C43FD0A0A303B
:1005E00002D500200146E9E70105101969410C9C7C
:1005F0000D9D00196941FFF7A2FFDFE7F0B507463F
:100600000846584087B0C00F049048000E46590075
:1006100040084908BC1A884105D2384631461E4672
:1006200017460B4602465800400810434CD0300D88
:10063000039040055900400D490D0590401A029065
:10064000402872DA18030121000B090508430190C4
:1006500004980092002805D0019952420020884158
:1006600000920190029840210A1A0199009800F026
:10067000EFF805460C466B4607CB00F0F9F8C019B9
:100680007141039A0E0D0023D71756401A467A403F
:10069000164344D0049A002A2DD0029A012A039AC4
:1006A00015DC1205C01A914101263605001C714166
:1006B000D20F059ED2070093019202962A46234646
:1006C000FFF74AFF07B0F0BD38463146FAE7160596
:1006D000224A0F46B218C01AB74101210905001C71
:1006E0004F4100187F41114618187941E20F10431D
:1006F0006D19644113E0E2076D0815436408C207F1
:100700001443039A01261205C01A91413605001CB4
:100710007141CE07400830434908C01851412A466C
:100720002346FFF70CFFCDE7FFE7049801224000C6
:10073000C117121A00238B4104983146C417381A86
:10074000A141EEE730B40124E407634030BC55E733
:1007500030B40124E407614030BC4FE70000E0FF03
:10076000F8B50546480040080C46284304D0600010
:10077000184A400D904201DD2846F8BD154935392B
:10078000884210DC88420BDB290D20030843290333
:10079000014305D0E00F1049C00741180020F8BD03
:1007A00000200146F8BD161A4020821B284621462B
:1007B00000F04EF807460091284621463246FFF7E2
:1007C0004DFE3A46009BFFF7BAFE324600F040F875
:1007D000F8BD0000330400000000F03F10B5002910
:1007E00004DB0124E40740428C412146002B04DB5A
:1007F0001C460123DB075242A3418B4200D18242B7
:1008000010BD000010B5002904DB0124E4074042BC
:100810008C412146002B04DB1C460123DB0752429E
:10082000A341994200D1904210BD0000064C012521
:10083000064E05E0E36807CC2B430C3C9847103488
:10084000B442F7D3FFF740FCEC6A00080C6B0008D9
:1008500010B5202A04DB0146203A9140002010BD4B
:10086000914020239C1A0346E3401943904010BD59
:1008700010B5202A06DBCB170846203A1041C117D5
:100880000B4306E00B461341D0402024A21A9140AE
:100890000843194610BD70B58C180578401C6B07CD
:1008A0005B0F01D10378401C2A1106D10278401C4D
:1008B00003E006780E70401C491C5B1EF9D12B0723
:1008C00005D40023521E0DD40B70491CFAE703789F
:1008D000401CCB1A921C03E01D780D70491C5B1C58
:1008E000521EF9D5A142D8D3002070BD836A0B43B4
:1008F0008362426170470029816801D0012200E0D3
:1009000002221143816070470029C16802D0012290
:10091000114301E049084900C1607047C2680223E1
:100920009A43C260C2680A43C2607047826800216D
:100930000123DB071A4382600F231B038268491CD3
:10094000D20FD207994201D0002AF7D1816800293D
:1009500001DB006C704700207047000030B5C268B2
:10096000084B8C681A400B680D792343CC686D03E3
:100970002C4323430C69496923430B431343C3604E
:1009800030BD000003D2FFFF816804221143816063
:1009900070470021016001718160C16001614161A6
:1009A000704700000122054992050028886801D09F
:1009B000104300E09043886070470000002701402A
:1009C00070B5054600200346D5240DE0EA5C504092
:1009D0000022060602D54000604000E04000521CA4
:1009E000C0B2082AF5DB5B1C8B42EFDB70BD000058
:1009F00010B50021124800F041F8114800213C38A0
:100A000000F03CF80E480021283800F037F80D4C73
:100A1000072100220902204600F075FD601500F054
:100A200027F80021204600F058FD074C6068022896
:100A300003D10120606005F033F80020606010BD34
:100A400058000240002C01406403002010B501242E
:100A50006403204600F064F8012802D1204600F02B
:100A600001F810BD014948607047000000000240D5
:100A700001494860704700000000024000290168F9
:100A800002D00122114301E0014A11400160704788
:100A9000FEFF00000168204A114001600021016052
:100AA00041608160C1601D491C4A0839904202D1F1
:100AB00048680F2205E0194A1432904204D1486870
:100AC000F022104348607047144A2832904203D104
:100AD00048680F221202F4E7104A3C32904203D1D8
:100AE00048680F221203ECE70C4A5032904203D1BF
:100AF00048680F221204E4E7084A6432904203D1A6
:100B000048680F221205DCE7044A78329042DAD1B5
:100B100048680F221206D4E7FEFF000008000240DA
:100B2000034A0146126800200A4200D001207047A3
:100B300000000240002A026801D00A4300E08A4314
:100B40000260704730B503680C4A0C6A13408A682B
:100B50004D6922430C692C4322438C692243CC69A2
:100B600022434C6A22438C6A22431A430260CA68B9
:100B700042600A6882604968C16030BD0F80FFFF33
:100B8000416070470021016041608160C160016186
:100B900041618161C161016241628162704700000F
:100BA000F0B50B2706463F04384600F067F80428E6
:100BB0000FD1084C20690225284320616661206915
:100BC000402108432061384600F058F82169A943C4
:100BD0002161F0BD0020024008490420CA68D20704
:100BE00001D001207047CA68D20601D502207047A3
:100BF000C9684907FBD50320704700000020024068
:100C000002480169802211430161704700200240BF
:100C1000F8B5064600200B273F0400900D463846E5
:100C200000F02CF8042815D10B4C20690121084351
:100C300020613580384600F021F8042806D1B61C22
:100C4000290C00963180384600F018F821694908CF
:100C500049002161F8BD00000020024004480169FC
:100C6000090603D50349416003494160704700000C
:100C70000020024023016745AB89EFCD00B5034654
:100C8000FFF7AAFF02E0FFF7A7FF5B1E012803D0D2
:100C9000002B00D1052000BD002BF4D1FAE7F0B500
:100CA0000022032501230C6893401C409C422AD15A
:100CB0000C79012C01D0022C12D1876854002E46E9
:100CC000A640B74387604E79A64084682643866075
:100CD00084889C43848084888B7993401C438480DF
:100CE000066853002C469C40A64306600E790768B0
:100CF0009E403E430660C668A643C660CC799C40D1
:100D0000C3681C43C460521C102ACBD3F0BD4B07F0
:100D1000DB0E9A40C90810B589000818016A0F2433
:100D20009C40A1430162016A1143016210BD024669
:100D3000128A00200A4200D00120704701857047C6
:100D400081617047052002F09FF90029016802D0F7
:100D50000122114301E04908490001607047012266
:100D600092030029416801D0114300E091434160A2
:100D700070470246926900200A4200D00120704765
:100D800010B502685208520002600268134B8C686A
:100D90001A4024024B681443234303600F230A685C
:100DA0001B069A430261026801231A430260002273
:100DB0008260C2600B698A691A438260826801237B
:100DC000DB031A438260CA68036813430360426806
:100DD000034B49691A401143416010BDFFE0CF0049
:100DE000FF7FFF07406AC0B2704781627047000012
:100DF00070B5049D44688905890D1204034E1143A2
:100E00001943344029432143416070BD009800FCE0
:100E100070B5074C074D2146284600F0CDF8214615
:100E2000284600F021F92146284600F075F970BDEA
:100E30000000F04100004843F8B51E4C064620680B
:100E4000002801DC3046F8BDA168E069FFF7F9F938
:100E500005466168A069FFF7F4F93146FFF7EDF93F
:100E60002946FFF7E6F905464000FF214008C9057D
:100E7000081AC00F04D1284600F00BFE002800D04D
:100E800035466169E069FFF7DCF90090A0692169E6
:100E90000746FFF7D6F906462846E168FFF7D1F97D
:100EA0003146FFF775F90099FFF772F9E761A5611F
:100EB000F8BD0000DC020020F8B51E4C0646206A92
:100EC000002801DC3046F8BDA16AE06BFFF7B9F9F4
:100ED0000546616AA06BFFF7B4F93146FFF7ADF93B
:100EE0002946FFF7A6F905464000FF214008C9053D
:100EF000081AC00F04D1284600F0CBFD002800D00E
:100F00003546616BE06BFFF79CF90090A06B216B9D
:100F10000746FFF796F906462846E16AFFF791F97A
:100F20003146FFF735F90099FFF732F9E763A5631A
:100F3000F8BD0000DC020020F8B51E4C0646206C0F
:100F4000002801DC3046F8BDA16CE06DFFF779F9AF
:100F50000546616CA06DFFF774F93146FFF76DF936
:100F60002946FFF766F905464000FF214008C905FC
:100F7000081AC00F04D1284600F08BFD002800D0CD
:100F80003546616DE06DFFF75CF90090A06D216D55
:100F90000746FFF756F906462846E16CFFF751F978
:100FA0003146FFF7F5F80099FFF7F2F8E765A56518
:100FB000F8BD0000DC020020FEB50D46FFF77EF90B
:100FC00001462648FFF77AF905F0DCFB0146009060
:100FD000FFF737F904460190214801F079FE01211D
:100FE000FFF7AAF90099FFF72CF97F27FF0539468B
:100FF000FFF7CEF82146FFF7CBF81A4C06462560DE
:10100000002D29DD31460198FFF758F905460121E9
:10101000E060FFF791F96561206139460198FFF7BB
:1010200008F90121FFF788F93146FFF747F96060B9
:101030000B48019D01F04CFE0121FFF77DF900995D
:10104000FFF7FFF83946FFF7F8F82946FFF7A0F851
:101050003146FFF733F9A060FEBD0000DA0F4940CA
:10106000DA0F493FDC020020FEB50D46FFF726F9F6
:1010700001462648FFF722F905F084FB014600905F
:10108000FFF7DFF804460190214801F021FE01211D
:10109000FFF752F90099FFF7D4F87F27FF0539468B
:1010A000FFF776F82146FFF773F81A4C06462562DB
:1010B000002D29DD31460198FFF700F90546012191
:1010C000E062FFF739F96563206339460198FFF75D
:1010D000B0F80121FFF730F93146FFF7EFF8606211
:1010E0000B48019D01F0F4FD0121FFF725F900995E
:1010F000FFF7A7F83946FFF7A0F82946FFF748F8A9
:101100003146FFF7DBF8A062FEBD0000DA0F494070
:10111000DA0F493FDC020020FEB50D46FFF7CEF89E
:1011200001462648FFF7CAF805F02CFB014600905F
:10113000FFF787F804460190214801F0C9FD01211D
:10114000FFF7FAF80099FFF77CF87F27FF0539468B
:10115000FFF71EF82146FFF71BF81A4C06462564D8
:10116000002D29DD31460198FFF7A8F80546012139
:10117000E064FFF7E1F86565206539460198FFF7FF
:1011800058F80121FFF7D8F83146FFF797F8606467
:101190000B48019D01F09CFD0121FFF7CDF800995E
:1011A000FFF74FF83946FFF748F82946FEF7F0FFFA
:1011B0003146FFF783F8A064FEBD0000DA0F494016
:1011C000DA0F493FDC02002030B582780124017833
:1011D000002A15D08B080E4A9B009A1813688907BD
:1011E000C90EFF258D40AB434578AD072D0E8D40D0
:1011F0001D4315600078C006C00E8440054804E019
:10120000C806C00E844003488030046030BD000032
:1012100000E400E000E100E070B5FF250021044695
:10122000AD05C943FFF788F806460F4960100C1A50
:1012300021463046FFF705F82146FFF702F8294618
:10124000FEF7FBFF2146FEF7FCFF04460146304651
:10125000FEF7F7FF2146FEF7F4FF2946FEF7EDFF04
:101260002146FEF7EEFF70BDDF59375F044A0029C3
:10127000516901D0014300E0814351617047000092
:1012800000100240044A0029D16901D0014300E066
:101290008143D1617047000000100240044A0029D8
:1012A000916901D0014300E08143916170470000E2
:1012B00000100240F8B5464E0446716800200C222A
:1012C000444D114005D0042903D0082903D00C292E
:1012D00018D0256018E07168706803228902D20373
:1012E0000F0F1040BF1C002809D0F06A0107090F3A
:1012F0002846491CFEF71CFF7843206004E036486E
:101300007843FAE7354921607168354F0906090FBE
:101310007B5C21680A46DA40626073685B055B0F9C
:10132000FB5CDA40A260336BDB0501D42D4B05E09A
:1013300073685B0401D4530800E09308E360336BE7
:101340005F06294B03D4284F1237276100E0236141
:10135000376BFF0601D4656100E06161376BBF0741
:101360000ED0376BBF07BF0F012F0BD0376BBF07F6
:10137000BF0F022F08D0376BFF43BF0706D006E030
:10138000A26104E0A16102E0A36100E0A561376B06
:10139000BF03BF0F0FD0326B9203920F012A0CD004
:1013A000316B8903890F022909D0316B8903890FB9
:1013B000032906D006E0E26104E0E16102E0E361B6
:1013C00000E0E561316B090600D404482062F8BDF5
:1013D0000010024000127A0000093D00006CDC029F
:1013E0006C030020809FD5000080000004490A6B38
:1013F00010239A430A630A6B02430A637047000092
:10140000001002400CB500200090019013491120FB
:1014100008601348416841604168416041687B222F
:10142000D2039143416041680522D20411434160D7
:101430000168012212061143016001688901FCD58F
:101440004168890889004160416802221143416076
:1014500041680907890F0229FAD10CBD002002401A
:10146000001002407047000010B5144801680122C6
:10147000114301604168124A114041600168114AFC
:1014800011400160016801229204914301604168AA
:101490003F22120491434160C16A09090901C162F6
:1014A000016BFF22543291430163416B49084900AB
:1014B000416300218160FFF7A5FF10BD00100240CD
:1014C0000CB8FF08FFFFF6FE80220029018801D03A
:1014D000114300E09143018070470029018802D048
:1014E0000122114301E04908490001807047403062
:1014F0000029818803D00122D203114301E049046D
:10150000490C81807047002A828901D00A4300E09B
:101510008A4382817047000070B5028C52085200E5
:101520000284048C8288038B7025AB439B080D8852
:101530009B001D4302239C438E894B882643104CFD
:101540003343A04208D00F4CA04205D00E4CA0421D
:1015500002D00E4CA0420DD10824A343CC891C43D9
:1015600004239C438B882343094C22400C8A144358
:101570004A8A22438280058389684163038470BD5F
:10158000002C01400040014000440140004801405F
:10159000FFFC0000028B08239A430A430283704732
:1015A00070B5028C10239A430284048C8288038BCA
:1015B0001A4D2B400D782D062D0C1D4320239C43E6
:1015C0008B891B051E0C4B8826431B051B0C144CDA
:1015D0003343A04202D0134EB04219D1124E3240D2
:1015E0000E8AB604360C3243A04211D18024A343A4
:1015F000CC892405240C1C4340239C438B881B0569
:101600001B0C2343094C22404C8AA404240C224383
:101610008280058389688163038470BDFF8C00002C
:10162000002C014000400140FFFB0000FFF70000DC
:10163000028B034B09021A401143018370470000DB
:10164000FFF7000030B5028C124B1A400284058C63
:101650008288838B104C23400C782406240C1C4376
:101660000E4B1D400B7B1B071B0C2B438D782D074E
:101670002D0C1D430A4B984205D10A4B13400A8A90
:101680009205120C1A438280848389680164058460
:1016900030BD0000FFEF0000FF8C0000FFDF000006
:1016A000002C0140FFBF00000021018041808180AB
:1016B00081608181C18101824182704741627047AE
:1016C00010B50288144B984206D00124A407A0420A
:1016D00002D0124CA04203D17024A2434C88224372
:1016E0000F4CA04203D00F4C22400C8922430280B1
:1016F0004A68C2620A880285984208D00A4A904223
:1017000005D00A4A904202D0094A904201D1897A12
:1017100001860121818210BD002C0140000400409F
:1017200000100040FFFC0000004001400044014068
:10173000004801400021C94341600021018001812E
:10174000418081727047000010B5074C002120468F
:10175000FFF794F90C212046FFF712FA01212046E9
:10176000FFF78CF910BD000044000240F0B50121E4
:1017700006464C0495B02046FFF784FD0121204623
:10178000FFF774FD0221684601720024847201256E
:10179000C5720321417204200927FF06019001A9A7
:1017A0003846FFF77CFA012202213846FFF7AFFAEC
:1017B0000E960C260F941094119413940EA927489A
:1017C000129600F0B7F80121244800F0A9F8012191
:1017D000224800F070F84021204800F065F81C21F4
:1017E0006846017044708570FFF7EEFC01210846E1
:1017F000FFF73CFD1A4F3846FFF74CF9174807949E
:1018000028300390174804901020059080200890FD
:10181000400106960C9009940A940B9403A90D9428
:101820003846FFF78FF9012202213846FFF782F987
:1018300001228021094800F048F86803FFF712F9F7
:1018400000213846FFF71AF90B21684601704470F1
:101850008570FFF7B9FC15B0F0BD000000440040F2
:10186000440002404404002070B50D4D0D4C294643
:10187000204600F039F8002803D02946204600F021
:1018800015F80821204600F028F8012806D1082183
:10189000204600F009F8204600F09AF870BD0000DC
:1018A000050105000044004001627047090C012257
:1018B0008A40026270470029016802D00122114368
:1018C00001E04908490001607047002A826801D0A0
:1018D0000A4300E08A43826070470246D2690020D2
:1018E0000A4200D00120704730B50A04130E0125CA
:1018F0002A4600248A40012B0ED0022B0ED083688A
:10190000090C1340C0698D402840002B02D00028EC
:1019100000D00124204630BD0368F1E74368EFE7BB
:1019200008220029816801D0114300E091438160C1
:101930007047000030B50446006889B00D46400885
:10194000400020606068032109038843A9680143BF
:10195000616020681A49EA680840696811432A6989
:10196000024311432160A068032109028843696989
:101970000143A1606846FFF79DFC1248844201D1F3
:10198000069805E01048844201D1079800E00298CB
:1019900021680904296800D54000FEF7C9FB2A68C0
:1019A00052088A4200D8401C2168090404D5010766
:1019B000064A490F10400843A08109B030BD00001D
:1019C000F3E9FFFF0038014000440040F0FF000051
:1019D000808CC005C00D70470146034888600348ED
:1019E000C8600846704700000AD7A33C5073A43D66
:1019F0000021016070472021020C01D01021104607
:101A0000020A01D010460839020901D01046091F08
:101A1000820801D01046891E420801D0881E7047F6
:101A2000081A7047F0B4040C8BB2264682B25E43AB
:101A30000D0C1046370C58433604801900217941AB
:101A400016466E43370C36048019794126466E439C
:101A50008919F0BC704730B47446641E2578641C44
:101A6000AB4200D21D46635D5B00E31830BC1847F3
:101A70004100080200D004200A0E01D001221043C8
:101A8000090EFF2901D102210843012800D10520B8
:101A90007047FF2140000906884201D101207047AC
:101AA00000207047FFB581B01C4617460E0007D0D6
:101AB000019D02E02846B047ED192046641EF9D288
:101AC000019805B0F0BD10B50121FEF735FC10BD41
:101AD00010B500210846FEF7F1FB10BD5E2110B5E0
:101AE000C9430807FEF728FC10BD0000F0B50E46FC
:101AF00014465100FF22120687B0914203D31116FB
:101B0000316007B0F0BD01202502C0070543E00D9C
:101B10007838C206D20E2020871A6000000E78386E
:101B2000401181004D4878440B189C464358002AC8
:101B300014D06046406893400146F8400343604635
:101B4000806891408646F8400143039160467146A3
:101B5000C0689140F84001430F4603E06046416889
:101B60000391876818462946FFF75CFF02910490AD
:101B700029460398FFF756FF0391069038462946F9
:101B8000FFF750FF0F460698029B3D18049A0399F1
:101B9000BD4201D2012700E000278818C019002F9C
:101BA00002D0884202D903E0884201D2012100E03C
:101BB000002159180A4620329709C20C890652039F
:101BC00040033760114301900846FEF7C1FB0290C5
:101BD0000198FEF7C8FB1221C943FEF7ADFB019047
:101BE0002846FEF7C0FB2521C943FEF7A5FB009060
:101BF00001990298FEF7CCFA0099FEF7C9FA012183
:101C0000C9024018050B2D0328460299FEF711FB67
:101C10000199FEF70EFB0099FEF70FFB1049FEF746
:101C200010FB00900F492846FEF70BFB0099FEF7CA
:101C3000AFFA00900C492846FEF703FB0099FEF727
:101C4000A7FA002C00DB5CE701210907C91B316002
:101C50000121C907484007B0F0BD0000A24F0000B5
:101C6000DB0FC92F22AAFD290000C92F02E008C8F6
:101C7000121F08C1002AFAD170477047002001E006
:101C800001C1121F002AFBD1704700000149086002
:101C9000704700008403002010B503231022074979
:101CA0000748FFF7FFFE07480021016004480323AF
:101CB000082205493030FFF7F5FE10BDD91900089C
:101CC000FC050020B4010020F1190008F8B5154EFC
:101CD0007F20C005374600251837B06000F028F88F
:101CE0000024A000395880190F4A02F0ACFA641C95
:101CF000032CF6DB01F088FEFF20F5306D1C8542D9
:101D0000ECDB7F21C905B068FEF793FA074D00248C
:101D1000B060A0008019294602F06EFA641C032C02
:101D2000F7DBF8BD8C0500201F856B3F0000FA43F0
:101D3000F0B587B006236A463B21682002F056F8CA
:101D4000009801990002401800B24042FEF700FBE3
:101D50000546029803990002401800B2114E404215
:101D6000FEF7F6FA0446049805990002401800B2FE
:101D7000FEF7EEFA01460120C007414045404440CD
:101D8000B16030C60B270024FF43083EA500705900
:101D90003946FEF7D1FA641C7051032CF6DB07B00C
:101DA000F0BD0000A405002070B594B0402006905E
:101DB0000320694608770024CC77092006A9C006CD
:101DC000FEF76DFF01214802FFF768FA012108467E
:101DD000FFF74CFA294808902948099002200B90F7
:101DE00080200D9040000E900A9480000F902020DB
:101DF00010900C940002234D119008A912942846CB
:101E0000FEF7A0FE1D4E0221403E3046FEF786FD45
:101E100001213046FEF778FD6846FEF7BAFD012045
:101E20006946009408710420059002940494304699
:101E3000FEF794FD0121072249043046FEF756FDC6
:101E4000072240213046FEF751FD0120FEF7AAFD92
:101E50003046FEF76BFD01213046FEF74CFD304663
:101E6000FEF792FD01212846FEF708FE064800888D
:101E7000FEF779FA0249486014B070BD4024014071
:101E80003C03002008000240BAF7FF1F10B50B49C1
:101E9000002803D0012808D0002010BD0888FEF7D4
:101EA00062FA0749FEF7CDF910BD4888FEF75BFAE4
:101EB000014602484068FEF701FA10BD3C030020CD
:101EC0003333113CF0B58400304887B005597F2189
:101ED00068004008C9050290FEF7AFF9064629469A
:101EE000FEF7AFF92949303909680191FEF7A9F9E0
:101EF000059029460298FEF7A4F92449203909687B
:101F00000091FEF79EF907462048083001592846FF
:101F1000FEF78FF91D49049028390968FEF791F9F9
:101F20003146FEF78EF91A4909680391FEF789F9DF
:101F30000599FEF72DF9154906461039085108395B
:101F400004980968FEF77DF90299FEF77AF903997A
:101F5000FEF777F93946FEF71BF90C4908390851A5
:101F600001463046FEF714F9084E1036305130461F
:101F70000838055100990198FEF70AF90146A019A1
:101F800002F03AF9305907B0F0BD0000EC01002032
:101F900020020020F8B505460C46480000D1294C27
:101FA00001210026C9078D4203D94C404D408126AE
:101FB000F605002C09DC204648402C460546012148
:101FC00089073046FEF7E4F8064621462846FEF724
:101FD0003BFA10D821462846FEF72BF90746214642
:101FE0002846FEF7D5F804467F213D46C905304610
:101FF000FEF7CEF8064621462846FEF75FF904466E
:102000001149FEF71EF91149FEF7C2F82146FEF705
:1020100018F90F49FEF7BCF82146FEF712F90446FD
:102020000C493046FEF70DF92146FEF7B1F80A4992
:10203000884202DD0949FEF7FCF80949FEF701F97B
:10204000F8BD0000567C0A2A4BC887BD7EAE36BE5E
:1020500042DA833FDB0F493FDB0F4940DB0FC940CA
:10206000E12E654270B5184C206C002804D0002584
:10207000012809D0256470BD0120E06204F01AF83F
:10208000206C401C206470BD172004F0AEFCC0061C
:1020900008D58F21002004F0CDFC2564E56202F014
:1020A000DBFC70BD01F0B0FC216D401A074988428D
:1020B000F7D9E12004F078FC8F21002004F0BAFC6D
:1020C0002564E56270BD0000B0000020102700000C
:1020D00070B5002506462C46A00030580146FEF794
:1020E000B0F82946FEF754F8641CE4B20546032C08
:1020F000F2D3FFF791F801467F20C005FEF7DEF826
:1021000070BD0000F8B51D4D0C216E6807463246C3
:102110004A431B49184853182A6894001959002F3C
:1021200002D0491C195102E0491E16481951002ECF
:1021300006D1002A01D0012A02D10F49FEF781F809
:102140000021C943FEF7F8F8AE683159FEF720F8D0
:10215000002800DD30512968002902D1002800DD67
:10216000706068680C225043054A89008018405806
:10217000002800DA4042F8BDCDCCCC3D040200205E
:1021800080060020CDCCCCBD30B5002207239C1AA0
:102190006418203C855CE47FA54201D0002030BD5E
:1021A000521C072AF3DB012030BD0000FEB50720DA
:1021B00004F01BFC0007400F0026072801D0022076
:1021C00000E030460124714D002870D028690028B5
:1021D0001DD001F019FC07460F216D4804F0EFFBFC
:1021E00000F058FE00285AD0A86C401CA86468680B
:1021F000002801D0FFF736FF6E63AE6368696F6534
:10220000AF652E632866E86A002846D047E00F21B4
:102210005F4804F0D4FB5E4B1868A42801D0A328C3
:1022200045D1A32802D15B486C60A8625748197E4B
:1022300044300170197F4170198C8170998CC17084
:102240005549524F8868C968009001200191643750
:102250008100595C6A4611543A18203A401CD177E3
:102260000628F5DB0621684604F07DFB3020694630
:1022700008700621684604F076FB444869694430DA
:10228000415C252004F0D6FB2C61AC6001F0D6F84F
:1022900001F0BAFB4149086009E002F0DDFBE869A2
:1022A000401CE861092802DD0A20AC61E861E86AA7
:1022B000002801D0FFF7D6FE01F0A6FB696D0746A6
:1022C000411AA86A82007D20C000101881420BD9F3
:1022D0002869002808D06F65A86B002801D1286EF6
:1022E000686102F0B9FBAC63E96AA86B084319D1D5
:1022F000686B0090052815D22869002812D0686DF7
:102300007D21381AC90088420CD9A96AFDF710FF4F
:1023100001460098401C814204D302F09DFB686B8B
:10232000401C6863A86D391A1D48814206D91D48B2
:102330002C63066046608660C66002E0286B002859
:1023400003D0686A002802D011E06C620FE0286AAE
:102350001549381A88420AD90C482E610621753071
:102360006C6204F000FB0021052004F063FB01F027
:102370004BFBE96D411A0A48814205D9A86CAE644D
:10238000E86401F041FBE865FEBD0000B0000020FC
:102390005005002088130000A46A0008680000208F
:1023A00040420F0020050020C0E1E40000B503F02A
:1023B000DBFE00BDF0B57F208BB0C0050490FE4869
:1023C000807B002802D13F20000604900024FB4FB0
:1023D0002646FB48A5004059FA4942005208785168
:1023E0008A4201DC7E510FE00122D207904204D8DC
:1023F0007F22D2050023009203E0F34A0023F34931
:10240000009202F0C1FA7851641C032CE1DB03F066
:10241000E3F9EF480068FDF7A6FFE84C05462168A0
:102420000498FDF70EFF2946FDF70BFFE94F3946EB
:10243000FDF707FF019061680498FDF702FF294648
:10244000FDF7FFFE3946FDF7FCFE0290E24800680A
:10245000FDF789FF0546A1680498FDF7F2FE2946BD
:10246000FDF7EFFE3946FDF7ECFE0390DB480C3C30
:102470000278DB49002AD04ADA4FDB4DDB48D278BC
:1024800045D0002A02D00968002912D001990160C4
:1024900002994160039900278160D348BD004159EA
:1024A000D2484059FDF7C5FE7F1C6051032FF4DB75
:1024B00044E00021C14804F0C3F803997868FDF7AF
:1024C000C0FE049001213868C90748400399FDF710
:1024D000B8FE05900399B868FDF7B3FE0027069093
:1024E000C348BD004159C34841513846FFF7EAFC93
:1024F00004A94959FDF74CFEBB494959FDF799FE1E
:102500007F1C6051012FEBDDB7488168D7E0002ABE
:1025100002D00968002930D0019901600299416018
:10252000039900278160B048BD004159AF48405928
:10253000FDF77FFE7F1C6051032FF4DB03F08AFC64
:10254000002002F0EFFF012002F0ECFF022002F079
:10255000E9FF994BA84C1A78A848A9490127002AF5
:102560007ED0974AD568A74A954202DD0A68002ABC
:1025700077D02268012AFBD07FE100218F4804F048
:102580005FF8984F03997868FDF75BFE049001218E
:102590003868C90748400399FDF753FE0590B868AD
:1025A00003990746FDF74DFE069097480990974816
:1025B00008909748009080489649027AC079002A8E
:1025C0007ED0002814D003C94700490049087F087D
:1025D00038460791FDF738FF00D9079F089938461C
:1025E000FDF728FF16D838460899FDF767FE13E077
:1025F0000120C007874237D87D4801687D480160C7
:102600000020FFF75FFC0499FDF7C2FD2968FDF784
:1026100010FE4DE07F20C0050890684800990068D2
:1026200047007F083846FDF705FF05D83846009972
:10263000FDF744FE074601E07F27FF05089909984A
:10264000FDF7FFFD009074483946FDF7FAFD00994B
:10265000FDF79EFD0746634881680120C00701E041
:1026600000E106E1814202D929680198CFE760487C
:1026700001686048016029680198FDF7DAFD394674
:10268000FDF7DFFD00907F203946C005FDF7D1FD45
:1026900007460020FFF716FC0499FDF779FD29682D
:1026A000FDF7C7FD3946FDF7CCFD0099FDF770FD3C
:1026B000206069680298FDF7BCFD6060A96800E0D1
:1026C00004E00698FDF7B5FDA06037E7002871D05B
:1026D0007F200027C0050999FDF7ABFD0A904D4901
:1026E00003C940004C006408400805462146FDF738
:1026F000ABFE00D82C4620460899FDF79BFE04D877
:1027000020460899FDF7DAFD01E07F20C00507901B
:102710002A48BC000059009945006D082846FDF77D
:1027200089FE05D828460099FDF7C8FD054601E059
:102730007F25ED0507990998FDF783FD0790294648
:102740000A98FDF77EFD0799FDF722FD07902548C1
:1027500081680120C007814206D92348015901A898
:102760000059FDF766FD24E0214801592148015137
:102770001D48015901A80059FDF75BFD0799FDF7B8
:1027800060FD05467F20C0050799FDF752FD0790C3
:102790003846FFF797FB04A90959FDF7F9FC1249E0
:1027A0000959FDF746FD0799FDF74BFD2946FDF751
:1027B000EFFC33E040E0000050040020D403002090
:1027C000200500200AD7233C000080BF0AD723BC85
:1027D0009802002035FA8E3C9C02002084020020E2
:1027E000900100208401002098050020EC060020C4
:1027F000D4050020EC01002074000020840000209B
:1028000088000020CDCCCC3D9A99993E00005C42D6
:102810003333733FE00500203333333FF9497F1CE6
:102820000851012F00DC5AE7F74881680698FDF748
:1028300000FDF449886081E60027F448BD00415955
:10284000F34841513846FFF73DFB04A94959FDF7CC
:102850009FFCED494959FDF7ECFC7F1C6051012FAD
:10286000EBDD51E6EB4A06601268012A07D12660CB
:1028700005E0E94A1278002A1FD007600F60E74A96
:10288000E74DD27A002A1CD0EF61006800281AD0E8
:10289000E8690028E3481BD0C468E3492046FDF7F7
:1028A000D0FCE249FDF774FCA861E14884421FDDD9
:1028B000E048016800291AD01AE0DF4A0660176074
:1028C000DDE7EE61E1E7DB48AE6106600E600FE038
:1028D000C068DA49884203DAD648AE61066007E08C
:1028E000FDF7A7FCD649FDF7ACFCA861D14807600D
:1028F000CA480079002819D0CA4BAE61D14A18687D
:10290000904211D2D04988420EDA586890420BD2D8
:10291000884209DA9868904206D2884204DAD86878
:10292000002801DD884201DBC3480760C748C84969
:1029300000780968084303D1BC48A969814224DAB8
:102940006868002807D001F05FF86968401AC1493B
:10295000884200D96E600024E0B2002102F0F6FF48
:10296000641C032CF8DDBC4CAD4822460021083025
:1029700001F069FCAA48224600210C3001F063FCFA
:10298000AE612F602E620BB0F0BD0020286001F018
:102990003BF86860B1480068002802D0B048C068C1
:1029A000A861B0480024006801283FD1AE48B04E6D
:1029B0000168AE48814205DAFDF73BFC3146FDF780
:1029C00040FC0446AB480168AB48814205DAFDF79C
:1029D00030FC3146FDF735FC04467F20C0058442BB
:1029E00001DD044601E0002C07DDA4492046FDF787
:1029F00028FC6969FDF7CCFB03E08C496869FDF7A9
:102A000018FC3F2109066861884201DD696105E023
:102A10000121C907884201D90020686120466969FF
:102A2000FDF7B6FBA969FDF708FCA8619448954E2F
:102A300000680890002804D10121B068C907484007
:102A4000B060306800900146754880690746FDF720
:102A5000F0FB099075682946FDF7EBFBB468214649
:102A6000FDF796FB079038460099FDF791FB074666
:102A70002946FDF7DEFB2146FDF7DBFB05902946E5
:102A80000998FDF785FB2146FDF7D3FB06903846F4
:102A90002946FDF77DFB2146FDF77AFB0490089857
:102AA000002803D10120C0074440B460002404AED4
:102AB000A5007059214601F095FF641C7051032C4C
:102AC000F6DD0020594F04460090A500705900998A
:102AD000FDF7BAFC01D27059009070593946FDF7E4
:102AE000A9FC00D27759641C042CEEDB7F21C905B8
:102AF0000098FDF79EFB3F252D06A84200DD2846E5
:102B0000474CA168FDF7A0FC04D25F49A068FDF71F
:102B10003FFB03E05D49A068FDF78BFB434FA060DE
:102B2000A84201DDA56003E05949884200D9A160AF
:102B30003B4801218068C907884200D955483C4973
:102B4000FDF77FFB00280DDD3946FDF721FB074629
:102B50000024A50070593946FDF76BFB641C7051C9
:102B6000042CF6DB3348006801281ED100252C46D2
:102B7000A700F0592946FDF75DFC00D2F559641C09
:102B8000042CF5DB4448854201D9054603E00120C9
:102B9000C007854209D90024A700F0592946FDF74E
:102BA00048FB641CF051042CF6DB00211C48204F2C
:102BB0000D467F1E0162AC0030590121C9078842D1
:102BC00002D90020305104E07F21C905884200DD90
:102BD000315132483159FDF734FB3946FDF7D8FA07
:102BE0000E4930510978002904D0EAB20146104656
:102BF00002F0ACFE30590121C907884250D90020AB
:102C0000305152E0C803002098050020D405002070
:102C1000EC010020C80000208402002050040020A5
:102C2000000000202005002077BE7F3F6F12833A0E
:102C3000CDCCCC3D8000002048000020CDCC4C3DC8
:102C40009932873FA4707DBFA4707D3F7E02002033
:102C5000E000002040420F00EC51383F9801002076
:102C6000EC0500207800002030000020CDCC2C4066
:102C700000004040340000203333534017B7D138B0
:102C80007C000020E00600200AD7A33B0AD7233CA3
:102C9000CDCCCCBD17B7D1B8CDCC4CBE6666663FA7
:102CA0007F21C905884200DD31513159074C206A26
:102CB000FDF76EFA6D1C2062032D00DC7BE701211D
:102CC000C943206AFDF738FB20625CE60000002063
:102CD000F0B5024604464E4B83B040006946984228
:102CE00009D273210906884202D20020C04300E0C5
:102CF0000020009030E05000464B400898426CD2D3
:102D000045491046FDF79DFAFDF7FAFB0746FDF72A
:102D100031FB8007800F009040493846FDF791FA5B
:102D200001903F493846FDF78CFA06463D49384642
:102D3000FDF787FA05463C493846FDF782FA2146F9
:102D4000FDF77BFA2946FDF774FA3146FDF771FA73
:102D50000199FDF76EFA044625467F27009CFF0582
:102D6000002C3EDBE007314E294608461BD0FDF71C
:102D700068FA07462E49FDF764FA2E49FDF75DFA19
:102D80003946FDF75EFA2C49FDF702FA3946FDF7A0
:102D900058FA2946FDF755FA2946FDF7F9F9A10732
:102DA00018D503B0F0BDFDF74CFA05462349FDF7F1
:102DB00048FA2349FDF7ECF92946FDF742FA214983
:102DC000FDF7E6F92946FDF73CFA3946FDF7E0F94B
:102DD000A107E6D5704003B0F0BD1046FEF786FEB1
:102DE000B9E7FF2168000906884202D2384603B0DD
:102DF000F0BD884206D10120FEF748FFFEF768FECD
:102E000003B0F0BD2846FEF75EFE03B0F0BD000043
:102E1000B61F927E490E494683F9223F1A61342C2F
:102E20000020A23300A0FD390000C93F000000804F
:102E3000336D4C39DA82083CA0AA2ABEB93AB2BA3C
:102E4000CA9F2A3DDDFFFFBEF3B5074681B01020C3
:102E500001F064FD041E1BD00020207102986071F7
:102E6000E4600125A46026467F1C0EE0102001F0DE
:102E700055FD00280CD0057102994171C66084602F
:102E8000B0606D1C0646EDB2E060BD42EED3204658
:102E9000FEBD0000F8B5664D2868A5287DD100214B
:102EA00008468200AA58401C51180E28F9DBC8B207
:102EB000A96B8842F2D15E48103002F023FB5D4ED0
:102EC00030605B48183002F01DFB706058482830B5
:102ED00002F018FBB060288C696A8007800D4018EA
:102EE000FDF736FA5449FDF7ACF95449F06009781A
:102EF000534C00291BD053490978002904D1524969
:102F0000884201DD012000E000202070287A41077E
:102F1000C90FE1724106C90F2173C107C90FE170E2
:102F20008106C90FC0062172C00FE07130E047482A
:102F3000007800280BD0287B0006C00F2070287A6C
:102F40000107C90FC007E170C00FA0710AE0287A1D
:102F50000107C90F2170297BC0070906C90FA1719C
:102F6000C00FE070287A8106C90F2172C106C90F0F
:102F70008007E171C00FA070287B8106C90F400750
:102F8000E172C00FA0726868FA2807D00020607054
:102F90002F480078012803D003E046E00120F6E73F
:102FA000A071E0782B4D002826D0207A2A4F0028E7
:102FB000E07904D0002804D13946306803E00028C5
:102FC0000AD02946306802F0F1FC3060294670686A
:102FD00002F0ECFC706004E03946306802F0E6FC78
:102FE00030603946B06802F0E1FCB060002006466F
:102FF00001231A4A1A4D0CE02946306802F0D6FC2B
:1030000030602946706802F0D1FC70601549B068E4
:10301000E9E716542F5C215C8F4200D013542954E9
:10302000401C0E28F5DB0120F8BD0020F8BD000093
:103030005005002020050020F7FF7F3A8402002081
:10304000500400207E0200200AD7233C8702002083
:1030500086020020CDCC4C3FCDCC0C3F400500205B
:10306000300500209A99193F10B50020FFF74AF863
:1030700010BD08B5C100081A0090411E009101D38F
:103080000846FAE708BD000006460024E0B2002129
:1030900002F05CFC641C032CF8DD0B4DAF00002437
:1030A0000CE0FF2001F09FF82846FFF7E2FFFF2029
:1030B00001F090F82846FFF7DCFF641CB442F0DB17
:1030C0003846FFF7D6FFEAE7400D030010B5034985
:1030D000FDF75EF800F004F810BD0000DB0FC93FFB
:1030E00070B50446134E144D03E03146FDF750F819
:1030F0000446AC42F9D8114DAC4204DD3146FDF72F
:1031000098F80446F8E70120C0070D490D4D8442A8
:10311000204605D9FDF795F82946FDF739F804E072
:10312000FDF78FF82946FDF788F82146FDF789F865
:1031300070BD0000DB0FC940DB0F49C0DB0F494009
:103140007B81CF3E83F9A23F10B5FDF787FD0124B7
:10315000E4062046FDF724FD0E48FDF721FD042876
:1031600017D0FDF74DFD00212046FDF751FD002150
:10317000A01CFDF74DFD0021201DFDF749FD00219C
:10318000A01DFDF745FD00210348FDF741FDFDF7BA
:1031900037FD10BD007C000808000008FEB50027C0
:1031A0003D460024681CFDF7D3F801900E49A800A5
:1031B0000E58601CFDF7CCF80090A10071580198E2
:1031C000FDF73FF80099FDF73CF80849FDF739F89D
:1031D0003946FCF7DDFF641C0746032CE9DB6D1C58
:1031E000032DDEDBFEBD00006C0200208D976E3FDC
:1031F00010B5FFF7D3FF0149086010BD8C00002017
:10320000F8B50020012400F023FA724DA8427DD1C8
:10321000FF2000F01DFAA84278D12046022500F0D8
:103220001FFA6D4948600968FDF704F911D10026BD
:103230000024B70028466D1C00F012FA6749A2006E
:10324000C959641C8850032CF4DB761C032EEFDB79
:1032500000E00B2528466D1C00F002FA604C20604F
:1032600028466D1C00F0FCF9606028466D1C00F0DB
:10327000F7F9A06028466D1C00F0F2F9FDF793F80D
:103280005849086028466D1C00F0EAF9FDF78BF8F4
:103290005549086028466D1C00F0DAF9534908705A
:1032A000284600F0D5F9C0B25149002408702728FB
:1032B00000D90C70262000F0CBF9C0B24D4901288E
:1032C000087000D90C70272000F0C2F9C0B24A493A
:1032D0000128087000D90C70282000F0B9F9C0B29C
:1032E00046490128087000D90C70292000F0B0F977
:1032F000434908702A2000F0ABF9424908702B209E
:1033000000F0A6F9404908702C2000E060E000F0D1
:103310009FF93E4908702D2000F09AF93C49087049
:103320002F2000F095F93B490870302000F090F90B
:1033300039490870312000F08BF938490870342081
:1033400000F086F9002203461146CC0018462041C1
:10335000C0B27F2800D90122491C0429F5DB002ACC
:1033600028D12F49012008602E490860322000F042
:103370006FF92D4C2071322000F06AF92B49000AB8
:103380000860332000F064F902460021CB001046AB
:1033900018416054491C0429F8DB342000F058F926
:1033A000234A03460021CC00184620415054491CB2
:1033B0000429F8DB362000F053F9FCF7DBFF1D4948
:1033C0000860372000F04CF9FCF7D4FF1A49086078
:1033D000F8BD00000100AA128C0000206C02002041
:1033E0008C050020980200209C0200207902002019
:1033F0007A0200208602002087020020840200203A
:103400008502002089020020800200208102002025
:10341000820200208302002088020020780200201F
:10342000B8000020BC00002014010020B4000020DF
:10343000F4000020780000207C000020F8B500F0A7
:1034400013F900F0F3F8002001245F4903F09CFA1F
:103450005E4920460225096800F00AF9002600248A
:10346000B7005B48A100C059415828466D1C00F0C8
:10347000FFF8641C032CF4DB761C032EEFDB554CA9
:1034800028466D1C216800F0F3F828466D1C616821
:1034900000F0EEF828466D1CA16800F0E9F84E48EF
:1034A0000068FCF760FF014628466D1C00F0E0F85C
:1034B0004A480068FCF757FF014628466D1C00F09B
:1034C000D7F8474928466D1C097803F05DFA45484E
:1034D0000178284603F058FA43480178262003F083
:1034E00053FA42480178272003F04EFA4048017809
:1034F000282003F049FA3F480178292003F044FAD4
:103500003D4801782A2003F03FFA3C4801782B20FF
:1035100003F03AFA3A4801782C2003F035FA39489A
:1035200001782D2003F030FA374801782F2003F07E
:103530002BFA36480178302003F026FA3448017817
:10354000312003F021FA3348006800281FD03348A7
:10355000314C0068217900020143322003F014FA53
:103560002046FCF7FBFD0102E078090A0006014352
:10357000332003F009FA2A48FCF7F0FD010228483D
:10358000090AC07800060143342003F0FDF92548FC
:103590007F240068E405002801D0214600E00021D6
:1035A000362000F065F820480068002801D0214648
:1035B00000E00021372000F05BF80349FF2003F012
:1035C000E3F900F041F8F8BD0100AA128C000020D8
:1035D0006C0200208C050020980200209C02002034
:1035E000790200207A020020860200208702002053
:1035F0008402002085020020890200208002002031
:103600008102002082020020830200208802002024
:1036100078020020B800002014010020B40000202F
:10362000F4000020780000207C00002010B5054840
:10363000FDF7B6FA042803D0FDF7E2FA012010BD29
:10364000002010BD007C000810B5FDF7D9FA10BDB0
:10365000024980004018006870470000007C0008A4
:1036600000B5FFF7F5FF00BD10B5FDF7F7FA10BD87
:1036700010B503F089F910BD30B53F4C2178814277
:1036800077D006216218203AD27F6254491E012960
:10369000F8DA207039493848FEF776FD7F25002892
:1036A00002D06570032030BD34493348C91DFEF790
:1036B0006BFD002802D06570042030BD2F492E48D4
:1036C0000E31FEF761FD002802D06570012030BD8B
:1036D0002A4929481531FEF757FD002802D06570A8
:1036E000022030BD25492448C91FFEF74DFD0028A2
:1036F00002D06570092030BD20491F480E39FEF701
:1037000043FD002802D065700A2030BD1B491A48CD
:103710001539FEF739FD002802D065700B2030BD49
:10372000164915481C31FEF72FFD002802D06570A0
:10373000052030BD114910482331FEF725FD002832
:1037400002D06570062030BD0C490B482A31FEF7C7
:103750001BFD002802D06570072030BD07490648D0
:103760003131FEF711FD002803D06570082030BD0F
:10377000FFE70020FBE70000A80000206B6A0008BC
:10378000F8B500F08FF8040072D001253C4E012CF2
:103790001ED13068002834D03A48056000203060DF
:1037A000FFF74CFEFFF72CFD002002460C270346D6
:1037B0007B43354F0021DB198F00491CDA51032967
:1037C000FADB401C0328F1DB00F01EF92F490860EA
:1037D00002212F4F0B2C19D0022C1ED00A2C28D0DE
:1037E0002C48042C2DD0032C2FD0072C00DB356067
:1037F000052C2FD0062C30D0072C3AD0082C3BD0EB
:103800002EE000F03DF9FEF761FAC9E7224A11E027
:103810001060081A38603560E9E7204A106800280F
:1038200005D000201060081A386035601BE00120C8
:10383000F8E71B4A1068002801D00020E8E70120C3
:10384000E6E705710F4805600AE00E490D600021AA
:10385000017105E001F0E4F801E001F0D3F838600F
:103860003068002804D03868002801D10548056078
:10387000F8BD00F049FCF2E7FFF7F6FBEFE70000C8
:1038800094000020480000208006002068000020EE
:103890004C000020500400207C000020B8000020D4
:1038A0007800002070B53748374C0068002864D095
:1038B000364B37481A685100490881420BDA9D6837
:1038C0006D006D08854206DA5D686D006D08854201
:1038D00001DA00202FE02F4DAA4202D89E68AE42A6
:1038E00006D95E6876007608864201DA012022E079
:1038F000294EB24202DC9A68B24206DD5A68520092
:103900005208824201DA022015E05A68AA4208D918
:10391000814206DA9D686D006D08854201DA032058
:1039200009E0B24208DD814206DA99684900490897
:10393000814201DA0420206000F066F806CC083CE1
:10394000914200D0E060E268801A144A90420FD998
:10395000002904D1124A904201D90C2005E0114AF5
:10396000904204D97F2903D0FF20A06000E0A1602D
:103970006160A068FFF780FE70BD7F20A06060607E
:10398000002070BD000000209800002020050020CD
:10399000CDCC4C3E333333BF3333333FA0860100AD
:1039A00060AE0A0020A1070070B5134C134A60688E
:1039B00000231349904206D90D7D012D03D10D6ED0
:1039C000AD680D660B750F4DA84206DD4E7D012ECC
:1039D00003D10E6EF6680E664B750123A84203DA1A
:1039E000904201D24B750B752068A84203DA9042D1
:1039F00001D28B75CB7570BD200500209A9919BF37
:103A0000780200209A99193F00B502F089FF00BDA5
:103A10001CB5232001214004FDF728FC0120694644
:103A2000087100208871C87103204871022000903D
:103A30000920C006FDF733F91CBDF0B5012185B0A2
:103A40004804FDF713FC0120C002009000246846E2
:103A500004710125C571032609274671FF066946D1
:103A60003846FDF71CF92803029068460473C573B5
:103A7000467302A93846FDF712F905B0F0BD000003
:103A8000F0B591B0FFF7C0FF0F9005460B900A907C
:103A900000208100574B0CAA5B58401C5350032850
:103AA000F7DB8DE00A980A95281A099001D10120C8
:103AB000099006236A464321682000F097F9009890
:103AC00001990002401800B2FCF742FC07900298EE
:103AD00003990002401800B2FCF73AFC06900498E3
:103AE00005990002401800B2FCF732FC424E0890E3
:103AF000307800F01BFB20464049FCF719FB40489A
:103B0000814201D9012100E000213068C207D20FB3
:103B1000914201D0401C3060374801780907090FF5
:103B200000260160B4000CAF06A839590059FCF713
:103B30008BFC04D238593349FCF72AFB385106A8CC
:103B400039590059FCF776FC04D238592D49FCF755
:103B500070FB3851E0192C4900F04EFB38592B49C5
:103B600040004008FCF714FB014606AF38594000FE
:103B70004008FCF769FC06D2FFF746FF0B901E4891
:103B8000012101600BE00998FCF7EDFB204900F0F2
:103B900097FB024617483959201800F054FB761C51
:103BA000032EBFDB7D24E400FFF72EFF401BA04265
:103BB00003D20A20FFF75DFAF6E7FFF725FF054677
:103BC0000B982C1A1348844205D20F981249281AD0
:103BD000884200D266E70B98291A0E48814207D224
:103BE0000020044A01468300401CD1500328FADB20
:103BF00011B0F0BDB00500206C01002024F40000DD
:103C0000127A0000CDCCCC3D000048440000C842F0
:103C10000024F44880841E00C0E1E40010B58AB09E
:103C200002206946087101208871C8710320164C72
:103C300000902046FDF733F8012200212046FDF7D1
:103C400066F8012211462046FDF761F8012148057A
:103C5000FDF718FB1020FDF7C9FB0C48029000206F
:103C60000F2104910390AB21094C05900790069118
:103C7000089002A92046FDF783F801212046FDF7B0
:103C800064F80AB010BD0000001400481808700065
:103C900000540040F8B517461E460446012200F0C5
:103CA0003BF80920800200906004010C0123F2B26D
:103CB0005B061248FDF79CF8114D0020287018E0B3
:103CC000002408E0641C600B05D00E490868401C05
:103CD00008600020F8BD04210848FDF74AF80028D4
:103CE000F0D00648FDF77EF829788A00B850491CC4
:103CF00029702878B042E3DB0120F8BD0054004071
:103D0000600300204403002008B501236A46FFF742
:103D1000C1FF009808BD0000F7B582B01746002427
:103D20001C4D1D4E02E0641C600B24D10121C9030F
:103D30003046FDF71EF80128F5D001204003009021
:103D40000298FAB24004010C00233046FDF750F807
:103D500002E0641C600B0ED102213046FDF709F829
:103D60000028F6D00398C1B23046FDF73EF808E0CF
:103D7000641C600B05D02868401C2860002005B03A
:103D8000F0BD01213046FCF7F4FF0028F0D00120FF
:103D9000F5E70000440300200054004070B51546CC
:103DA00000240222FFF7B8FFE9B20C4D2846FDF7C8
:103DB0001CF807E0641C600B04D009490868401C2B
:103DC000086070BD40212846FCF7D3FF0028F1D0E1
:103DD00001212846FCF7C3FF70BD000000540040DD
:103DE0004403002010B5FFF719FF10BD10B5FFF711
:103DF00051FF10BD10B5FFF787FF10BD10B5FFF7DD
:103E0000CDFF10BDF0B5A24CA24D91B0216828683D
:103E1000FCF70FFAA04E0746306061686868FCF74F
:103E200008FA7060A168A868FCF703FAB060384629
:103E3000FDF702F830607068FDF73EF87060B0681A
:103E4000FDF77AF8B0609549684602F083FD944822
:103E5000002400680AAF03909248A50040590399D6
:103E6000FCF7EFF9641C7851032CF5DB0B98FEF797
:103E70002FFF03900B9802F0B1F907900A98FEF714
:103E800027FF0D9001250A98ED07684002F0A6F97A
:103E900004460C98FEF71CFF06900C98684002F050
:103EA0009DF9049003990698FCF7CBF908900D99B9
:103EB0000698FCF7C6F9074603990498FCF7C1F980
:103EC000059006990798FCF7BCF90E90049907989D
:103ED000FCF7B7F909900D9804996840FCF7B1F91F
:103EE0000F9021460E98FCF7ACF90599FCF750F9B4
:103EF000109021460998FCF7A4F90899FCF79DF960
:103F0000069007980D996840FCF79BF907902146A9
:103F10000898FCF796F90999FCF78FF905462146B0
:103F20000598FCF78EF90E99FCF732F90490039985
:103F30000D98FCF786F92946584D0890A868059019
:103F4000FCF77FF90990686810990390FCF779F9FC
:103F500039460D902F683846FCF773F90D99FCF738
:103F600017F90999FCF714F9009004990598FCF7E2
:103F700068F9049006990398FCF763F906903846AF
:103F80000F99FCF75EF90699FCF702F90499FCF722
:103F9000FFF8019008990598FCF753F904900799E8
:103FA0000398FCF74EF9039021463846FCF749F98F
:103FB0000399FCF7EDF80499FCF7EAF802906946DA
:103FC000284602F0C7FC3448FEF782F836497F22C3
:103FD0000968D205002926D03449354B4118994249
:103FE00042D2014600241046FCF768F90390A7006E
:103FF000F159FCF726F9641CF051032C01DA0398FF
:10400000F5E727483F210906006800F06BF90746ED
:104010000024A000315840193A4600F014F9641CFD
:10402000032CF6DB20E0014600241046FCF746F99D
:104030000390A700F159FCF704F9641CF051032C1C
:1040400001DA0398F5E716483F210906006800F0F9
:1040500049F907460024A000315840193A4600F0BB
:10406000F2F8641C032CF6DB1248017A002902D115
:10407000C07900280AD0A9682868FDF78BFF0E4C8C
:104080002060A9686868FDF785FF606011B0F0BD29
:104090008C050020A4050020C80500208401002014
:1040A000640000209805002000000020CCCCCCC08B
:1040B0003233730050040020E0050020F8B50026DC
:1040C0000D4FFDF735FE0024A5000C4879594059E5
:1040D000FCF7AFF801460A480A4A281800F0B3F87E
:1040E000641C032CF0DB7D20C000FEF7C2FF761CB1
:1040F000642EE6DBF8BD00008C050020A40500203E
:10410000840100209A99593F10B50120FDF7FAFF6C
:1041100010BD0EB500226B461A805A8001911A819B
:104120009A726946FDF7CCFA0EBD000070B50646DE
:10413000FFF76AFC194C21692061451A3046FCF7EB
:1041400012F91749FCF77DF8064601212046890738
:104150000C3000F051F82846FCF705F905463046CA
:104160006168FCF766F82946FCF76BF80D49FCF727
:1041700068F8E168FCF70CF80B49E060884205DD5F
:10418000FF2000F030F87F20C00503E0FF2000F0A2
:1041900021F800206060002070BD00003401002084
:1041A0008988883D6F12833A48E1FA3E70B50D4622
:1041B0000446FFF729FC2146FBF7BAFF6C432009B0
:1041C000814203D90F2000F00EF870BD0F2000F0DF
:1041D00001F870BD10B5C00704D009200221C00647
:1041E000FCF7ACFD10BD10B5C00704D009200221BA
:1041F000C006FCF7A5FD10BD70B504460120C00740
:104200000D4645400E462068FCF71EF900D2266098
:1042100028462168FCF718F900D2256070BD1CB54E
:1042200001214804FDF722F8022000900020694691
:1042300009240871E4062046FCF731FD02212046DE
:10424000FCF77EFD1CBD70B505460C467F2016466A
:104250001146C005FBF7EDFF2146FBF7F2FF0446D0
:1042600031462868FBF7EDFF2146FBF791FF2860F8
:1042700070BD0000F3B5104E104F8C0083B0315963
:104280007869FBF7DEFF019030460C380559386934
:104290002946FBF7D6FF0090B9690398FBF7D1FFD9
:1042A0000099FBF775FF0199FBF7C3FF31463551C4
:1042B0000C39085105B0F0BD1C0700200402002095
:1042C00010B5FBF7FBFF7F24E4052146FBF7B5FFA4
:1042D000A04201DD204610BD0121C9078842FAD95C
:1042E000002010BD10B5FBF7ACFF7F24E40521468C
:1042F000FBF7A3FFA04201DD204610BD0121C90745
:104300008842FAD9002010BDF8B5164A09018C1868
:1043100005462768A1686068FBF73AFF0090E168EE
:10432000FBF736FF01467F20C005FBF7C7FF00996A
:10433000FBF787FF064639462846FBF77AFF3146EA
:10434000FBF77FFF3946FBF723FF05467F20314609
:10435000C005FBF76EFF0099FBF773FF25606060F7
:104360002846F8BDFC0500201CB57D24E40020464D
:10437000FEF77FFEFC4A9169012739439161FB48B2
:1043800001681022114301602046FEF772FEFFF71C
:1043900054FBF748FEF76DFE0925ED06F9022846A5
:1043A000FCF7C5FC002805D039032846FCF7BFFC04
:1043B00000280BD1FEF7C8FE7D20C000FEF759FE95
:1043C000EC484168006880F308888847FDF7EEFFF5
:1043D00002F0D4F902212846FCF7A9FC00250028A8
:1043E00003D1E5480560FFF729F8FFF711FBFF202F
:1043F000FFF7F9FE02F098F802F07CFA00F03CFBBF
:104400004B208001FDF7B2F9D948FEF732FEFFF7E5
:10441000E9FC01F01FFA0021084601F097FA00219B
:10442000012001F093FA0021032001F08FFA00210E
:10443000022001F08BFA01F0A5FF01F091FF0028A6
:1044400058D0FDF7B1FCCD488773FEF7D1FEFEF7DB
:10445000D7FE01F09FFDCB48C9490026C163C74C78
:10446000AA200C3C2070552060700720A07001200D
:10447000E070C5480521007820712046FCF7A0FABD
:104480006071A571E57125726572A572E572FDF71F
:104490005BF9BE48761C8642E1DBBA4E0024002060
:1044A000FDF7F4FC7169FBF7CCFE07460120FDF730
:1044B000EDFC0146B348B64A1430FFF7C4FEB148DC
:1044C000B34A39460C30FFF7BEFEB048641C844244
:1044D000E5DBB04FF068062401902046FBF738FF7B
:1044E000014600900198FBF7E9FEB84204DD009810
:1044F000306204E0042039E0641E002CEDDC316AF7
:104500000198FBF7DBFEA449884201DA02202DE086
:10451000FCF77EFCFFF7B4FA01F010FBFFF7CEFDCD
:104520009E480068002801D007201FE0FFF76CFAC2
:104530007064FFF769FA934C0646606C301AFBF71B
:1045400012FF2064002802DC7F20C005206494490B
:10455000FBF777FE93492064884201DD062005E0E1
:104560008E4866640068142802DD0820FEF78CFD82
:1045700001F046FFFDF71EFFFFF744FC0020FDF7AA
:1045800085FC804C6169FBF75CFE07460120FDF766
:104590007DFC014620467E4A1430FFF754FE8248D7
:1045A0007B4A016820461830FFF74DFE7F49206A9C
:1045B000FBF747FE00907E4A6846E168FFF743FE3E
:1045C0002046734A39460C30FFF73DFE0121C943AE
:1045D0000098FBF7B1FE07467649E068FBF731FE2D
:1045E0003946FBF726FEA0640746A4697248844258
:1045F0005DDD6448006B0190FBF7AAFE6E49FBF796
:1046000020FE2146FBF71DFE3946FBF7C1FD01994F
:1046100007468C005949703108515A48806B002870
:1046200008D00020574B30398200401C8F500C2896
:10463000FADB9D635148614910300059FBF701FED8
:1046400001904E48403001593846FBF7F2FD019980
:10465000FBF79EFD494940310F5130390851014661
:10466000FBF7EFFD454F0146A037E019544AFFF72D
:10467000EAFD44484349006B401C08630C2816DBE4
:10468000084605633968002401913C48A700A03022
:10469000C0590199FBF7CEFE06D23848A030C05968
:1046A00001903848611C4163641C0C2CEDDB354CD7
:1046B000E069002802D04048E06400E0E564414938
:1046C000E06CFBF765FD0746606BFBF741FE3A497E
:1046D000FBF7B7FDA169FBF7B4FDA16CFBF758FD33
:1046E0003946FBF7A7FE03D33749E068884202DA70
:1046F0000120E06100E0E561606BFBF729FE2E49D7
:10470000FBF79FFDA169FBF79CFDA16CFBF740FD4A
:1047100020612E480068002805D02D480078002828
:1047200001D1FFF72DF81748C069002801D00821F2
:1047300008E028480068002806D0274800680028BC
:1047400004D00F2125485BE00C2158E00B4880790C
:10475000002845D000270B4C606A002853D0E06A3F
:1047600000283FD041E0000000100240000001405E
:10477000A086010000C4FF1FB800002050040020E4
:10478000AD210008240000207A02002088130000D8
:10479000492E7F3FCDCC6C4033335340440300203F
:1047A000BD3786350AD7A33C2000002066668640C8
:1047B00029EA7F3F0000A03FCDCCCC3D42F27C3FB8
:1047C00067B17F3FCDCC4C40CDCC2C4000000020C9
:1047D0007E020020C0000020E000002020A1070091
:1047E0000127B8E7FFF710F9E062FFF70DF9E16A7A
:1047F000411A4148814201D96562E56208213F487A
:10480000FFF7D4FC2DE03E48806A002820D0FFF757
:10481000FBF804463A48C06A00280AD13848002FFD
:10482000C46203D0FF20FFF7D5FC02E0FF20FFF7B2
:10483000DAFC3348C16A621A2F498A4203D9816A75
:10484000C562491E8162C06A2E49201A884208D971
:10485000002F03D0FF20FFF7C6FC02E0FF20FFF788
:10486000B9FC01F059FA01F007F9254CE06B8047DB
:1048700060682549401C6060E068FBF7E2FCFBF7DC
:1048800079FDA06000F02AF920480078002803D0C4
:104890001F48007800280AD01E48007A20707D2426
:1048A000E400FFF7B1F8801BA042FAD341E61948B3
:1048B0002178007A8842F2D0174920700878401C8D
:1048C000C0B208700F2801D908200870114CAA2026
:1048D0000C3C2070552060700720A0700120E07013
:1048E0000878207105212046FCF76AF86071A571EF
:1048F000FCF72AFFD3E7000020A10700A0860100F3
:1049000024000020E09304000000C842840200203C
:104910007E020020500400207A020020F0B50B3007
:10492000C108C900144F0026144A0FE003688B42E7
:104930000BD38B4205D95C1A4318456830C3083B3A
:1049400000E04368136002C004E0021D1068002804
:10495000ECD13046002803D13868002801D000206F
:10496000F0BD064A06481060064A121AD208D20064
:1049700044C001203860D7E7800300207C0300207A
:10498000B4070020B00B0020FFB581B007460E46EB
:1049900010460A9DFBF74DFC044628460499FBF798
:1049A00048FC054631463846FBF743FC2946FBF7F1
:1049B00048FC2146FBF782FC0499FBF7E9FB05B0B4
:1049C000F0BD000010B506490868002807D0002097
:1049D0000860091D08710920C006FCF760F910BDC8
:1049E0004803002070B503468C00044D044A60194A
:1049F0001946FFF728FC285970BD0000E403002089
:104A0000BA30223F05490868022804D001DA0220A2
:104A10000860401C70470020FAE7000004020020F4
:104A20000C494868002804D0012807D002280AD180
:104A30000BE0084844308860012003E0054850300E
:104A4000886002204860401C704702483830886007
:104A50000020F7E70402002010B50649087D401C3D
:104A60008007800F48614431095C252001F0E2FF96
:104A700010BD0000B000002010B500210720FEF797
:104A8000E3F9154C0121A062E0620920FEF7DCF990
:104A90002063606302210420FEF7D6F9A063E0637F
:104AA00003210020FEF7D0F9206460640421032074
:104AB000FEF7CAF9A064E06405210420FEF7C4F9FA
:104AC0002065606506210320FEF7BEF9A065E0655C
:104AD000A06A206610BD000078020020F8B5F94DEC
:104AE000F949A86901260024884204DA401CA8611B
:104AF0000620A87104E0E879002801D1EE71AC71BC
:104B0000A879F24F0300FCF7A6FF0805F6F4F3F2CC
:104B1000F1F0EF70EB48017BED480029C26829C82D
:104B200064D0EC498D4237D9EB498A4234DABB4232
:104B300032DDEA4A90422FD288422DDAE14AE84D2E
:104B40009671002081006B58116B401C0B608968C6
:104B5000C0B211630328F5D3E24D002081006B58E9
:104B6000116B401C0B608968C0B211630328F5D338
:104B7000DD4D002081006B58116B401C0B60896873
:104B8000C0B211630328F5D3506B1063D06B9063F0
:104B9000907810715078D070D44E3068C82824D3E3
:104BA000C84B0F219A79D24812011143D14D01709F
:104BB00029784170D049847009880A0AC27001714D
:104BC000597C4171E9788171C471047244728472B4
:104BD000C4720021435CC27A491CD218C9B2C272A5
:104BE0000B29F7D3FCF7B0FD3460F8BDC149097853
:104BF000002949D1B7498D4246D9B74DAA4243DD74
:104C0000BE498A4240DABB423EDDB44988423BD2CB
:104C1000A84239DAAB49B24D8E7100208200AB5800
:104C20000A6B401C13609268C0B20A630328F5D374
:104C3000AC4D00208200AB580A6B401C1360926898
:104C4000C0B20A630328F5D3A74D00208200AB58F9
:104C50000A6B401C13609268C0B20A630328F5D344
:104C6000984D00201C352B5C8A6B401C1370926899
:104C7000C0B28A630428F6D3486B0863C86B8863A4
:104C8000887808714878C870984D2868C828ACD3CF
:104C90008C4E0F21B279964812011143017095494B
:104CA0000A784270944A84701288130AC3700271A1
:104CB000727C42710A7ACB7952009B00C9781A4300
:104CC0000A438271C471047244728472C4720021F6
:104CD000435CC27A491CD218C9B2C2720B29F7D3FD
:104CE000FCF732FD2C60F8BD95E3EDE248E2E8E127
:104CF00089E172E0FFE7FEF757FE75480068B842A9
:104D000048DDA87D012845D1286E00790300FCF715
:104D1000A2FE0805090E12161A1E3B40686B286693
:104D2000022002E0E86B28660320A87131E0686C7D
:104D300028660420F9E7E86C28660520F5E7686D29
:104D400028660620F1E7E86D28660720EDE7AC71DC
:104D5000E86A28662C756C75FEF770FBFEF750FA52
:104D6000674E00210C230A4600205A439219830003
:104D7000401CD4500328FADB491C0329F2DBFEF760
:104D800043FE6049086004E0AC71E86A28662C754F
:104D90006C75AC75554E3068C828A4D3AA790F201D
:104DA0005349120110430870286E00794870A87C9E
:104DB0008870E87CC8700C714C718C71CC710C726D
:104DC0004C728C72CC7200200B5CCA7A401CD218D8
:104DD000C0B2CA720B28F7D304E7FEF7E5FD3C48E2
:104DE0000068B84233DDA87D012830D12F6E3879B4
:104DF000092826D244493868FBF7CAF93860686B3D
:104E00002863374A0020296B86000B689351896814
:104E1000401C29630328F6DB324A002086000B6819
:104E200093518968401C29630328F7DB2E4A002030
:104E300086000B6893518968401C29630328F7DBBF
:104E400004E0AE71686B2863E86A2866AC75204898
:104E500001682048814230D9E87D01282DD12E6E8D
:104E60003079092828D228493068FBF7E2F9306008
:104E7000002800DC3460686B2863194A0020296B25
:104E800086000B6893518968401C29630328F6DB70
:104E9000144A002086000B6893518968401C2963DE
:104EA0000328F7DB104A002086000B6893518968BD
:104EB000401C29630328F7DBEC750C4F3868C828C1
:104EC00024D210E7780200204A0600009A99193F80
:104ED000200500209A9919BF9A99993E9A9999BEEE
:104EE0003C0200204802002054020020280000203C
:104EF00044040020500400202C0000203333333FB2
:104F000080060020680000200AD7233CA9790F20E2
:104F10000901FA4E08433070286EF94D007970701F
:104F2000F8492868FBF78DF9FBF770FA00F0E4FF09
:104F3000FBF74EFAB070F3496868FBF782F9FBF7AC
:104F400065FA00F0D9FFFBF743FAF070ED49A86865
:104F5000FBF777F9FBF75AFA00F0CEFFFBF738FAC8
:104F6000E94D3071E7492868FBF76BF9FBF74EFA1A
:104F700000F0C2FFFBF72CFA7071E2496868FBF79A
:104F800060F9FBF743FA00F0B7FFFBF721FAB071C5
:104F9000DC49A868FBF755F9FBF738FA00F0ACFFDD
:104FA000FBF716FAD94DF071D6492868FBF749F995
:104FB000FBF72CFA00F0A0FFFBF70AFA3072D14998
:104FC0006868FBF73EF9FBF721FA00F095FFFBF765
:104FD000FFF97072CB49A868FBF733F9FBF716FAB3
:104FE00000F08AFFFBF7F4F9B072F4720020325C33
:104FF000F17A401C8918C0B2F1720B28F7D3FCF784
:10500000A3FB3C606FE6FEF7CFFCC1480068B842E6
:1050100012DDA87D01280FD1286E0079002830D03C
:10502000012836D002283CD0032842D0AE71E86B6C
:10503000A863E86A2866AC75B64E3068C828E1D324
:10504000AA790F20AD49120110430870286E00792B
:105050004870287B8870687BC870A87B0871E87BE3
:1050600048718C71CC710C724C728C72CC720020B5
:105070000B5CCA7A401CD218C0B2CA720B28F7D394
:10508000B0E5287B002802D000202873D3E7012058
:10509000FBE7687B401CC0B268730128CBD96C73F6
:1050A000C9E7A87B002802D00020A873C3E701202D
:1050B000FBE7E87B002802D00020E873BBE7012073
:1050C000FBE7FEF771FC924B1868B8420ADDA97D38
:1050D000012907D19049C978002902D0AE71E96A47
:1050E0002966AC758B4F3968C8298BD3AA790F21F3
:1050F000824E120111433170296E1D46097971707B
:105100008049FBF79EF8FBF781F900F0F5FEFBF70D
:105110005FF9B0707B496868FBF793F8FBF776F9A5
:1051200000F0EAFEFBF754F9F0707649A868FBF747
:1051300088F8FBF76BF900F0DFFEFBF749F93071F7
:105140007049E868FBF77DF8FBF760F900F0D4FEE2
:10515000FBF73EF9707170480178B171C178F17157
:10516000017A3172C0797072B472F4720020325CCC
:10517000F17A401C8918C0B2F1720B28F7D33EE7D0
:10518000FEF712FC62480068B84261DDA87D012884
:105190005ED1286E0079002806D001280DD00228A3
:1051A00015D0032853D14FE02879401CC0B2287194
:1051B000272800D92C716E7149E0E878401CC0B2F4
:1051C000E870012800D9EC70022068713FE068792E
:1051D000022816D1E9786970484F6C71AA2038709E
:1051E000552078700520B870FE7039710146384638
:1051F000FBF7E6FB7871BC71FC713C727C72BC728F
:10520000FC726879012816D12879A8703B4F6C711F
:10521000AA213970552179700721B970FE70387153
:1052200005213846FBF7CCFB7871BC71FC713C72F0
:105230007C72BC72FC72FEF701F9FEF7E5FB3749A0
:105240000860FCF781FA02E0AE71E86A2866AC7586
:105250002F4801683248814210D9E87D01280DD1DC
:10526000286E0079002808D12879002801D128204B
:105270002871C0B2401E28716E71EC75254E3068E1
:10528000C82800D22FE5AA790F201C49120110432B
:105290000870286E00794870A87888706878C8709F
:1052A0000C7128794871E8788871CC710C724C7255
:1052B0008C72CC7200200B5CCA7A401CD218C0B22F
:1052C000CA720B28F7D38DE4FEF76EFB1048006816
:1052D000B84246DDA97D012943D1296E09790B0029
:1052E000FCF7B9FB0504202830393E00297A491C17
:1052F000C9B22972202933D92C7231E0440400202C
:105300003C0200200000C842480200205402002055
:105310002005002028000020500400206800002004
:105320009A9919BF697A491CC9B26972202917D99B
:105330006C7215E0A97A491CC9B2A97220290FD94B
:10534000AC720DE0297C491CC9B22974282907D9FF
:105350001C21297404E0AE71696D2965E96A29662A
:10536000AC75644988422FD9E87D01282CD1286E7C
:1053700020210079002806D001280CD0022812D064
:10538000032820D117E0287A002802D0401E287276
:1053900019E0297217E0687A002802D0401E68726E
:1053A00011E069720FE0A87A002802D0401EA872AE
:1053B00009E0A97207E0287C401EC0B228741C28AE
:1053C00001D228202874EC754B4E3068C82800D2D2
:1053D00089E4AA790F204949120110430870286E08
:1053E00000794870287A8870687AC870A87A08713D
:1053F0004C71E87A8871287CC8710C724C728C727E
:10540000CC7200200B5CCA7A401CD218C0B2CA729F
:105410000B28F7D3E0E4FEF7C7FA39480168B94230
:1054200023DDA87D012820D1286E0079002806D030
:10543000012808D002280AD0032815D10FE0286AD5
:105440000A30286210E0686A0A3068620CE0287846
:10545000002802D00020287006E00120FBE7AE7192
:10546000E86DA865E86A2866AC752248814219D9BA
:10547000E87D012816D1286E0079002804D0012883
:1054800006D002280DD107E0286A0A38286208E011
:10549000686A0A38686204E02878002828D000206A
:1054A0002870EC75144E3068C82891D3AA790F2063
:1054B0001249120110430870286E00794870288C38
:1054C000020A8A70C870A88C020A0A71487128788A
:1054D0008871CC710C724C728C72CC7200200B5C97
:1054E000CA7A401CD218C0B2CA720B28F7D373E430
:1054F0000120D5E79A9919BF280000204404002014
:105500002005002010B5416800788007800DFF3825
:10551000FF3802380818FAF71BFF0821C943FAF7C9
:105520000BFF10BDF0B506469D4A9F48D3789D49B4
:1055300000689E4FB4008FB0002B02D0127A002A70
:1055400011D0002803D03859FAF77BFE3851022ECB
:1055500019DA964918310859C207401CD20F085170
:10556000002A07D00FE00028EDD1914800680028FC
:10557000E9D0ECE78D4831464830005901F040F859
:105580008A490C3108518B480025015987483C3025
:105590000059FAF74FFF04D187480059002800DD71
:1055A0000125844801210059C90748407F493C3101
:1055B0000959FAF73FFF06D17F4801590120C0077A
:1055C000814200D90125022E0BDA78480C300159AE
:1055D0003C300059FAF72DFE4000784940088842D7
:1055E00028DC002D26D1714802215430005900904A
:1055F000FAF7A2FE6D4960310959FAF7C9FD6E4903
:105600000D592946FAF7C4FD6D49FAF71AFE6D499E
:105610000959FAF716FE6C490968FAF712FE39596A
:10562000FAF7B6FD614938516031009808510846D3
:105630000C3805515F480C3001595C482018FEF7C2
:10564000DBFD6048183007595B4839460059FAF7C6
:10565000F8FD5C490C3909590091FAF7F2FD534DF8
:105660007F2101903C35C9053846FAF7E2FD0099E3
:10567000FAF7E7FD554909590391FAF7E2FD019957
:10568000FAF786FD49490959FAF782FD28514D4834
:105690000C3000590290002801DC285972E04C4877
:1056A0000AA9027807A8002A06D0464A243A1259C5
:1056B0000251444A183A05E03C4A603A12590251F4
:1056C0003A4A543A12590A5100597F22D2050090A1
:1056D000904208590190014604AF104608DAFAF7E3
:1056E000A8FD0D903B4801990059400040080BE08F
:1056F000FAF79FFD0D9000990198FAF7DFFD01463A
:105700003448005940004008FAF79BFD0D99FAF71C
:105710003FFD38512548243001590398FAF789FD97
:105720000299FAF78EFD27494439C9690D91FAF7B4
:1057300088FD0E901D4830300159183002590192F1
:105740001046FAF776FD0299FAF77BFD0099FAF711
:1057500078FD3959FAF775FD0D99FAF772FD0E9932
:10576000FAF767FD1149019A30310A510F4A03993E
:10577000243211513146FEF77DFD01462859FAF7D2
:1057800007FD28510F494439C968FAF75AFD2851D5
:10579000084801596019FEF72FFD28590FB0F0BDD8
:1057A0005004002048E17A3F00000020A4060020B9
:1057B00080000020B46A0008C8030020CDCCCC3D96
:1057C0007EAA2A3E4802002064000020980500209E
:1057D00078020020D4030020F8B51448016814486A
:1057E000FAF76CFD134CE061134801681348006838
:1057F000FAF764FD7F25124EED053346114A124932
:105800000095FFF7C1F8E060B04201DDE66002E01C
:10581000A84200DAE5600D48C078002804D00C49A1
:10582000E068FAF70EFDE060F8BD000064000020BB
:1058300017B7513B04020020440000203000002034
:10584000713DAA3F6666764000002040500400206B
:105850006666663FFEB5022569460D7103204871F4
:1058600000248C71CC7101210846FBF70BFD334FEE
:105870006E0739463046FEF74CFC01210220FBF74B
:1058800001FD39462E4F3846FEF743FC2D48602176
:10589000018001214180848109020182846080208D
:1058A0000924E406009069462046FBF7F8F9012236
:1058B00007212046FBF72BFA22493846FBF770FEFA
:1058C000A803009069462046FBF7E9F902220F2160
:1058D0002046FBF71CFA1B493046FBF71DFE1A4C0D
:1058E000694620460095FBF7DAF901221146204669
:1058F000FBF70DFA13493846FBF7A4FE0820009089
:1059000069462046FBF7CBF9022203212046FBF72C
:10591000FEF90C493046FBF743FE01213046FBF708
:10592000DCFD01213046FBF7E2FD01213846FBF7A3
:10593000D4FD01213846FBF7DAFDFEBDCF0700009C
:1059400000040040280700200004004810B50A4663
:10595000044613491046FAF774FCFAF70BFD0028C9
:1059600001DA002003E00F49884200DD0846002CE0
:105970000AD0012C0CD001218907022C0CD0032C59
:1059800001D180B2886310BD074980B2086010BDA4
:10599000054980B24039F5E780B2486310BD000088
:1059A00000E0F944CF07000040040040F8B5064687
:1059B0007F20C0050C46814201DD044603E010490A
:1059C0008C4200D90C4621460746FAF732FC314694
:1059D000FAF737FC054631460846FAF732FC3146FD
:1059E000FAF72FFC2146FAF72CFC2946FAF7D0FBF0
:1059F000009039466846FEF7FFFB0098F8BD0000AE
:105A0000000080BFF0B51B4A0024194F1346214601
:105A1000303B8800385805022D0FAD005559A600BF
:105A20009D5105032D0FAD005559641CA6009D51D5
:105A300005042D0FAD005559641CA6009D510505A8
:105A40002D0FAD005559641CA6009D5105062D0F64
:105A5000AD005559641CA6009D510007800E1058DA
:105A6000641CA5005851491C641C0229D1DBF0BDFF
:105A7000640100206C07002010B5084C6068012804
:105A800006DD6068032804D00120606000F008F89B
:105A900010BDFFF7B7FF0220606010BD6403002057
:105AA00070B5204D4F20E862172068632F20E8630F
:105AB0001E4E1D4830621E4971621B481B4C10303F
:105AC000403C60621B4AA262A063E163E0690F216F
:105AD00009028843E0611848FAF7C4FF3020606388
