:020000040800F2
:10000000F80F0020D9000008FF000008ED0D0008DF
:1000100000000000000000000000000000000000E0
:1000200000000000000000000000000003010008C4
:100030000000000000000000050100080D15000888
:100040000901000809010008090100080901000868
:100050000901000809010008090100080901000858
:100060000901000809010008990A0008F50A0008BA
:100070000901000809010008090100080901000838
:10008000090100080000000000000000090100084C
:10009000000000000901000809010008090100082A
:1000A000000000000901000809010008090100081A
:1000B00011190008000000000901000809010008EA
:1000C0000448854600F006FC00F052F8004800475E
:1000D00005450008F80F00200C4880F308880C48FC
:1000E0000168090E0B4A914205D10B480B4901608A
:1000F0000B480C4901600C4880470C480047FEE75C
:10010000FEE7FEE7FEE7FEE7FEE70000F80F00204F
:10011000040000001F000000181002400100000051
:10012000000001400000000011150008C100000897
:1001300030B50B46014600202022012409E00D467F
:10014000D5409D4205D31D469540491B2546954007
:1001500040191546521E002DF1DC30BD0321001D53
:10016000401E037812021A43491EF9D51046704703
:1001700070B5054C054D03E0206800198047241D2B
:10018000AC42F9D170BD0000906F0008946F000878
:10019000F8B502464A40D40F42004B0052085B08B3
:1001A0009A4202D20246084611464A0023D0C30DA5
:1001B0004A00DDB2120EAD1A202D35DA49020126B1
:1001C000490AF6058A19002C00D0524220214F1B03
:1001D0001146B9402A411018C20D9A4221D0002C74
:1001E00017D0012D08DCDA05801AD20F8019D2074A
:1001F000DBB200F070F9F8BDDA05801A0123400087
:100200001B06C01880185A428018CA0F10434900B4
:1002100007E04908C2071143DA05801A801940082F
:10022000801800F050F9F8BD61000122511A001B3E
:10023000F7E70122D2075140AAE70122D207504036
:10024000A6E7024670B54A40D30FDB0740002DD029
:100250004A002AD0010E140E000212020919400AA7
:10026000520A8418E50104465443000A120A2E0477
:100270005043A4194219200CC543AA18120C012599
:10028000AD03521C521912047F39240400D0521CB1
:10029000104301D44000491EC2B20C06C009201808
:1002A000401C4008802A02D003E0002070BD4008B6
:1002B0004000002900DA0020184370BD70B50246E6
:1002C0004A40D50F40004A00ED0740085208002878
:1002D00014D0002A12D0C40DD30D41020120C00554
:1002E0005202490A520AE41A091812187D3491423E
:1002F00001D3641C00E04900002C01DA002070BD2D
:100300000023914201D3891A034340084900002881
:10031000F7D100290AD0914202D10121C90705E095
:10032000914201D2012101E00121C943E005C01839
:10033000401900F0C8F870BD420005D04200120E0E
:1003400052428A4201DB00207047C90508187047F5
:10035000C217C10F504010B54018CA07962300219C
:1003600000F0B9F810BD10B500229623114600F038
:10037000B2F810BDC20F410040020123400ADB0564
:10038000D207090EC0187F2901DA0020704796298C
:1003900003DC9623591AC84001E096398840002AA8
:1003A000F4D040427047410040020122400AD20589
:1003B000090E80187F2901DA00207047962903DC96
:1003C0009622511AC84070479639884070470000FD
:1003D00070B5CD0F4A0009030123090B1B05194312
:1003E0000B4BED070024520D9A4201DA002070BD3C
:1003F000074B34339A4203DC9A1A00F053F802E0B8
:100400000449511888402C43F1D0404270BD00008F
:10041000FF030000CDFBFFFF4A0009030123090B86
:100420001B051943094B10B5520D9A4201DA002001
:1004300010BD064B34339A4203DC9A1A00F032F8AE
:1004400010BD03495118884010BD0000FF03000093
:10045000CDFBFFFFC20FD207400040080BD0C10DFB
:100460000723DB01C91840020905400A1143C208ED
:100470004007114370470020014670470122D20710
:10048000002800DB101A002900DB511A8142704756
:100490000122D207002800DB101A002900DB511AC4
:1004A0008842704710B5202A04DB0846203AD04025
:1004B000002110BD0B46D340D0402024A21A914009
:1004C0000843194610BD002904DA401C490001D137
:1004D00040084000704770B40024050C05D110247A
:1004E000000402D1002921D01124050E01D10002FF
:1004F0000834050F01D10001241D850F01D18000B2
:10050000A41C002801DB4000641C002908D0202521
:100510002E1B0D46F540A14000D001212943084380
:1005200001061B1B000ADB1D02D5002070BC7047B2
:10053000DB05181880180029F8DA401C4900F5D1AD
:1005400070BC40084000704710B541000DD041001C
:10055000090E962909DC7E290ADC07DB410205D059
:10056000C00F7F21C007C905401810BD002010BD75
:100570009622541A20210A1B01469140E040FFF7C1
:10058000A2FFA04010BD10B5002B08DA0024401CCB
:10059000614192185B411A4301D14008400010BDEF
:1005A000F0B51FB482B005460C0003D0084601F038
:1005B00082FA02E001F07FFA2030024600902146E4
:1005C000284600F099F9049B059A04460F46184303
:1005D0001143084314D0184610431BD00098402103
:1005E0000A1A18460599FFF75DFF05460E46009A60
:1005F0000599049800F080F9084305D0012004E033
:100600002046394607B0F0BD0020C11705430E4310
:100610002C43374300990E986305401A7905E40A84
:1006200000220C43FD0A0A3002D500200146E9E70A
:100630000105101969410C9C0D9D00196941FFF7D6
:10064000A2FFDFE7F0B507460846584087B0C00F65
:10065000049048000E46590040084908BC1A8841D9
:1006600005D2384631461E4617460B46024658000C
:10067000400810434CD0300D039040055900400D08
:10068000490D0590401A0290402872DA18030121A2
:10069000000B09050843019004980092002805D03A
:1006A0000199524200208841009201900298402115
:1006B0000A1A0199009800F01FF905460C466B468E
:1006C00007CB00F029F9C0197141039A0E0D0023E0
:1006D000D71756401A467A40164344D0049A002A47
:1006E0002DD0029A012A039A15DC1205C01A9141F5
:1006F00001263605001C7141D20F059ED2070093DA
:10070000019202962A462346FFF74AFF07B0F0BD42
:1007100038463146FAE71605224A0F46B218C01A83
:10072000B74101210905001C4F4100187F411146C6
:1007300018187941E20F10436D19644113E0E20784
:100740006D0815436408C2071443039A0126120575
:10075000C01A91413605001C7141CE074008304354
:100760004908C01851412A462346FFF70CFFCDE740
:10077000FFE7049801224000C117121A00238B41A1
:1007800004983146C417381AA141EEE730B4012469
:10079000E407634030BC55E730B40124E40761400E
:1007A00030BC4FE70000E0FFF8B5054648004008C0
:1007B0000C46284304D06000184A400D904201DDE9
:1007C0002846F8BD15493539884210DC88420BDBD4
:1007D000290D200308432903014305D0E00F1049E8
:1007E000C00741180020F8BD00200146F8BD161AC8
:1007F0004020821B2846214600F07EF807460091E3
:10080000284621463246FFF74DFE3A46009BFFF749
:10081000BAFE324600F070F8F8BD00003304000064
:100820000000F03F10B5002904DB0124E40740423A
:100830008C412146002B04DB1C460123DB0752427E
:10084000A3418B4200D1824210BD000010B50029A7
:1008500004DB0124E40740428C412146002B04DBE9
:100860001C460123DB075242A341994200D190422A
:1008700010BD000030B50446CD0FED070020054344
:1008800004D10D460121C9076442A941DD0FED07DE
:10089000284304D118460123DB07524283411846FE
:1008A000151B884101D2094806E00120400762403B
:1008B0004B401A4300D10648EFF300810902090AB0
:1008C000020E1206114381F3008830BD0000008043
:1008D00000000060064C0125064E05E0E36807CCE9
:1008E0002B430C3C98471034B442F7D3FFF7ECFB92
:1008F000706F0008906F000810B5202A04DB0146D5
:10090000203A9140002010BD914020239C1A0346BC
:10091000E3401943904010BD10B5202A06DBCB17E9
:100920000846203A1041C1170B4306E00B4613411D
:10093000D0402024A21A91400843194610BD70B53A
:100940008C180578401C6B075B0F01D10378401CA5
:100950002A1106D10278401C03E006780E70401C74
:10096000491C5B1EF9D12B0705D40023521E0DD460
:100970000B70491CFAE70378401CCB1A921C03E069
:100980001D780D70491C5B1C521EF9D5A142D8D3AD
:10099000002070BD836A0B43836242617047002967
:1009A000816801D0012200E002221143816070477A
:1009B0000029C16802D00122114301E04908490021
:1009C000C1607047C26802239A43C260C2680A438A
:1009D000C2607047826800210123DB071A438260EE
:1009E0000F231B038268491CD20FD207994201D002
:1009F000002AF7D18168002901DB006C70470020D4
:100A00007047000030B5C268084B8C681A400B680C
:100A10000D792343CC686D032C4323430C6949694A
:100A200023430B431343C36030BD000003D2FFFFD9
:100A300081680422114381607047002101600171C7
:100A40008160C16001614161704700000122054978
:100A500092050028886801D0104300E09043886028
:100A6000704700000027014070B50546002003468E
:100A7000D5240DE0EA5C50400022060602D5400075
:100A8000604000E04000521CC0B2082AF5DB5B1C4D
:100A90008B42EFDB70BD000010B50021124800F062
:100AA00041F8114800213C3800F03CF80E48002184
:100AB000283800F037F80D4C0721002209022046A3
:100AC00000F075FD601500F027F80021204600F0C9
:100AD00058FD074C6068022803D10120606005F0D2
:100AE0009DF80020606010BD58000240002C0140BD
:100AF0007C03002010B501246403204600F064F854
:100B0000012802D1204600F001F810BD01494860DB
:100B10007047000000000240014948607047000033
:100B2000000002400029016802D00122114301E0C7
:100B3000014A114001607047FEFF00000168204A31
:100B4000114001600021016041608160C1601D4968
:100B50001C4A0839904202D148680F2205E0194A20
:100B60001432904204D14868F02210434860704724
:100B7000144A2832904203D148680F221202F4E747
:100B8000104A3C32904203D148680F221203ECE72E
:100B90000C4A5032904203D148680F221204E4E715
:100BA000084A6432904203D148680F221205DCE7FC
:100BB000044A78329042DAD148680F221206D4E70C
:100BC000FEFF000008000240034A014612680020B0
:100BD0000A4200D00120704700000240002A02684B
:100BE00001D00A4300E08A430260704730B50368D1
:100BF0000C4A0C6A13408A684D6922430C692C43E5
:100C000022438C692243CC6922434C6A22438C6A7A
:100C100022431A430260CA6842600A6882604968D7
:100C2000C16030BD0F80FFFF41607047002101604F
:100C300041608160C160016141618161C1610162A6
:100C40004162816270470000F0B50B2706463F0401
:100C5000384600F067F804280FD1084C20690225B7
:100C6000284320616661206940210843206138469D
:100C700000F058F82169A9432161F0BD002002402D
:100C800008490420CA68D20701D001207047CA6809
:100C9000D20601D502207047C9684907FBD5032059
:100CA0007047000000200240024801698022114381
:100CB0000161704700200240F8B5064600200B276E
:100CC0003F0400900D46384600F02CF8042815D15A
:100CD0000B4C20690121084320613580384600F023
:100CE00021F8042806D1B61C290C0096318038461C
:100CF00000F018F82169490849002161F8BD000099
:100D00000020024004480169090603D503494160F7
:100D100003494160704700000020024023016745FD
:100D2000AB89EFCD00B50346FFF7AAFF02E0FFF75E
:100D3000A7FF5B1E012803D0002B00D1052000BDBA
:100D4000002BF4D1FAE7F0B50022032501230C684B
:100D500093401C409C422AD10C79012C01D0022CDA
:100D600012D1876854002E46A640B74387604E795B
:100D7000A64084682643866084889C438480848857
:100D80008B7993401C438480066853002C469C401A
:100D9000A64306600E7907689E403E430660C6681B
:100DA000A643C660CC799C40C3681C43C460521CF7
:100DB000102ACBD3F0BD4B07DB0E9A40C90810B503
:100DC00089000818016A0F249C40A1430162016A4E
:100DD0001143016210BD0246128A00200A4200D06F
:100DE000012070470185704781617047052002F03E
:100DF000ADF90029016802D00122114301E0490840
:100E0000490001607047012292030029416801D026
:100E1000114300E09143416070470246926900200F
:100E20000A4200D00120704710B5026852085200F3
:100E300002600268134B8C681A4024024B6814430A
:100E4000234303600F230A681B069A43026102686A
:100E500001231A43026000228260C2600B698A6922
:100E60001A43826082680123DB031A438260CA68E6
:100E70000368134303604268034B49691A401143F6
:100E8000416010BDFFE0CF00FF7FFF07406AC0B2A6
:100E9000704781627047000070B5049D4468890501
:100EA000890D1204034E1143194334402943214351
:100EB000416070BD009800FC70B5074C074D21469D
:100EC000284600F0CDF82146284600F021F92146B9
:100ED000284600F075F970BD0000F041000048435D
:100EE000F8B51E4C06462068002801DC3046F8BDE7
:100EF000A168E069FFF7A5F905466168A069FFF7F9
:100F0000A0F93146FFF799F92946FFF792F905460E
:100F10004000FF214008C905081AC00F04D1284627
:100F200000F017FE002800D035466169E069FFF740
:100F300088F90090A06921690746FFF782F9064603
:100F40002846E168FFF77DF93146FFF721F900995E
:100F5000FFF71EF9E761A561F8BD0000F40200206B
:100F6000F8B51E4C0646206A002801DC3046F8BD64
:100F7000A16AE06BFFF765F90546616AA06BFFF7B0
:100F800060F93146FFF759F92946FFF752F905464E
:100F90004000FF214008C905081AC00F04D12846A7
:100FA00000F0D7FD002800D03546616BE06BFFF7FD
:100FB00048F90090A06B216B0746FFF742F90646FF
:100FC0002846E16AFFF73DF93146FFF7E1F800995D
:100FD000FFF7DEF8E763A563F8BD0000F402002028
:100FE000F8B51E4C0646206C002801DC3046F8BDE2
:100FF000A16CE06DFFF725F90546616CA06DFFF768
:1010000020F93146FFF719F92946FFF712F905468D
:101010004000FF214008C905081AC00F04D1284626
:1010200000F097FD002800D03546616DE06DFFF7B8
:1010300008F90090A06D216D0746FFF702F90646FA
:101040002846E16CFFF7FDF83146FFF7A1F800995B
:10105000FFF79EF8E765A565F8BD0000F4020020E3
:10106000FEB50D46FFF72AF901462648FFF726F997
:1010700005F0CAFD01460090FFF7E3F80446019031
:10108000214801F087FE0121FFF756F90099FFF78B
:10109000D8F87F27FF053946FFF77AF82146FFF792
:1010A00077F81A4C06462560002D29DD3146019857
:1010B000FFF704F905460121E060FFF73DF965619E
:1010C000206139460198FFF7B4F80121FFF734F9A0
:1010D0003146FFF7F3F860600B48019D01F05AFEBE
:1010E0000121FFF729F90099FFF7ABF83946FFF71F
:1010F000A4F82946FFF74CF83146FFF7DFF8A06067
:10110000FEBD0000DA0F4940DA0F493FF40200202B
:10111000FEB50D46FFF7D2F801462648FFF7CEF898
:1011200005F072FD01460090FFF78BF80446019030
:10113000214801F02FFE0121FFF7FEF80099FFF78B
:1011400080F87F27FF053946FFF722F82146FFF791
:101150001FF81A4C06462562002D29DD31460198FC
:10116000FFF7ACF805460121E062FFF7E5F865639B
:10117000206339460198FFF75CF80121FFF7DCF89E
:101180003146FFF79BF860620B48019D01F002FEBB
:101190000121FFF7D1F80099FFF753F83946FFF71F
:1011A0004CF82946FEF7F4FF3146FFF787F8A062B6
:1011B000FEBD0000DA0F4940DA0F493FF40200207B
:1011C000FEB50D46FFF77AF801462648FFF776F898
:1011D00005F01AFD01460090FFF733F80446019030
:1011E000214801F0D7FD0121FFF7A6F80099FFF78C
:1011F00028F87F27FF053946FEF7CAFF2146FEF78C
:10120000C7FF1A4C06462564002D29DD314601989A
:10121000FFF754F805460121E064FFF78DF8656596
:10122000206539460198FFF704F80121FFF784F89B
:101230003146FFF743F860640B48019D01F0AAFDB9
:101240000121FFF779F80099FEF7FBFF3946FEF719
:10125000F4FF2946FEF79CFF3146FFF72FF8A06404
:10126000FEBD0000DA0F4940DA0F493FF4020020CA
:1012700030B5827801240178002A15D08B080E4AF7
:101280009B009A1813688907C90EFF258D40AB4350
:101290004578AD072D0E8D401D4315600078C006C2
:1012A000C00E8440054804E0C806C00E84400348D0
:1012B0008030046030BD000000E400E000E100E0A8
:1012C00070B5FF2500210446AD05C943FFF734F88A
:1012D00006460F4960100C1A21463046FEF7B1FF52
:1012E0002146FEF7AEFF2946FEF7A7FF2146FEF78F
:1012F000A8FF044601463046FEF7A3FF2146FEF74D
:10130000A0FF2946FEF799FF2146FEF79AFF70BD20
:10131000DF59375F044A0029516901D0014300E0D9
:10132000814351617047000000100240044A0029C7
:10133000D16901D0014300E08143D16170470000D1
:1013400000100240044A0029916901D0014300E0E5
:10135000814391617047000000100240F8B5464E8D
:101360000446716800200C22444D114005D0042928
:1013700003D0082903D00C2918D0256018E0716823
:10138000706803228902D2030F0F1040BF1C00288F
:1013900009D0F06A0107090F2846491CFEF7C8FE6C
:1013A0007843206004E036487843FAE73549216005
:1013B0007168354F0906090F7B5C21680A46DA40DF
:1013C000626073685B055B0FFB5CDA40A260336BA5
:1013D000DB0501D42D4B05E073685B0401D4530891
:1013E00000E09308E360336B5F06294B03D4284F7A
:1013F0001237276100E02361376BFF0601D4656176
:1014000000E06161376BBF070ED0376BBF07BF0FBE
:10141000012F0BD0376BBF07BF0F022F08D0376BE0
:10142000FF43BF0706D006E0A26104E0A16102E02D
:10143000A36100E0A561376BBF03BF0F0FD0326B14
:101440009203920F012A0CD0316B8903890F022974
:1014500009D0316B8903890F032906D006E0E261C8
:1014600004E0E16102E0E36100E0E561316B09065F
:1014700000D404482062F8BD0010024000127A0037
:1014800000093D00006CDC0284030020809FD50031
:101490000080000004490A6B10239A430A630A6B18
:1014A00002430A6370470000001002400CB50020A0
:1014B0000090019013491120086013484168416071
:1014C0004168416041687B22D20391434160416899
:1014D0000522D20411434160016801221206114322
:1014E000016001688901FCD5416889088900416073
:1014F000416802221143416041680907890F0229AE
:10150000FAD10CBD002002400010024070470000DC
:1015100010B5144801680122114301604168124A64
:10152000114041600168114A1140016001680122C7
:1015300092049143016041683F221204914341604B
:10154000C16A09090901C162016BFF22543291434A
:101550000163416B49084900416300218160FFF745
:10156000A5FF10BD001002400CB8FF08FFFFF6FEFB
:1015700080220029018801D0114300E091430180BD
:1015800070470029018802D00122114301E0490877
:1015900049000180704740300029818803D0012232
:1015A000D203114301E04904490C81807047002AAD
:1015B000828901D00A4300E08A438281704700009B
:1015C00070B5028C520852000284048C8288038B0E
:1015D0007025AB439B080D889B001D4302239C4351
:1015E0008E894B882643104C3343A04208D00F4CC1
:1015F000A04205D00E4CA04202D00E4CA0420DD10C
:101600000824A343CC891C4304239C438B88234395
:10161000094C22400C8A14434A8A22438280058363
:1016200089684163038470BD002C01400040014083
:101630000044014000480140FFFC0000028B0823E9
:101640009A430A430283704770B5028C10239A4371
:101650000284048C8288038B1A4D2B400D782D0652
:101660002D0C1D4320239C438B891B051E0C4B888E
:1016700026431B051B0C144C3343A04202D0134ECF
:10168000B04219D1124E32400E8AB604360C3243A3
:10169000A04211D18024A343CC892405240C1C43EF
:1016A00040239C438B881B051B0C2343094C224081
:1016B0004C8AA404240C22438280058389688163B8
:1016C000038470BDFF8C0000002C014000400140ED
:1016D000FFFB0000FFF70000028B034B09021A40DA
:1016E0001143018370470000FFF7000030B5028C02
:1016F000124B1A400284058C8288838B104C234045
:101700000C782406240C1C430E4B1D400B7B1B073E
:101710001B0C2B438D782D072D0C1D430A4B984233
:1017200005D10A4B13400A8A9205120C1A43828093
:10173000848389680164058430BD0000FFEF0000E8
:10174000FF8C0000FFDF0000002C0140FFBF000005
:10175000002101804180818081608181C18101827D
:10176000418270474162704710B50288144B98421D
:1017700006D00124A407A04202D0124CA04203D1FB
:101780007024A2434C8822430F4CA04203D00F4C3C
:1017900022400C89224302804A68C2620A8802857C
:1017A000984208D00A4A904205D00A4A904202D094
:1017B000094A904201D1897A01860121818210BDB6
:1017C000002C01400004004000100040FFFC00001D
:1017D0000040014000440140004801400021C9434D
:1017E00041600021018001814180817270470000C9
:1017F00010B5074C00212046FFF794F90C21204634
:10180000FFF712FA01212046FFF78CF910BD000006
:1018100044000240F0B5012106464C0495B0204634
:10182000FFF784FD01212046FFF774FD0221684681
:101830000172002484720125C572032141720420C3
:101840000927FF06019001A93846FFF77CFA01221B
:1018500002213846FFF7AFFA0E960C260F9410942B
:10186000119413940EA92748129600F0B7F801219D
:10187000244800F0A9F80121224800F070F8402126
:10188000204800F065F81C2168460170447085709E
:10189000FFF7EEFC01210846FFF73CFD1A4F3846E2
:1018A000FFF74CF917480794283003901748049025
:1018B0001020059080200890400106960C90099415
:1018C0000A940B9403A90D943846FFF78FF901226F
:1018D00002213846FFF782F901228021094800F0F1
:1018E00048F86803FFF712F900213846FFF71AF9A4
:1018F0000B216846017044708570FFF7B9FC15B084
:10190000F0BD000000440040440002405C040020A0
:1019100070B50D4D0D4C2946204600F039F80028D1
:1019200003D02946204600F015F80821204600F093
:1019300028F8012806D10821204600F009F82046A1
:1019400000F09AF870BD0000050105000044004059
:1019500001627047090C01228A4002627047002927
:10196000016802D00122114301E0490849000160E9
:101970007047002A826801D00A4300E08A438260EF
:1019800070470246D26900200A4200D00120704709
:1019900030B50A04130E01252A4600248A40012B83
:1019A0000ED0022B0ED08368090C1340C0698D4005
:1019B0002840002B02D0002800D00124204630BD52
:1019C0000368F1E74368EFE708220029816801D046
:1019D000114300E0914381607047000030B5044638
:1019E000006889B00D46400840002060606803210F
:1019F00009038843A9680143616020681A49EA68BD
:101A00000840696811432A69024311432160A068B4
:101A100003210902884369690143A1606846FFF711
:101A20009DFC1248844201D1069805E0104884428A
:101A300001D1079800E0029821680904296800D5BF
:101A40004000FEF775FB2A6852088A4200D8401C05
:101A50002168090404D50107064A490F10400843CC
:101A6000A08109B030BD0000F3E9FFFF003801405C
:101A700000440040F0FF0000808CC005C00D70479E
:101A80000146034888600348C86008467047000064
:101A90000AD7A33C249A843D014603488860034842
:101AA000C8600846704700000AD7A33C249A843DCA
:101AB0000021016070472021020C01D01021104646
:101AC000020A01D010460839020901D01046091F48
:101AD000820801D01046891E420801D0881E704736
:101AE000081A7047F0B4040C8BB2264682B25E43EB
:101AF0000D0C1046370C58433604801900217941EB
:101B000016466E43370C36048019794126466E43DB
:101B10008919F0BC704730B47446641E2578641C83
:101B2000AB4200D21D46635D5B00E31830BC184732
:101B30004100080200D004200A0E01D00122104307
:101B4000090EFF2901D102210843012800D10520F7
:101B50007047FF2140000906884201D101207047EB
:101B600000207047FFB581B01C4617460E0007D015
:101B7000019D02E02846B047ED192046641EF9D2C7
:101B8000019805B0F0BD10B50121FEF7D5FB10BDE1
:101B900010B500210846FEF791FB10BD5E2110B57F
:101BA000C9430807FEF7C8FB10BD0000F0B50E469C
:101BB00014465100FF22120687B0914203D311163A
:101BC000316007B0F0BD01202502C0070543E00DDC
:101BD0007838C206D20E2020871A6000000E7838AE
:101BE000401181004D4878440B189C464358002A08
:101BF00014D06046406893400146F8400343604675
:101C0000806891408646F8400143039160467146E2
:101C1000C0689140F84001430F4603E060464168C8
:101C20000391876818462946FFF75CFF02910490EC
:101C300029460398FFF756FF039106903846294638
:101C4000FFF750FF0F460698029B3D18049A039930
:101C5000BD4201D2012700E000278818C019002FDB
:101C600002D0884202D903E0884201D2012100E07B
:101C7000002159180A4620329709C20C89065203DE
:101C800040033760114301900846FEF761FB029064
:101C90000198FEF768FB1221C943FEF74DFB019046
:101CA0002846FEF760FB2521C943FEF745FB00905F
:101CB00001990298FEF76CFA0099FEF769FA012182
:101CC000C9024018050B2D0328460299FEF7B1FA08
:101CD0000199FEF7AEFA0099FEF7AFFA1049FEF748
:101CE000B0FA00900F492846FEF7ABFA0099FEF7CC
:101CF0004FFA00900C492846FEF7A3FA0099FEF728
:101D000047FA002C00DB5CE701210907C91B3160A1
:101D10000121C907484007B0F0BD0000665300002C
:101D2000DB0FC92F22AAFD290000C92F02E008C835
:101D3000121F08C1002AFAD170477047002001E045
:101D400001C1121F002AFBD1704700000149086041
:101D5000704700009C03002010B5032310220B499C
:101D60000B48FFF7FFFE0A480323102209493030D1
:101D7000FFF7F8FE08480021016005480323082208
:101D800006496030FFF7EEFE10BD0000811A000822
:101D900014060020991A0008CC010020B11A00088E
:101DA000F8B5154E7F20C005374600251837B060BE
:101DB00000F028F80024A000395880190F4A02F0DA
:101DC000E0FA641C032CF6DB01F0BCFEFF20F530CA
:101DD0006D1C8542ECDB7F21C905B068FEF729FA4E
:101DE000074D0024B060A0008019294602F0A2FA35
:101DF000641C032CF7DBF8BDA40500201F856B3F96
:101E00000000FA43F0B587B006236A463B216820FC
:101E100002F08AF8009801990002401800B240428E
:101E2000FEF796FA0546029803990002401800B2A0
:101E3000114E4042FEF78CFA0446049805990002C0
:101E4000401800B2FEF784FA01460120C007414065
:101E500045404440B16030C60B270024FF43083E94
:101E6000A50070593946FEF767FA641C7051032CBF
:101E7000F6DB07B0F0BD0000BC05002070B594B0E3
:101E8000402006900320694608770024CC7709207B
:101E900006A9C006FEF757FF01214802FFF752FAD4
:101EA00001210846FFF736FA294808902948099089
:101EB00002200B9080200D9040000E900A9480002C
:101EC0000F90202010900C940002234D119008A92F
:101ED00012942846FEF78AFE1D4E0221403E3046EF
:101EE000FEF770FD01213046FEF762FD6846FEF701
:101EF000A4FD012069460094087104200590029415
:101F000004943046FEF77EFD012107224904304645
:101F1000FEF740FD072240213046FEF73BFD012041
:101F2000FEF794FD3046FEF755FD01213046FEF7E1
:101F300036FD3046FEF77CFD01212846FEF7F2FD16
:101F400006480088FEF70FFA0249486014B070BDD9
:101F5000402401405403002008000240BAF7FF1F4C
:101F600010B50B49002803D0012808D0002010BD6F
:101F70000888FEF7F8F90749FEF763F910BD4888AD
:101F8000FEF7F1F9014602484068FEF797F910BDE7
:101F9000540300203333113CF0B58400304887B03F
:101FA00005597F2168004008C9050290FEF745F9F0
:101FB00006462946FEF745F9294930390968019155
:101FC000FEF73FF9059029460298FEF73AF92449B1
:101FD000203909680091FEF734F907462048083097
:101FE00001592846FEF725F91D490490283909684A
:101FF000FEF727F93146FEF724F91A4909680391DB
:10200000FEF71FF90599FEF7C3F815490646103982
:102010000851083904980968FEF713F90299FEF788
:1020200010F90399FEF70DF93946FEF7B1F80C499E
:102030000839085101463046FEF7AAF8084E103616
:10204000305130460838055100990198FEF7A0F844
:102050000146A01902F06EF9305907B0F0BD00003A
:102060000402002038020020F8B505460C4648005E
:1020700000D1294C01210026C9078D4203D94C40CB
:102080004D408126F605002C09DC204648402C46B0
:102090000546012189073046FEF77AF806462146B3
:1020A0002846FEF7F5F910D821462846FEF7C1F874
:1020B000074621462846FEF76BF804467F213D4639
:1020C000C9053046FEF764F8064621462846FEF765
:1020D000F5F804461149FEF7B4F81149FEF758F82F
:1020E0002146FEF7AEF80F49FEF752F82146FEF7FB
:1020F000A8F804460C493046FEF7A3F82146FEF73F
:1021000047F80A49884202DD0949FEF792F8094971
:10211000FEF797F8F8BD0000567C0A2A4BC887BD29
:102120007EAE36BE42DA833FDB0F493FDB0F4940CC
:10213000DB0FC940E12E654270B5184C206C0028B9
:1021400004D00025012809D0256470BD0120E0627B
:1021500004F0EEF9206C401C206470BD172004F0E0
:1021600086FEC00608D58F21002004F0A5FE256458
:10217000E56202F02FFD70BD01F0E4FC216D401A14
:1021800007498842F7D9E12004F050FE8F21002052
:1021900004F092FE2564E56270BD0000B0000020EE
:1021A0001027000070B5002506462C46A0003058C8
:1021B0000146FEF746F82946FDF7EAFF641CE4B243
:1021C0000546032CF2D3FFF77BF801467F20C005BC
:1021D000FEF774F870BD0000F8B51D4D0C216E6857
:1021E000074632464A431B49184853182A68940048
:1021F0001959002F02D0491C195102E0491E1648F6
:102200001951002E06D1002A01D0012A02D10F490E
:10221000FEF717F80021C943FEF78EF8AE68315972
:10222000FDF7B6FF002800DD30512968002902D1F2
:10223000002800DD706068680C225043054A890060
:1022400080184058002800DA4042F8BDCDCCCC3D83
:102250001C020020C8060020CDCCCCBD30B5002229
:1022600007239C1A6418203C855CE47FA54201D0BA
:10227000002030BD521C072AF3DB012030BD0000D6
:10228000FEB5072004F0F3FD0007400F00260728E5
:1022900001D0022000E030460124714D002870D0AA
:1022A000286900281DD001F04DFC07460F216D481C
:1022B00004F0C7FD00F050FE00285AD0A86C401C66
:1022C000A8646868002801D0FFF736FF6E63AE632C
:1022D00068696F65AF652E632866E86A002846D096
:1022E00047E00F215F4804F0ACFD5E4B1868A4285E
:1022F00001D0A32845D1A32802D15B486C60A86215
:102300005748197E44300170197F4170198C8170D3
:10231000998CC1705549524F8868C9680090012056
:10232000019164378100595C6A4611543A18203A89
:10233000401CD1770628F5DB0621684604F055FDE0
:102340003020694608700621684604F04EFD444876
:1023500069694430415C252004F0AEFD2C61AC601D
:1023600001F0CEF801F0EEFB4149086009E002F00F
:1023700031FCE869401CE861092802DD0A20AC61F3
:10238000E861E86A002801D0FFF7D6FE01F0DAFB29
:10239000696D0746411AA86A82007D20C0001018A6
:1023A00081420BD92869002808D06F65A86B0028E6
:1023B00001D1286E686102F00DFCAC63E96AA86B7C
:1023C000084319D1686B0090052815D228690028A8
:1023D00012D0686D7D21381AC90088420CD9A96ACB
:1023E000FDF7A6FE01460098401C814204D302F08E
:1023F000F1FB686B401C6863A86D391A1D48814267
:1024000006D91D482C63066046608660C66002E0FF
:10241000286B002803D0686A002802D011E06C62A3
:102420000FE0286A1549381A88420AD90C482E61EB
:10243000062175306C6204F0D8FC0021052004F000
:102440003BFD01F07FFBE96D411A0A48814205D945
:10245000A86CAE64E86401F075FBE865FEBD0000A1
:10246000B00000206805002088130000286F0008D5
:102470006800002040420F0038050020C0E1E40061
:1024800000B504F0AFF800BDF0B57F208BB0C005FB
:102490000490FE48807B002802D13F200006049073
:1024A00000252C46FA48AE008059FA4F4200FA49FE
:1024B0005208B8518A4201DCBC510FE00122D20718
:1024C000904204D87F22D2050023009203E0F34A11
:1024D0000023F349009202F025FBB8516D1C032D37
:1024E000E0DB03F037FAEF480068FDF73CFFE94D09
:1024F000074629680498FDF7A4FE3946FDF7A1FEBA
:10250000E94E3146FDF79DFE019069680498FDF79C
:1025100098FE3946FDF795FE3146FDF792FE029092
:10252000E2480068FDF71FFF0746A9680498FDF719
:1025300088FE3946FDF785FE3146FDF782FE0390A1
:10254000DB480C3D0278DB49002AD04ADA4FDB4EEB
:10255000DB48D27845D0002A02D00968002912D081
:102560000199016002994160039900278160D34875
:10257000BE008159D2488059FDF75BFE7F1CA851EF
:10258000032FF4DB44E00021C24804F09BFA0399D6
:102590007868FDF756FE049001213868C907484065
:1025A0000399FDF74EFE05900399B868FDF749FEC3
:1025B00000270690C348BE008159C3488151384660
:1025C000FFF7EAFC04A98959FDF7E2FDBB498959E7
:1025D000FDF72FFE7F1CA851012FEBDDB748816866
:1025E000DAE0002A02D00968002931D0019901609F
:1025F00002994160039900278160B048BE0081596B
:10260000AF488059FDF715FE7F1CA851032FF4DB5E
:1026100003F05EFE002003F043F8012003F040F8D1
:10262000022003F03DF89948A8490278A84BA94830
:102630000127A94E002A7DD0954AD568A74A954220
:1026400002DD0268002A76D009680129FBD086E104
:102650000021904804F036FA974F03997868FDF707
:10266000F0FD049001213868C90748400399FDF73F
:10267000E8FD0590B86803990746FDF7E2FD06906E
:102680009748099097480890974800907F48974945
:10269000027AC079002A7DD0002814D003C94700EF
:1026A000490049087F0838460791FDF7F1FE00D937
:1026B000079F08993846FDF7E1FE16D83846089975
:1026C000FDF7FCFD13E00120C007874237D87D48A5
:1026D00001687D4801600020FFF75EFC0499FDF76A
:1026E00057FD3168FDF7A5FD4DE07F20C00508903E
:1026F00068480099006847007F083846FDF7BEFE2D
:1027000005D838460099FDF7D9FD074601E07F2737
:10271000FF0508990998FDF794FD00907448394623
:10272000FDF78FFD0099FDF733FD0746624881688C
:10273000012001E007E10EE1C007814202D93168C2
:102740000198CFE75F4801685F48016031680198F0
:10275000FDF76FFD3946FDF774FD00907F20394687
:10276000C005FDF766FD07460020FFF715FC04993C
:10277000FDF70EFD3168FDF75CFD3946FDF761FDA3
:102780000099FDF705FD286071680298FDF751FD7D
:10279000686000E005E0B1680698FDF74AFDA860B2
:1027A00036E7002870D07F200027C0050999FDF783
:1027B00040FD0A904D4903C940004D006D08400896
:1027C00006462946FDF764FE00D835462846089996
:1027D000FDF754FE04D828460899FDF76FFD01E087
:1027E0007F20C00507902B48BD0040590099460046
:1027F00076083046FDF742FE05D830460099FDF7D1
:102800005DFD064601E07F26F60507990998FDF76C
:1028100018FD079031460A98FDF713FD0799FDF75B
:10282000B7FC0790244881680120C00781420AD97B
:102830002248415901A84059FDF7FBFC01461548C3
:102840000C3841515DE01F4841591F4841511B4818
:10285000415901A84059FDF7ECFC0799FDF7F1FC3F
:1028600006467F20C0050799FDF7E3FC0790384630
:10287000FFF792FB04A94959FDF78AFC0F49495912
:10288000FDF7D7FC079935E047E000006804002019
:1028900038050020EC0300200AD7233C000080BF4D
:1028A0000AD723BCB002002035FA8E3CB4020020C7
:1028B0009C020020A80100209C010020B0050020FF
:1028C00034070020EC0500200402002074000020E2
:1028D000840000208800002000000020CDCCCC3DEA
:1028E0009A99993E00005C423333733FF80500200B
:1028F0003333333FFDF7A5FC3146FDF749FCFE4974
:1029000048517F1C012F00DC54E7FC488168069881
:10291000FDF78FFCF84988607AE60027F848BE008A
:102920008159F84881513846FFF736FB04A9895987
:10293000FDF72EFCF1498959FDF77BFC7F1CA8515E
:10294000012FEBDD4AE6F04A1C601268012A00D133
:102950000C60F4611FE0ED490978002902D01F6086
:10296000076002E0EA491C600F60F76119680029FE
:1029700011D0380013D0E7492846FDF762FCE6493C
:10298000FDF706FCB061E548854218DDE4480168C2
:10299000002913D013E0E249B4610C6004E0E1497E
:1029A0008D4203DADE48B461046008E02846FDF792
:1029B00040FCDD49FDF745FCB061D9480760DB48C4
:1029C0000079002819D0DA49B461DA4B08689842D6
:1029D00011D2D94A90420EDA486898420BD29042FE
:1029E00009DA8868984206D2904204DAC86800285A
:1029F00001DD904201DBC6480760D048D04900782D
:102A00000968084303D1C448B169814223DA706878
:102A1000002807D001F096F87168401AC949884229
:102A200000D974600025E8B2002103F04DF86D1C58
:102A3000032DF8DDC44D00212A46C44801F0A1FC55
:102A4000C2482A460021001D01F09BFCB46137609A
:102A500034620BB0F0BD0020306001F073F870609C
:102A6000BB480068002802D0BA48C068B061BA48C4
:102A70000024006801283FD1B848BA4D0168B84821
:102A8000814205DAFDF7D5FB2946FDF7DAFB04465E
:102A9000B5480168B548814205DAFDF7CAFB294609
:102AA000FDF7CFFB04467F20C005844201DD0446CC
:102AB00001E0002C07DDAE492046FDF7C2FB71693D
:102AC000FDF766FB03E094497069FDF7B2FB3F2117
:102AD00009067061884201DD716105E00121C907C5
:102AE000884201D90020706120467169FDF750FBD2
:102AF000B169FDF7A2FBB0619E489F4F0068089046
:102B0000002804D10121B868C9074840B860386876
:102B1000009001468D48083880690646FDF789FB1C
:102B200009907D682946FDF784FBBC682146FDF7C6
:102B30002FFB079030460099FDF72AFB06462946F1
:102B4000FDF777FB2146FDF774FB059029460998B0
:102B5000FDF71EFB2146FDF76CFB0690304629462B
:102B6000FDF716FB2146FDF713FB0490089800289B
:102B700003D10120C0074440BC600020401C032852
:102B8000FCDD0020644F044604AE0090A50070599F
:102B90000099FDF77DFC01D27059009070593946BB
:102BA000FDF76CFC00D27759641C042CEEDB7F210E
:102BB000C9050098FDF73DFB3F252D06A84200DD25
:102BC0002846624C083CA168FDF762FC04D26B49C0
:102BD000A068FDF7DDFA03E06949A068FDF729FB6D
:102BE0004D4FA060A84201DDA56003E06549884221
:102BF00000D9A1605548012108388068C90788427A
:102C000000D961484549FDF71CFB00280DDD394618
:102C1000FDF7BEFA07460024A50070593946FDF7B6
:102C200008FB641C7051042CF6DB3D480068012849
:102C30001ED100252C46A700F0592946FDF71EFCA1
:102C400000D2F559641C042CF5DB5048854201D9AB
:102C5000054603E00120C007854209D90024A700EA
:102C6000F0592946FDF7E5FA641CF051042CF6DB17
:102C7000364800210838294F0D467F1E0162AC00FE
:102C800030590121C907884202D90020305104E09F
:102C90007F21C905884200DD31513D483159FDF79A
:102CA000D0FA3946FDF774FA2049305109780029E5
:102CB00004D0EAB20146104602F006FF3059012165
:102CC000C907884202D90020305104E07F21C9059C
:102CD000884200DD315131591C4C083C206AFDF717
:102CE00057FA6D1C2062032DC9DD0121C943206AFA
:102CF000FDF722FB2062ACE6E0030020B0050020D7
:102D0000EC05002004020020C80000209C020020E6
:102D10004800002077BE7F3F6F12833ACDCCCC3D78
:102D200080000020CDCC4C3D9932873F68040020C4
:102D300038050020A4707DBFA4707D3F960200205E
:102D4000E000002040420F00EC51383F0800002016
:102D5000B001002004060020780000203000002090
:102D6000CDCC2C4000004040340000203333534091
:102D700017B7D1387C000020280700200AD7A33BD2
:102D80000AD7233CCDCCCCBD17B7D1B8CDCC4CBEE7
:102D90006666663FF0B5024604464E4B83B040007F
:102DA0006946984209D273210906884202D200205E
:102DB000C04300E00020009030E05000464B400847
:102DC00098426CD245491046FDF73BFAFDF7BCFB33
:102DD0000746FDF7CFFA8007800F0090404938463C
:102DE000FDF72FFA01903F493846FDF72AFA0646CB
:102DF0003D493846FDF725FA05463C493846FDF77A
:102E000020FA2146FDF719FA2946FDF712FA314654
:102E1000FDF70FFA0199FDF70CFA044625467F27C6
:102E2000009CFF05002C3EDBE007314E294608469A
:102E30001BD0FDF706FA07462E49FDF702FA2E4988
:102E4000FDF7FBF93946FDF7FCF92C49FDF7A0F930
:102E50003946FDF7F6F92946FDF7F3F92946FDF75E
:102E600097F9A10718D503B0F0BDFDF7EAF90546BB
:102E70002349FDF7E6F92349FDF78AF92946FDF7CD
:102E8000E0F92149FDF784F92946FDF7DAF93946D9
:102E9000FDF77EF9A107E6D5704003B0F0BD1046FE
:102EA000FEF784FEB9E7FF2168000906884202D2D6
:102EB000384603B0F0BD884206D10120FEF746FF38
:102EC000FEF766FE03B0F0BD2846FEF75CFE03B0D9
:102ED000F0BD0000B61F927E490E494683F9223F9D
:102EE0001A61342C0020A23300A0FD390000C93F34
:102EF00000000080336D4C39DA82083CA0AA2ABE5B
:102F0000B93AB2BACA9F2A3DDDFFFFBEF3B5074604
:102F100081B0102001F0D0FD041E1BD000202071D4
:102F200002986071E4600125A46026467F1C0EE0D3
:102F3000102001F0C1FD00280CD0057102994171EB
:102F4000C6608460B0606D1C0646EDB2E060BD42B4
:102F5000EED32046FEBD0000F8B5664D2868A528D2
:102F60007DD1002108468200AA58401C51180E2825
:102F7000F9DBC8B2A96B8842F2D15E48103002F08A
:102F80007FFB5D4E30605B48183002F079FB70606B
:102F90005848283002F074FBB060288C696A8007BA
:102FA000800D4018FDF7D4F95449FDF74AF954490A
:102FB000F0600978534C00291BD053490978002947
:102FC00004D15249884201DD012000E00020207038
:102FD000287A4107C90FE1724106C90F2173C10761
:102FE000C90FE1708106C90FC0062172C00FE071E0
:102FF00030E04748007800280BD0287B0006C00F3F
:103000002070287A0107C90FC007E170C00FA071B6
:103010000AE0287A0107C90F2170297BC007090639
:10302000C90FA171C00FE070287A8106C90F217203
:10303000C106C90F8007E171C00FA070287B81060F
:10304000C90F4007E172C00FA0726868FA2807D064
:10305000002060702F480078012803D003E046E08C
:103060000120F6E7A071E0782B4D002826D0207AC9
:103070002A4F0028E07904D0002804D1394630686E
:1030800003E000280AD02946306802F04DFD306088
:103090002946706802F048FD706004E039463068E7
:1030A00002F042FD30603946B06802F03DFDB0608C
:1030B0000020064601231A4A1A4D0CE029463068C2
:1030C00002F032FD30602946706802F02DFD70601C
:1030D0001549B068E9E716542F5C215C8F4200D097
:1030E00013542954401C0E28F5DB0120F8BD0020A4
:1030F000F8BD00006805002038050020F7FF7F3A82
:103100009C02002068040020960200200AD7233C7D
:103110009F0200209E020020CDCC4C3FCDCC0C3F26
:1031200058050020480500209A99193F10B5002045
:10313000FFF752F810BD08B5C100081A0090411EF3
:10314000009101D30846FAE708BD000006460024B6
:10315000E0B2002102F0B8FC641C032CF8DD0B4D3A
:10316000AF0000240CE0FF2001F0DBF82846FFF759
:10317000E2FFFF2001F0CCF82846FFF7DCFF641CDB
:10318000B442F0DB3846FFF7D6FFEAE7400D030014
:1031900010B50349FCF7FCFF00F004F810BD000077
:1031A000DB0FC93F70B50446134E144D03E03146A2
:1031B000FCF7EEFF0446AC42F9D8114DAC4204DDF9
:1031C0003146FDF736F80446F8E70120C0070D49FF
:1031D0000D4D8442204605D9FDF733F82946FCF70A
:1031E000D7FF04E0FDF72DF82946FDF726F8214624
:1031F000FDF727F870BD0000DB0FC940DB0F49C0A9
:10320000DB0F49407B81CF3E83F9A23F10B5FDF72C
:1032100079FD0124E4062046FDF716FD0E48FDF772
:1032200013FD042817D0FDF73FFD00212046FDF7D0
:1032300043FD0021A01CFDF73FFD0021201DFDF7EF
:103240003BFD0021A01DFDF737FD00210348FDF7E0
:1032500033FDFDF729FD10BD007C000808000008C3
:10326000FEB500273D460024681CFDF771F801906B
:103270000E49A8000E58601CFDF76AF80090A100E6
:1032800071580198FCF7DDFF0099FCF7DAFF084957
:10329000FCF7D7FF3946FCF77BFF641C0746032C7D
:1032A000E9DB6D1C032DDEDBFEBD00008402002087
:1032B0008D976E3F10B5FFF7D3FF0149086010BD31
:1032C0008C000020F8B50020012400F041FA724D76
:1032D000A8427DD1FF2000F03BFAA84278D12046D9
:1032E000022500F03DFA6D4948600968FDF7C6F80F
:1032F00011D100260024B70028466D1C00F030FADA
:103300006749A200C959641C8850032CF4DB761C61
:10331000032EEFDB00E00B2528466D1C00F020FAA1
:10332000604C206028466D1C00F01AFA6060284648
:103330006D1C00F015FAA06028466D1C00F010FA14
:10334000FDF731F85849086028466D1C00F008FA6E
:10335000FDF729F85549086028466D1C00F0F8F97A
:1033600053490870284600F0F3F9C0B251490024CF
:103370000870272800D90C70262000F0E9F9C0B2A7
:103380004D490128087000D90C70272000F0E0F9A1
:10339000C0B24A490128087000D90C70282000F0FA
:1033A000D7F9C0B246490128087000D90C7029200D
:1033B00000F0CEF9434908702A2000F0C9F94249CB
:1033C00008702B2000F0C4F9404908702C2000E060
:1033D00060E000F0BDF93E4908702D2000F0B8F91A
:1033E0003C4908702F2000F0B3F93B4908703020A9
:1033F00000F0AEF939490870312000F0A9F93849D8
:103400000870342000F0A4F9002203461146CC00D5
:1034100018462041C0B27F2800D90122491C042946
:10342000F5DB002A28D12F49012008602E490860C9
:10343000322000F08DF92D4C2071322000F088F9F7
:103440002B49000A0860332000F082F9024600216F
:10345000CB00104618416054491C0429F8DB342085
:1034600000F076F9234A03460021CC00184620419B
:103470005054491C0429F8DB362000F071F9FCF7A0
:1034800079FF1D490860372000F06AF9FCF772FFE8
:103490001A490860F8BD00000100AA128C00002043
:1034A00084020020A4050020B0020020B402002005
:1034B00091020020920200209E0200209F02002024
:1034C0009C0200209D020020A10200209802002002
:1034D000990200209A0200209B020020A0020020F6
:1034E00090020020B8000020BC0000201401002041
:1034F000B4000020F4000020780000207C000020B0
:10350000F8B500F031F900F011F9002001245F490D
:1035100003F07CFC5E4920460225096800F028F98A
:1035200000260024B7005B48A100C0594158284636
:103530006D1C00F01DF9641C032CF4DB761C032EBB
:10354000EFDB554C28466D1C216800F011F9284628
:103550006D1C616800F00CF928466D1CA16800F034
:1035600007F94E480068FCF7FEFE014628466D1C30
:1035700000F0FEF84A480068FCF7F5FE01462846D0
:103580006D1C00F0F5F8474928466D1C097803F0DA
:103590003DFC45480178284603F038FC4348017853
:1035A000262003F033FC42480178272003F02EFC4C
:1035B00040480178282003F029FC3F480178292061
:1035C00003F024FC3D4801782A2003F01FFC3C480E
:1035D00001782B2003F01AFC3A4801782C2003F0E4
:1035E00015FC394801782D2003F010FC374801788C
:1035F0002F2003F00BFC36480178302003F006FC46
:1036000034480178312003F001FC33480068002879
:103610001FD03348314C0068217900020143322029
:1036200003F0F4FB2046FCF799FD0102E078090A5B
:1036300000060143332003F0E9FB2A48FCF78EFD26
:1036400001022848090AC07800060143342003F02B
:10365000DDFB25487F240068E405002801D02146D1
:1036600000E00021362000F083F8204800680028A0
:1036700001D0214600E00021372000F079F803490D
:10368000FF2003F0C3FB00F05FF8F8BD0100AA12B1
:103690008C00002084020020A4050020B00200203D
:1036A000B402002091020020920200209E0200201D
:1036B0009F0200209C0200209D020020A102002009
:1036C00098020020990200209A0200209B0200200C
:1036D000A002002090020020B80000201401002069
:1036E000B4000020F4000020780000207C000020BE
:1036F000F8B515461C4606460F46FDF7BBF8000F09
:1037000002280BD0002D01D0012000E00020204332
:10371000400005494008081AC00F02D0304639461B
:10372000F8BD28462146F8BD0000F07F10B50548D9
:10373000FDF78AFA042803D0FDF7B6FA012010BD80
:10374000002010BD007C000810B5FDF7ADFA10BDDB
:10375000024980004018006870470000007C0008A3
:1037600000B5FFF7F5FF00BD10B5FDF7CBFA10BDB2
:1037700010B503F04BFB10BDF8B515461C460646C8
:103780000F46FDF777F8000F08280BD0002D01D069
:10379000012000E000202043400005494008081AAD
:1037A000C00F02D030463946F8BD28462146F8BD44
:1037B0000000F07F30B53F4C2178814277D0062160
:1037C0006218203AD27F6254491E0129F8DA20702B
:1037D00039493848FEF742FD7F25002802D0657040
:1037E000032030BD34493348C91DFEF737FD00289A
:1037F00002D06570042030BD2F492E480E31FEF7EF
:103800002DFD002802D06570012030BD2A492948CD
:103810001531FEF723FD002802D06570022030BD6F
:1038200025492448C91FFEF719FD002802D06570FC
:10383000092030BD20491F480E39FEF70FFD002832
:1038400002D065700A2030BD1B491A481539FEF7B1
:1038500005FD002802D065700B2030BD16491548C3
:103860001C31FEF7FBFC002802D06570052030BD3E
:10387000114910482331FEF7F1FC002802D0657091
:10388000062030BD0C490B482A31FEF7E7FC002822
:1038900002D06570072030BD074906483131FEF778
:1038A000DDFC002803D06570082030BDFFE7002054
:1038B000FBE70000A8000020EF6E0008F8B500F05C
:1038C0008FF8040072D001253C4E012C1ED13068C7
:1038D000002834D03A48056000203060FFF710FE21
:1038E000FFF7F0FC002002460C2703467B43354FD0
:1038F0000021DB198F00491CDA510329FADB401C37
:103900000328F1DB00F01EF92F49086002212F4F38
:103910000B2C19D0022C1ED00A2C28D02C48042C99
:103920002DD0032C2FD0072C00DB3560052C2FD099
:10393000062C30D0072C3AD0082C3BD02EE000F0DB
:103940003DF9FEF72DFAC9E7224A11E01060081A86
:1039500038603560E9E7204A1068002805D000206B
:103960001060081A386035601BE00120F8E71B4A38
:103970001068002801D00020E8E70120E6E7057183
:103980000F4805600AE00E490D600021017105E055
:1039900001F004F901E001F0F3F838603068002824
:1039A00004D03868002801D105480560F8BD00F052
:1039B00049FCF2E7FFF7BAFBEFE7000094000020B4
:1039C00048000020C8060020680000204C000020AD
:1039D000680400207C000020B8000020780000204F
:1039E00070B53748374C0068002864D0364B3748EC
:1039F0001A685100490881420BDA9D686D006D0814
:103A0000854206DA5D686D006D08854201DA0020A6
:103A10002FE02F4DAA4202D89E68AE4206D95E68BA
:103A200076007608864201DA012022E0294EB24271
:103A300002DC9A68B24206DD5A685200520882429D
:103A400001DA022015E05A68AA4208D9814206DA52
:103A50009D686D006D08854201DA032009E0B242DD
:103A600008DD814206DA996849004908814201DA95
:103A70000420206000F066F806CC083C914200D09B
:103A8000E060E268801A144A90420FD9002904D1FC
:103A9000124A904201D90C2005E0114A904204D903
:103AA0007F2903D0FF20A06000E0A1606160A068D2
:103AB000FFF780FE70BD7F20A0606060002070BDB9
:103AC000000000209800002038050020CDCC4C3E9E
:103AD000333333BF3333333FA086010060AE0A0077
:103AE00020A1070070B5134C134A606800231349E6
:103AF000904206D90D7D012D03D10D6EAD680D6686
:103B00000B750F4DA84206DD4E7D012E03D10E6EC2
:103B1000F6680E664B750123A84203DA904201D283
:103B20004B750B752068A84203DA904201D28B7561
:103B3000CB7570BD380500209A9919BF90020020FE
:103B40009A99193F00B503F02DF900BD1CB523204B
:103B500001214004FDF7DEFB0120694608710020C9
:103B60008871C87103204871022000900920C006A6
:103B7000FDF7E9F81CBDF0B5012185B04804FDF75B
:103B8000C9FB0120C0020090002468460471012591
:103B9000C571032609274671FF0669463846FDF7B9
:103BA000D2F82803029068460473C573467302A9CD
:103BB0003846FDF7C8F805B0F0BD0000F0B591B08B
:103BC000FFF7C0FF0F9005460B900A900020810080
:103BD000574B0CAA5B58401C53500328F7DB8DE071
:103BE0000A980A95281A099001D101200990062304
:103BF0006A464321682000F097F900980199000275
:103C0000401800B2FCF7A4FB079002980399000249
:103C1000401800B2FCF79CFB06900498059900023E
:103C2000401800B2FCF794FB424E0890307800F048
:103C30001BFB20464049FCF77BFA4048814201D9F2
:103C4000012100E000213068C207D20F914201D06B
:103C5000401C3060374801780907090F00260160D1
:103C6000B4000CAF06A839590059FCF711FC04D276
:103C700038593349FCF78CFA385106A8395900599C
:103C8000FCF7FCFB04D238592D49FCF7D2FA385125
:103C9000E0192C4900F04EFB38592B4940004008F0
:103CA000FCF776FA014606AF385940004008FCF7A9
:103CB000EFFB06D2FFF746FF0B901E480121016083
:103CC0000BE00998FCF74FFB204900F097FB0246F8
:103CD00017483959201800F054FB761C032EBFDB1F
:103CE0007D24E400FFF72EFF401BA04203D20A20F0
:103CF000FFF721FAF6E7FFF725FF05460B982C1A88
:103D00001348844205D20F981249281A884200D2DB
:103D100066E70B98291A0E48814207D20020044A10
:103D200001468300401CD1500328FADB11B0F0BDDE
:103D3000C80500208401002024F40000127A00004D
:103D4000CDCCCC3D000048440000C8420024F448DB
:103D500080841E00C0E1E40010B58AB002206946EC
:103D6000087101208871C8710320164C009020460C
:103D7000FCF7E9FF012200212046FDF71CF8012293
:103D800011462046FDF717F801214805FDF7CEFA48
:103D90001020FDF77FFB0C48029000200F210491BA
:103DA0000390AB21094C059007900691089002A959
:103DB0002046FDF739F801212046FDF71AF80AB030
:103DC00010BD0000001400481808700000540040A6
:103DD000F8B517461E460446012200F03BF80920BC
:103DE000800200906004010C0123F2B25B061248CD
:103DF000FDF752F8114D0020287018E0002408E06B
:103E0000641C600B05D00E490868401C0860002047
:103E1000F8BD04210848FDF700F80028F0D0064856
:103E2000FDF734F829788A00B850491C29702878A1
:103E3000B042E3DB0120F8BD0054004078030020CD
:103E40005C03002008B501236A46FFF7C1FF009814
:103E500008BD0000F7B582B0174600241C4D1D4E6A
:103E600002E0641C600B24D10121C9033046FCF739
:103E7000D4FF0128F5D00120400300900298FAB247
:103E80004004010C00233046FDF706F802E0641CF4
:103E9000600B0ED102213046FCF7BFFF0028F6D0A0
:103EA0000398C1B23046FCF7F4FF08E0641C600BD5
:103EB00005D02868401C2860002005B0F0BD012115
:103EC0003046FCF7AAFF0028F0D00120F5E70000FB
:103ED0005C0300200054004070B515460024022207
:103EE000FFF7B8FFE9B20C4D2846FCF7D2FF07E018
:103EF000641C600B04D009490868401C086070BD50
:103F000040212846FCF789FF0028F1D001212846EE
:103F1000FCF779FF70BD0000005400405C030020F6
:103F200010B5FFF719FF10BD10B5FFF751FF10BD19
:103F300010B5FFF787FF10BD10B5FFF7CDFF10BD1F
:103F4000F0B5A24CA24D91B021682868FCF771F938
:103F5000A04E0746306061686868FCF76AF97060D7
:103F6000A168A868FCF765F9B0603846FCF7B8FFAF
:103F700030607068FCF7F4FF7060B068FDF730F8EF
:103F8000B0609549684602F027FF94480024006815
:103F90000AAF03909248A50040590399FCF751F9E4
:103FA000641C7851032CF5DB0B98FEF7F3FE0390AD
:103FB0000B9802F051FB07900A98FEF7EBFE0D906C
:103FC00001250A98ED07684002F046FB04460C986C
:103FD000FEF7E0FE06900C98684002F03DFB04906E
:103FE00003990698FCF72DF908900D990698FCF7AF
:103FF00028F9074603990498FCF723F905900699D8
:104000000798FCF71EF90E9004990798FCF719F928
:1040100009900D9804996840FCF713F90F90214618
:104020000E98FCF70EF90599FCF7B2F810902146AE
:104030000998FCF706F90899FCF7FFF8069007982D
:104040000D996840FCF7FDF8079021460898FCF7A9
:10405000F8F80999FCF7F1F8054621460598FCF7B0
:10406000F0F80E99FCF794F8049003990D98FCF77A
:10407000E8F82946584D0890A8680590FCF7E1F843
:104080000990686810990390FCF7DBF839460D90A9
:104090002F683846FCF7D5F80D99FCF779F809999F
:1040A000FCF776F8009004990598FCF7CAF804909C
:1040B00006990398FCF7C5F8069038460F99FCF767
:1040C000C0F80699FCF764F80499FCF761F80190D0
:1040D00008990598FCF7B5F8049007990398FCF740
:1040E000B0F8039021463846FCF7ABF80399FCF78B
:1040F0004FF80499FCF74CF802906946284602F004
:104100006BFE3448FEF74EF836497F220968D20527
:10411000002926D03449354B4118994242D20146F4
:1041200000241046FCF7CAF80390A700F159FCF7E9
:1041300088F8641CF051032C01DA0398F5E727484E
:104140003F210906006800F06BF907460024A00033
:10415000315840193A4600F014F9641C032CF6DB80
:1041600020E0014600241046FCF7A8F80390A700C1
:10417000F159FCF766F8641CF051032C01DA03983E
:10418000F5E716483F210906006800F049F907469F
:104190000024A000315840193A4600F0F2F8641C9F
:1041A000032CF6DB1248017A002902D1C0790028DD
:1041B0000AD0A9682868FDF757FF0E4C2060A9684F
:1041C0006868FDF751FF606011B0F0BDA4050020E4
:1041D000BC050020E00500209C01002064000020B8
:1041E000B005002000000020CCCCCCC032337300DE
:1041F00068040020F8050020F8B500260D4FFDF7F3
:1042000001FE0024A5000C4879594059FCF711F82B
:1042100001460A480A4A281800F0B3F8641C032C27
:10422000F0DB7D20C000FEF786FF761C642EE6DB07
:10423000F8BD0000A4050020BC0500209C01002062
:104240009A99593F10B50120FDF7C6FF10BD0EB574
:1042500000226B461A805A8001911A819A7269462F
:10426000FDF782FA0EBD000070B50646FFF76AFC46
:10427000194C21692061451A3046FCF774F817493A
:10428000FBF7DFFF06460121204689070C3000F0CE
:1042900051F82846FCF767F8054630466168FBF799
:1042A000C8FF2946FBF7CDFF0D49FBF7CAFFE168C0
:1042B000FBF76EFF0B49E060884205DDFF2000F050
:1042C00030F87F20C00503E0FF2000F021F8002037
:1042D0006060002070BD0000340100208988883DA6
:1042E0006F12833A48E1FA3E70B50D460446FFF777
:1042F00029FC2146FBF71CFF6C432009814203D9AE
:104300000F2000F00EF870BD0F2000F001F870BD16
:1043100010B5C00704D009200221C006FCF762FDD9
:1043200010BD10B5C00704D009200221C006FCF75B
:104330005BFD10BD70B504460120C0070D46454029
:104340000E462068FCF7A4F800D2266028462168B3
:10435000FCF79EF800D2256070BD1CB50121480411
:10436000FCF7D8FF0220009000206946092408715C
:10437000E4062046FCF7E7FC02212046FCF734FD6A
:104380001CBD70B505460C467F2016461146C0057B
:10439000FBF74FFF2146FBF754FF044631462868E0
:1043A000FBF74FFF2146FBF7F3FE286070BD0000CE
:1043B000F3B5104E104F8C0083B031597869FBF77C
:1043C00040FF019030460C38055938692946FBF703
:1043D00038FF0090B9690398FBF733FF0099FBF7AA
:1043E000D7FE0199FBF725FF314635510C390851AD
:1043F00005B0F0BD640700201C02002010B5FBF7DB
:104400005DFF7F24E4052146FBF717FFA04201DD95
:10441000204610BD0121C9078842FAD9002010BDED
:1044200010B5FBF70EFF7F24E4052146FBF705FFDF
:10443000A04201DD204610BD0121C9078842FAD9FA
:10444000002010BDF8B5164A09018C1805462768EA
:10445000A1686068FBF79CFE0090E168FBF798FE9E
:1044600001467F20C005FBF729FF0099FBF7E9FE15
:10447000064639462846FBF7DCFE3146FBF7E1FEEF
:104480003946FBF785FE05467F203146C005FBF720
:10449000D0FE0099FBF7D5FE256060602846F8BD88
:1044A00014060020F8B5164A09018C18054627683D
:1044B000A1686068FBF76CFE0090E168FBF768FE9E
:1044C00001467F20C005FBF7F9FE0099FBF7B9FE16
:1044D000064639462846FBF7ACFE3146FBF7B1FEEF
:1044E0003946FBF755FE05467F203146C005FBF7F0
:1044F000A0FE0099FBF7A5FE256060602846F8BD88
:10450000440600201CB57D24E4002046FEF713FE7F
:10451000FC4A9169012739439161FB4801681022E7
:10452000114301602046FEF706FEFFF724FBF74823
:10453000FEF701FE0925ED06F9022846FCF74BFCC3
:10454000002805D039032846FCF745FC00280BD18C
:10455000FEF75CFE7D20C000FEF7EDFDEC484168F3
:10456000006880F308888847FDF78AFF02F048FB5F
:1045700002212846FCF72FFC0025002803D1E5483E
:104580000560FEF7BDFFFFF7E1FAFF20FFF7C9FE68
:1045900002F00CFA02F0F0FB00F02CFB4B20800143
:1045A000FDF738F9D948FEF7C6FDFFF7B9FC01F071
:1045B0000FFA0021084601F087FA0021012001F0DE
:1045C00083FA0021032001F07FFA0021022001F08C
:1045D0007BFA02F015F902F001F9002858D0FDF736
:1045E0004DFCCD488773FEF765FEFEF76BFE01F0CC
:1045F0000FFFCB48C9490026C163C74CAA200C3C19
:104600002070552060700720A0700120E070C54820
:104610000521007820712046FCF726FA6071A5710B
:10462000E57125726572A572E572FDF7E1F8BE4885
:10463000761C8642E1DBBA4E00240020FDF790FC98
:104640007169FBF7FEFD07460120FDF789FC014675
:10465000B348B64A1430FFF794FEB148B34A39461E
:104660000C30FFF78EFEB048641C8442E5DBB04F8F
:10467000F068062401902046FBF76AFE0146009090
:104680000198FBF71BFEB84204DD0098306204E09D
:10469000042039E0641E002CEDDC316A0198FBF740
:1046A0000DFEA449884201DA02202DE0FCF704FC4B
:1046B000FFF784FA01F000FBFFF79EFD9E480068BB
:1046C000002801D007201FE0FFF73CFA7064FFF7D5
:1046D00039FA934C0646606C301AFBF744FE2064AE
:1046E000002802DC7F20C00520649449FBF7A9FD67
:1046F00093492064884201DD062005E08E48666407
:104700000068142802DD0820FEF720FD02F0B6F84C
:10471000FDF7BAFEFFF714FC0020FDF721FC804CEA
:104720006169FBF78EFD07460120FDF719FC014684
:1047300020467E4A1430FFF724FE82487B4A0168F7
:1047400020461830FFF71DFE7F49206AFBF779FDF0
:1047500000907E4A6846E168FFF713FE2046734AE0
:1047600039460C30FFF70DFE0121C9430098FBF7D5
:10477000E3FD07467649E068FBF763FD3946FBF742
:1047800058FDA0640746A469724884425DDD644810
:10479000006B0190FBF7DCFD6E49FBF752FD2146F3
:1047A000FBF74FFD3946FBF7F3FC019907468C00F8
:1047B0005949703108515A48806B002808D00020B0
:1047C000574B30398200401C8F500C28FADB9D6318
:1047D0005148614910300059FBF733FD01904E48B4
:1047E000403001593846FBF724FD0199FBF7D0FC16
:1047F000494940310F51303908510146FBF721FD3D
:10480000454F0146A037E019544AFFF7BAFD444826
:104810004349006B401C08630C2816DB08460563FF
:104820003968002401913C48A700A030C059019983
:10483000FBF724FE06D23848A030C0590190384812
:10484000611C4163641C0C2CEDDB354CE0690028D5
:1048500002D04048E06400E0E5644149E06CFBF7C9
:1048600097FC0746606BFBF773FD3A49FBF7E9FCE1
:10487000A169FBF7E6FCA16CFBF78AFC3946FBF764
:10488000FDFD03D33749E068884202DA0120E06188
:1048900000E0E561606BFBF75BFD2E49FBF7D1FCA7
:1048A000A169FBF7CEFCA16CFBF772FC20612E48DE
:1048B0000068002805D02D480078002801D1FEF7B7
:1048C000FDFF1748C069002801D0082108E02848EA
:1048D0000068002806D027480068002804D00F216F
:1048E00025485BE00C2158E00B488079002845D032
:1048F00000270B4C606A002853D0E06A00283FD0A4
:1049000041E000000010024000000140A0860100CC
:1049100000C4FF1FB80000206804002081220008A6
:10492000240000209202002088130000492E7F3FBF
:10493000CDCC6C40333353405C030020BD3786350B
:104940000AD7A33C200000206666864029EA7F3F04
:104950000000A03FCDCCCC3D42F27C3F67B17F3F11
:10496000CDCC4C40CDCC2C40000000209602002045
:10497000C0000020E000002020A107000127B8E7C8
:10498000FFF7E0F8E062FFF7DDF8E16A411A41481D
:10499000814201D96562E56208213F48FFF7A4FC26
:1049A0002DE03E48806A002820D0FFF7CBF804466F
:1049B0003A48C06A00280AD13848002FC46203D0A0
:1049C000FF20FFF7A5FC02E0FF20FFF7AAFC334819
:1049D000C16A621A2F498A4203D9816AC562491E97
:1049E0008162C06A2E49201A884208D9002F03D05C
:1049F000FF20FFF796FC02E0FF20FFF789FC01F0A3
:104A000049FA01F0F7F8254CE06B804760682549CA
:104A1000401C6060E068FBF714FCFBF7ABFCA06097
:104A200000F01AF920480078002803D01F480078C9
:104A300000280AD01E48007A20707D24E400FFF789
:104A400081F8801BA042FAD341E619482178007A08
:104A50008842F2D0174920700878401CC0B2087014
:104A60000F2801D908200870114CAA200C3C207096
:104A7000552060700720A0700120E0700878207138
:104A800005212046FBF7F0FF6071A571FCF7B0FE31
:104A9000D3E7000020A10700A08601002400002029
:104AA000E09304000000C8429C020020960200200F
:104AB0006804002092020020F0B50B30C108C90044
:104AC000144F0026144A0FE003688B420BD38B422D
:104AD00005D95C1A4318456830C3083B00E04368B9
:104AE000136002C004E0021D10680028ECD13046BB
:104AF000002803D13868002801D00020F0BD064A04
:104B000006481060064A121AD208D20044C001209A
:104B10003860D7E79803002094030020FC070020AA
:104B2000F80B0020FFB581B007460E4610460A9DDF
:104B3000FBF77FFB044628460499FBF77AFB054602
:104B400031463846FBF775FB2946FBF77AFB2146D1
:104B5000FBF7B4FB0499FBF71BFB05B0F0BD0000AD
:104B600010B506490868002807D000200860091D14
:104B700008710920C006FCF7E6F810BD60030020AC
:104B800005490868022804D001DA02200860401CA8
:104B900070470020FAE700001C0200200C4948681A
:104BA000002804D0012807D002280AD10BE00848C9
:104BB00044308860012003E00548503088600220BE
:104BC0004860401C70470248383088600020F7E792
:104BD0001C02002010B50649087D401C8007800F8C
:104BE00048614431095C252002F066F910BD0000DF
:104BF000B000002010B500210720FEF787F9154C02
:104C00000121A062E0620920FEF780F92063606361
:104C100002210420FEF77AF9A063E063032100205B
:104C2000FEF774F92064606404210320FEF76EF936
:104C3000A064E06405210420FEF768F92065606542
:104C400006210320FEF762F9A065E065A06A2066F0
:104C500010BD000090020020F8B5F94DF949A8698F
:104C600001260024884204DA401CA8610620A871AD
:104C700004E0E879002801D1EE71AC71A879F24F17
:104C80000300FCF748FF0805F6F4F3F2F1F0EF70CB
:104C9000EB48017BED480029C26829C864D0EC4983
:104CA0008D4237D9EB498A4234DABB4232DDEA4AD7
:104CB00090422FD288422DDAE14AE84D96710020C9
:104CC00081006B58116B401C0B608968C0B2116386
:104CD0000328F5D3E24D002081006B58116B401C76
:104CE0000B608968C0B211630328F5D3DD4D002045
:104CF00081006B58116B401C0B608968C0B2116356
:104D00000328F5D3506B1063D06B906390781071CB
:104D10005078D070D44E3068C82824D3C84B0F21A7
:104D20009A79D24812011143D14D0170297841700E
:104D3000D049847009880A0AC2700171597C417196
:104D4000E9788171C471047244728472C472002162
:104D5000435CC27A491CD218C9B2C2720B29F7D37C
:104D6000FCF746FD3460F8BDC1490978002949D1F6
:104D7000B7498D4246D9B74DAA4243DDBE498A4262
:104D800040DABB423EDDB44988423BD2A84239DA20
:104D9000AB49B24D8E7100208200AB580A6B401CAB
:104DA00013609268C0B20A630328F5D3AC4D0020AB
:104DB0008200AB580A6B401C13609268C0B20A6351
:104DC0000328F5D3A74D00208200AB580A6B401C86
:104DD00013609268C0B20A630328F5D3984D00208F
:104DE0001C352B5C8A6B401C13709268C0B28A63BE
:104DF0000428F6D3486B0863C86B88638878087109
:104E00004878C870984D2868C828ACD38C4E0F21BC
:104E1000B279964812011143017095490A7842709F
:104E2000944A84701288130AC3700271727C4271B2
:104E30000A7ACB7952009B00C9781A430A438271DF
:104E4000C471047244728472C4720021435CC27AD9
:104E5000491CD218C9B2C2720B29F7D3FCF7C8FC9F
:104E60002C60F8BD95E3EDE248E2E8E189E172E00B
:104E7000FFE7FEF737FE75480068B84248DDA87DB9
:104E8000012845D1286E00790300FCF744FE08058F
:104E9000090E12161A1E3B40686B2866022002E0BB
:104EA000E86B28660320A87131E0686C286604204E
:104EB000F9E7E86C28660520F5E7686D28660620A6
:104EC000F1E7E86D28660720EDE7AC71E86A28662F
:104ED0002C756C75FEF714FBFEF7F4F9674E002194
:104EE0000C230A4600205A4392198300401CD450D8
:104EF0000328FADB491C0329F2DBFEF723FE604995
:104F0000086004E0AC71E86A28662C756C75AC75B5
:104F1000554E3068C828A4D3AA790F2053491201EE
:104F200010430870286E00794870A87C8870E87C6F
:104F3000C8700C714C718C71CC710C724C728C728B
:104F4000CC7200200B5CCA7A401CD218C0B2CA7264
:104F50000B28F7D304E7FEF7C5FD3C480068B842CC
:104F600033DDA87D012830D12F6E3879092826D26B
:104F700044493868FBF70CF93860686B2863374A96
:104F80000020296B86000B6893518968401C2963B7
:104F90000328F6DB324A002086000B6893518968AB
:104FA000401C29630328F7DB2E4A002086000B688B
:104FB00093518968401C29630328F7DB04E0AE7134
:104FC000686B2863E86A2866AC7520480168204849
:104FD000814230D9E87D01282DD12E6E3079092803
:104FE00028D228493068FBF724F93060002800DC1B
:104FF0003460686B2863194A0020296B86000B68AF
:1050000093518968401C29630328F6DB144A002069
:1050100086000B6893518968401C29630328F7DBDD
:10502000104A002086000B6893518968401C296350
:105030000328F7DBEC750C4F3868C82824D210E73A
:10504000900200204A0600009A99193F3805002076
:105050009A9919BF9A99993E9A9999BE540200203B
:10506000600200206C020020280000205C04002068
:10507000680400202C0000203333333FC806002092
:10508000680000200AD7233CA9790F200901FA4EB5
:1050900008433070286EF94D00797070F84928681F
:1050A000FBF7CFF8FBF7D6F901F064F9FBF7B4F999
:1050B000B070F3496868FBF7C4F8FBF7CBF901F06F
:1050C00059F9FBF7A9F9F070ED49A868FBF7B9F8B1
:1050D000FBF7C0F901F04EF9FBF79EF9E94D30718D
:1050E000E7492868FBF7ADF8FBF7B4F901F042F99E
:1050F000FBF792F97071E2496868FBF7A2F8FBF7D9
:10510000A9F901F037F9FBF787F9B071DC49A86814
:10511000FBF797F8FBF79EF901F02CF9FBF77CF908
:10512000D94DF071D6492868FBF78BF8FBF792F957
:1051300001F020F9FBF770F93072D1496868FBF78C
:1051400080F8FBF787F901F015F9FBF765F9707244
:10515000CB49A868FBF775F8FBF77CF901F00AF971
:10516000FBF75AF9B072F4720020325CF17A401CFD
:105170008918C0B2F1720B28F7D3FCF739FB3C60F9
:105180006FE6FEF7AFFCC1480068B84212DDA87DAB
:1051900001280FD1286E0079002830D0012836D0A0
:1051A00002283CD0032842D0AE71E86BA863E86ABD
:1051B0002866AC75B64E3068C828E1D3AA790F20AE
:1051C000AD49120110430870286E00794870287BA1
:1051D0008870687BC870A87B0871E87B48718C7107
:1051E000CC710C724C728C72CC7200200B5CCA7A3F
:1051F000401CD218C0B2CA720B28F7D3B0E5287B86
:10520000002802D000202873D3E70120FBE7687B49
:10521000401CC0B268730128CBD96C73C9E7A87B66
:10522000002802D00020A873C3E70120FBE7E87B39
:10523000002802D00020E873BBE70120FBE7FEF75F
:1052400051FC924B1868B8420ADDA97D012907D1AB
:105250009049C978002902D0AE71E96A2966AC7517
:105260008B4F3968C8298BD3AA790F21824E12013E
:1052700011433170296E1D46097971708049FAF722
:10528000E0FFFBF7E7F801F075F8FBF7C5F8B07041
:105290007B496868FAF7D5FFFBF7DCF801F06AF89C
:1052A000FBF7BAF8F0707649A868FAF7CAFFFBF77F
:1052B000D1F801F05FF8FBF7AFF830717049E8689A
:1052C000FAF7BFFFFBF7C6F801F054F8FBF7A4F8B4
:1052D000707170480178B171C178F171017A3172E1
:1052E000C0797072B472F4720020325CF17A401CA2
:1052F0008918C0B2F1720B28F7D33EE7FEF7F2FB34
:1053000062480068B84261DDA87D01285ED1286E40
:105310000079002806D001280DD0022815D00328D6
:1053200053D14FE02879401CC0B22871272800D9FA
:105330002C716E7149E0E878401CC0B2E870012819
:1053400000D9EC70022068713FE06879022816D11C
:10535000E9786970484F6C71AA20387055207870D0
:105360000520B870FE70397101463846FBF77CFBAA
:105370007871BC71FC713C727C72BC72FC72687991
:10538000012816D12879A8703B4F6C71AA21397079
:10539000552179700721B970FE70387105213846A2
:1053A000FBF762FB7871BC71FC713C727C72BC7261
:1053B000FC72FEF7A5F8FEF7C5FB37490860FCF75D
:1053C00017FA02E0AE71E86A2866AC752F480168EA
:1053D0003248814210D9E87D01280DD1286E00792C
:1053E000002808D12879002801D128202871C0B2CE
:1053F000401E28716E71EC75254E3068C82800D2A9
:105400002FE5AA790F201C49120110430870286E5D
:1054100000794870A87888706878C8700C7128790D
:105420004871E8788871CC710C724C728C72CC72B5
:1054300000200B5CCA7A401CD218C0B2CA720B287A
:10544000F7D38DE4FEF74EFB10480068B84246DD06
:10545000A97D012943D1296E09790B00FCF75BFB7B
:105460000504202830393E00297A491CC9B2297226
:10547000202933D92C7231E05C0400205402002032
:105480000000C842600200206C02002038050020A5
:105490002800002068040020680000209A9919BFA5
:1054A000697A491CC9B26972202917D96C7215E052
:1054B000A97A491CC9B2A97220290FD9AC720DE092
:1054C000297C491CC9B22974282907D91C212974AF
:1054D00004E0AE71696D2965E96A2966AC756449B5
:1054E00088422FD9E87D01282CD1286E202100790F
:1054F000002806D001280CD0022812D0032820D181
:1055000017E0287A002802D0401E287219E029727C
:1055100017E0687A002802D0401E687211E06972B4
:105520000FE0A87A002802D0401EA87209E0A972F4
:1055300007E0287C401EC0B228741C2801D2282015
:105540002874EC754B4E3068C82800D289E4AA79DB
:105550000F204949120110430870286E00794870E5
:10556000287A8870687AC870A87A08714C71E87ACD
:105570008871287CC8710C724C728C72CC720020BD
:105580000B5CCA7A401CD218C0B2CA720B28F7D37F
:10559000E0E4FEF7A7FA39480168B94223DDA87DA7
:1055A000012820D1286E0079002806D0012808D0D3
:1055B00002280AD0032815D10FE0286A0A30286291
:1055C00010E0686A0A3068620CE02878002802D08F
:1055D0000020287006E00120FBE7AE71E86DA865A9
:1055E000E86A2866AC752248814219D9E87D01280D
:1055F00016D1286E0079002804D0012806D0022890
:105600000DD107E0286A0A38286208E0686A0A387B
:10561000686204E02878002828D000202870EC7503
:10562000144E3068C82891D3AA790F20124912016C
:1056300010430870286E00794870288C020A8A701E
:10564000C870A88C020A0A71487128788871CC71D8
:105650000C724C728C72CC7200200B5CCA7A401CAB
:10566000D218C0B2CA720B28F7D373E40120D5E771
:105670009A9919BF280000205C04002038050020FA
:1056800010B5416800788007800DFF38FF38023878
:105690000818FAF75DFE0821C943FAF74DFE10BD60
:1056A000F0B506469D4A9F48D3789D4900689E4FB5
:1056B000B4008FB0002B02D0127A002A11D000283B
:1056C00003D03859FAF7BDFD3851022E19DA964940
:1056D00018310859C207401CD20F0851002A07D0C0
:1056E0000FE00028EDD1914800680028E9D0ECE7F0
:1056F0008D4831464830005901F0C4F98A490C31CF
:1057000008518B480025015987483C300059FAF769
:10571000B5FE04D187480059002800DD01258448E2
:1057200001210059C90748407F493C310959FAF71E
:10573000A5FE06D17F4801590120C007814200D94A
:105740000125022E0BDA78480C3001593C30005903
:10575000FAF76FFD400078494008884228DC002DA8
:1057600026D171480221543000590090FAF7E4FD27
:105770006D4960310959FAF70BFD6E490D592946FB
:10578000FAF706FD6D49FAF75CFD6D490959FAF71C
:1057900058FD6C490968FAF754FD3959FAF7F8FCD5
:1057A0006149385160310098085108460C3805515C
:1057B0005F480C3001595C482018FEF7BBFD60487B
:1057C000183007595B4839460059FAF73AFD5C49E9
:1057D0000C3909590091FAF734FD534D7F2101909E
:1057E0003C35C9053846FAF724FD0099FAF729FD3A
:1057F000554909590391FAF724FD0199FAF7C8FCB4
:1058000049490959FAF7C4FC28514D480C30005950
:105810000290002801DC285972E04C480AA902785D
:1058200007A8002A06D0464A243A12590251444A8F
:10583000183A05E03C4A603A125902513A4A543A41
:1058400012590A5100597F22D205009090420859FE
:105850000190014604AF104608DAFAF7EAFC0D9011
:105860003B4801990059400040080BE0FAF7E1FC81
:105870000D9000990198FAF721FD0146344800592E
:1058800040004008FAF7DDFC0D99FAF781FC385129
:105890002548243001590398FAF7CBFC0299FAF70E
:1058A000D0FC27494439C9690D91FAF7CAFC0E901A
:1058B0001D48303001591830025901921046FAF74C
:1058C000B8FC0299FAF7BDFC0099FAF7BAFC39590D
:1058D000FAF7B7FC0D99FAF7B4FC0E99FAF7A9FCA0
:1058E0001149019A30310A510F4A0399243211515A
:1058F0003146FEF75DFD01462859FAF749FC28516B
:105900000F494439C968FAF79CFC285108480159E5
:105910006019FEF70FFD28590FB0F0BD6804002094
:1059200048E17A3F00000020EC06002080000020C3
:10593000386F0008E0030020CDCCCC3D7EAA2A3E83
:105940006002002064000020B005002090020020CA
:10595000EC030020F8B5144801681448FAF7AEFCCF
:10596000134CE0611348016813480068FAF7A6FC7D
:105970007F25124EED053346114A12490095FFF777
:10598000D1F8E060B04201DDE66002E0A84200DA52
:10599000E5600D48C078002804D00C49E068FAF7AB
:1059A00050FCE060F8BD00006400002017B7513BD8
:1059B0001C0200204400002030000020713DAA3F5E
:1059C0006666764000002040680400206666663FF8
:1059D000FEB5022569460D710320487100248C71C3
:1059E000CC7101210846FBF7A1FC334F6E07394605
:1059F0003046FEF72CFC01210220FBF797FC3946CC
:105A00002E4F3846FEF723FC2D48602101800121EE
:105A10004180848109020182846080200924E40697
:105A2000009069462046FBF78EF9012207212046A7
:105A3000FBF7C1F922493846FBF706FEA8030090A0
:105A400069462046FBF77FF902220F212046FBF72B
:105A5000B2F91B493046FBF7B3FD1A4C69462046A4
:105A60000095FBF770F9012211462046FBF7A3F9D8
:105A700013493846FBF73AFE082000906946204655
:105A8000FBF761F9022203212046FBF794F90C4948
:105A90003046FBF7D9FD01213046FBF772FD0121AD
:105AA0003046FBF778FD01213846FBF76AFD0121FE
:105AB0003846FBF770FDFEBDCF0700000004004034
:105AC000700700200004004810B50A460446134938
:105AD0001046FAF7B6FBFAF74DFC002801DA002071
