:020000040800F2
:1000000008100020D9000008FF000008ED0D0008CE
:1000100000000000000000000000000000000000E0
:1000200000000000000000000000000003010008C4
:100030000000000000000000050100080D15000888
:100040000901000809010008090100080901000868
:100050000901000809010008090100080901000858
:100060000901000809010008990A0008F50A0008BA
:100070000901000809010008090100080901000838
:10008000090100080000000000000000090100084C
:10009000000000000901000809010008090100082A
:1000A000000000000901000809010008090100081A
:1000B00011190008000000000901000809010008EA
:1000C0000448854600F006FC00F052F8004800475E
:1000D00039450008081000200C4880F308880C48B7
:1000E0000168090E0B4A914205D10B480B4901608A
:1000F0000B480C4901600C4880470C480047FEE75C
:10010000FEE7FEE7FEE7FEE7FEE70000081000203E
:10011000040000001F000000181002400100000051
:10012000000001400000000011150008C100000897
:1001300030B50B46014600202022012409E00D467F
:10014000D5409D4205D31D469540491B2546954007
:1001500040191546521E002DF1DC30BD0321001D53
:10016000401E037812021A43491EF9D51046704703
:1001700070B5054C054D03E0206800198047241D2B
:10018000AC42F9D170BD0000987000089C70000866
:10019000F8B502464A40D40F42004B0052085B08B3
:1001A0009A4202D20246084611464A0023D0C30DA5
:1001B0004A00DDB2120EAD1A202D35DA49020126B1
:1001C000490AF6058A19002C00D0524220214F1B03
:1001D0001146B9402A411018C20D9A4221D0002C74
:1001E00017D0012D08DCDA05801AD20F8019D2074A
:1001F000DBB200F070F9F8BDDA05801A0123400087
:100200001B06C01880185A428018CA0F10434900B4
:1002100007E04908C2071143DA05801A801940082F
:10022000801800F050F9F8BD61000122511A001B3E
:10023000F7E70122D2075140AAE70122D207504036
:10024000A6E7024670B54A40D30FDB0740002DD029
:100250004A002AD0010E140E000212020919400AA7
:10026000520A8418E50104465443000A120A2E0477
:100270005043A4194219200CC543AA18120C012599
:10028000AD03521C521912047F39240400D0521CB1
:10029000104301D44000491EC2B20C06C009201808
:1002A000401C4008802A02D003E0002070BD4008B6
:1002B0004000002900DA0020184370BD70B50246E6
:1002C0004A40D50F40004A00ED0740085208002878
:1002D00014D0002A12D0C40DD30D41020120C00554
:1002E0005202490A520AE41A091812187D3491423E
:1002F00001D3641C00E04900002C01DA002070BD2D
:100300000023914201D3891A034340084900002881
:10031000F7D100290AD0914202D10121C90705E095
:10032000914201D2012101E00121C943E005C01839
:10033000401900F0C8F870BD420005D04200120E0E
:1003400052428A4201DB00207047C90508187047F5
:10035000C217C10F504010B54018CA07962300219C
:1003600000F0B9F810BD10B500229623114600F038
:10037000B2F810BDC20F410040020123400ADB0564
:10038000D207090EC0187F2901DA0020704796298C
:1003900003DC9623591AC84001E096398840002AA8
:1003A000F4D040427047410040020122400AD20589
:1003B000090E80187F2901DA00207047962903DC96
:1003C0009622511AC84070479639884070470000FD
:1003D00070B5CD0F4A0009030123090B1B05194312
:1003E0000B4BED070024520D9A4201DA002070BD3C
:1003F000074B34339A4203DC9A1A00F053F802E0B8
:100400000449511888402C43F1D0404270BD00008F
:10041000FF030000CDFBFFFF4A0009030123090B86
:100420001B051943094B10B5520D9A4201DA002001
:1004300010BD064B34339A4203DC9A1A00F032F8AE
:1004400010BD03495118884010BD0000FF03000093
:10045000CDFBFFFFC20FD207400040080BD0C10DFB
:100460000723DB01C91840020905400A1143C208ED
:100470004007114370470020014670470122D20710
:10048000002800DB101A002900DB511A8142704756
:100490000122D207002800DB101A002900DB511AC4
:1004A0008842704710B5202A04DB0846203AD04025
:1004B000002110BD0B46D340D0402024A21A914009
:1004C0000843194610BD002904DA401C490001D137
:1004D00040084000704770B40024050C05D110247A
:1004E000000402D1002921D01124050E01D10002FF
:1004F0000834050F01D10001241D850F01D18000B2
:10050000A41C002801DB4000641C002908D0202521
:100510002E1B0D46F540A14000D001212943084380
:1005200001061B1B000ADB1D02D5002070BC7047B2
:10053000DB05181880180029F8DA401C4900F5D1AD
:1005400070BC40084000704710B541000DD041001C
:10055000090E962909DC7E290ADC07DB410205D059
:10056000C00F7F21C007C905401810BD002010BD75
:100570009622541A20210A1B01469140E040FFF7C1
:10058000A2FFA04010BD10B5002B08DA0024401CCB
:10059000614192185B411A4301D14008400010BDEF
:1005A000F0B51FB482B005460C0003D0084601F038
:1005B00082FA02E001F07FFA2030024600902146E4
:1005C000284600F099F9049B059A04460F46184303
:1005D0001143084314D0184610431BD00098402103
:1005E0000A1A18460599FFF75DFF05460E46009A60
:1005F0000599049800F080F9084305D0012004E033
:100600002046394607B0F0BD0020C11705430E4310
:100610002C43374300990E986305401A7905E40A84
:1006200000220C43FD0A0A3002D500200146E9E70A
:100630000105101969410C9C0D9D00196941FFF7D6
:10064000A2FFDFE7F0B507460846584087B0C00F65
:10065000049048000E46590040084908BC1A8841D9
:1006600005D2384631461E4617460B46024658000C
:10067000400810434CD0300D039040055900400D08
:10068000490D0590401A0290402872DA18030121A2
:10069000000B09050843019004980092002805D03A
:1006A0000199524200208841009201900298402115
:1006B0000A1A0199009800F01FF905460C466B468E
:1006C00007CB00F029F9C0197141039A0E0D0023E0
:1006D000D71756401A467A40164344D0049A002A47
:1006E0002DD0029A012A039A15DC1205C01A9141F5
:1006F00001263605001C7141D20F059ED2070093DA
:10070000019202962A462346FFF74AFF07B0F0BD42
:1007100038463146FAE71605224A0F46B218C01A83
:10072000B74101210905001C4F4100187F411146C6
:1007300018187941E20F10436D19644113E0E20784
:100740006D0815436408C2071443039A0126120575
:10075000C01A91413605001C7141CE074008304354
:100760004908C01851412A462346FFF70CFFCDE740
:10077000FFE7049801224000C117121A00238B41A1
:1007800004983146C417381AA141EEE730B4012469
:10079000E407634030BC55E730B40124E40761400E
:1007A00030BC4FE70000E0FFF8B5054648004008C0
:1007B0000C46284304D06000184A400D904201DDE9
:1007C0002846F8BD15493539884210DC88420BDBD4
:1007D000290D200308432903014305D0E00F1049E8
:1007E000C00741180020F8BD00200146F8BD161AC8
:1007F0004020821B2846214600F07EF807460091E3
:10080000284621463246FFF74DFE3A46009BFFF749
:10081000BAFE324600F070F8F8BD00003304000064
:100820000000F03F10B5002904DB0124E40740423A
:100830008C412146002B04DB1C460123DB0752427E
:10084000A3418B4200D1824210BD000010B50029A7
:1008500004DB0124E40740428C412146002B04DBE9
:100860001C460123DB075242A341994200D190422A
:1008700010BD000030B50446CD0FED070020054344
:1008800004D10D460121C9076442A941DD0FED07DE
:10089000284304D118460123DB07524283411846FE
:1008A000151B884101D2094806E00120400762403B
:1008B0004B401A4300D10648EFF300810902090AB0
:1008C000020E1206114381F3008830BD0000008043
:1008D00000000060064C0125064E05E0E36807CCE9
:1008E0002B430C3C98471034B442F7D3FFF7ECFB92
:1008F000787000089870000810B5202A04DB0146C3
:10090000203A9140002010BD914020239C1A0346BC
:10091000E3401943904010BD10B5202A06DBCB17E9
:100920000846203A1041C1170B4306E00B4613411D
:10093000D0402024A21A91400843194610BD70B53A
:100940008C180578401C6B075B0F01D10378401CA5
:100950002A1106D10278401C03E006780E70401C74
:10096000491C5B1EF9D12B0705D40023521E0DD460
:100970000B70491CFAE70378401CCB1A921C03E069
:100980001D780D70491C5B1C521EF9D5A142D8D3AD
:10099000002070BD836A0B43836242617047002967
:1009A000816801D0012200E002221143816070477A
:1009B0000029C16802D00122114301E04908490021
:1009C000C1607047C26802239A43C260C2680A438A
:1009D000C2607047826800210123DB071A438260EE
:1009E0000F231B038268491CD20FD207994201D002
:1009F000002AF7D18168002901DB006C70470020D4
:100A00007047000030B5C268084B8C681A400B680C
:100A10000D792343CC686D032C4323430C6949694A
:100A200023430B431343C36030BD000003D2FFFFD9
:100A300081680422114381607047002101600171C7
:100A40008160C16001614161704700000122054978
:100A500092050028886801D0104300E09043886028
:100A6000704700000027014070B50546002003468E
:100A7000D5240DE0EA5C50400022060602D5400075
:100A8000604000E04000521CC0B2082AF5DB5B1C4D
:100A90008B42EFDB70BD000010B50021124800F062
:100AA00041F8114800213C3800F03CF80E48002184
:100AB000283800F037F80D4C0721002209022046A3
:100AC00000F075FD601500F027F80021204600F0C9
:100AD00058FD074C6068022803D10120606005F0D2
:100AE000E3F80020606010BD58000240002C014077
:100AF0008C03002010B501246403204600F064F844
:100B0000012802D1204600F001F810BD01494860DB
:100B10007047000000000240014948607047000033
:100B2000000002400029016802D00122114301E0C7
:100B3000014A114001607047FEFF00000168204A31
:100B4000114001600021016041608160C1601D4968
:100B50001C4A0839904202D148680F2205E0194A20
:100B60001432904204D14868F02210434860704724
:100B7000144A2832904203D148680F221202F4E747
:100B8000104A3C32904203D148680F221203ECE72E
:100B90000C4A5032904203D148680F221204E4E715
:100BA000084A6432904203D148680F221205DCE7FC
:100BB000044A78329042DAD148680F221206D4E70C
:100BC000FEFF000008000240034A014612680020B0
:100BD0000A4200D00120704700000240002A02684B
:100BE00001D00A4300E08A430260704730B50368D1
:100BF0000C4A0C6A13408A684D6922430C692C43E5
:100C000022438C692243CC6922434C6A22438C6A7A
:100C100022431A430260CA6842600A6882604968D7
:100C2000C16030BD0F80FFFF41607047002101604F
:100C300041608160C160016141618161C1610162A6
:100C40004162816270470000F0B50B2706463F0401
:100C5000384600F067F804280FD1084C20690225B7
:100C6000284320616661206940210843206138469D
:100C700000F058F82169A9432161F0BD002002402D
:100C800008490420CA68D20701D001207047CA6809
:100C9000D20601D502207047C9684907FBD5032059
:100CA0007047000000200240024801698022114381
:100CB0000161704700200240F8B5064600200B276E
:100CC0003F0400900D46384600F02CF8042815D15A
:100CD0000B4C20690121084320613580384600F023
:100CE00021F8042806D1B61C290C0096318038461C
:100CF00000F018F82169490849002161F8BD000099
:100D00000020024004480169090603D503494160F7
:100D100003494160704700000020024023016745FD
:100D2000AB89EFCD00B50346FFF7AAFF02E0FFF75E
:100D3000A7FF5B1E012803D0002B00D1052000BDBA
:100D4000002BF4D1FAE7F0B50022032501230C684B
:100D500093401C409C422AD10C79012C01D0022CDA
:100D600012D1876854002E46A640B74387604E795B
:100D7000A64084682643866084889C438480848857
:100D80008B7993401C438480066853002C469C401A
:100D9000A64306600E7907689E403E430660C6681B
:100DA000A643C660CC799C40C3681C43C460521CF7
:100DB000102ACBD3F0BD4B07DB0E9A40C90810B503
:100DC00089000818016A0F249C40A1430162016A4E
:100DD0001143016210BD0246128A00200A4200D06F
:100DE000012070470185704781617047052002F03E
:100DF000C7F90029016802D00122114301E0490826
:100E0000490001607047012292030029416801D026
:100E1000114300E09143416070470246926900200F
:100E20000A4200D00120704710B5026852085200F3
:100E300002600268134B8C681A4024024B6814430A
:100E4000234303600F230A681B069A43026102686A
:100E500001231A43026000228260C2600B698A6922
:100E60001A43826082680123DB031A438260CA68E6
:100E70000368134303604268034B49691A401143F6
:100E8000416010BDFFE0CF00FF7FFF07406AC0B2A6
:100E9000704781627047000070B5049D4468890501
:100EA000890D1204034E1143194334402943214351
:100EB000416070BD009800FC70B5074C074D21469D
:100EC000284600F0CDF82146284600F021F92146B9
:100ED000284600F075F970BD0000F041000048435D
:100EE000F8B51E4C06462068002801DC3046F8BDE7
:100EF000A168E069FFF7A5F905466168A069FFF7F9
:100F0000A0F93146FFF799F92946FFF792F905460E
:100F10004000FF214008C905081AC00F04D1284627
:100F200000F017FE002800D035466169E069FFF740
:100F300088F90090A06921690746FFF782F9064603
:100F40002846E168FFF77DF93146FFF721F900995E
:100F5000FFF71EF9E761A561F8BD0000040300205A
:100F6000F8B51E4C0646206A002801DC3046F8BD64
:100F7000A16AE06BFFF765F90546616AA06BFFF7B0
:100F800060F93146FFF759F92946FFF752F905464E
:100F90004000FF214008C905081AC00F04D12846A7
:100FA00000F0D7FD002800D03546616BE06BFFF7FD
:100FB00048F90090A06B216B0746FFF742F90646FF
:100FC0002846E16AFFF73DF93146FFF7E1F800995D
:100FD000FFF7DEF8E763A563F8BD00000403002017
:100FE000F8B51E4C0646206C002801DC3046F8BDE2
:100FF000A16CE06DFFF725F90546616CA06DFFF768
:1010000020F93146FFF719F92946FFF712F905468D
:101010004000FF214008C905081AC00F04D1284626
:1010200000F097FD002800D03546616DE06DFFF7B8
:1010300008F90090A06D216D0746FFF702F90646FA
:101040002846E16CFFF7FDF83146FFF7A1F800995B
:10105000FFF79EF8E765A565F8BD000004030020D2
:10106000FEB50D46FFF72AF901462648FFF726F997
:1010700005F04EFE01460090FFF7E3F804460190AC
:10108000214801F0A1FE0121FFF756F90099FFF771
:10109000D8F87F27FF053946FFF77AF82146FFF792
:1010A00077F81A4C06462560002D29DD3146019857
:1010B000FFF704F905460121E060FFF73DF965619E
:1010C000206139460198FFF7B4F80121FFF734F9A0
:1010D0003146FFF7F3F860600B48019D01F074FEA4
:1010E0000121FFF729F90099FFF7ABF83946FFF71F
:1010F000A4F82946FFF74CF83146FFF7DFF8A06067
:10110000FEBD0000DA0F4940DA0F493F040300201A
:10111000FEB50D46FFF7D2F801462648FFF7CEF898
:1011200005F0F6FD01460090FFF78BF804460190AC
:10113000214801F049FE0121FFF7FEF80099FFF771
:1011400080F87F27FF053946FFF722F82146FFF791
:101150001FF81A4C06462562002D29DD31460198FC
:10116000FFF7ACF805460121E062FFF7E5F865639B
:10117000206339460198FFF75CF80121FFF7DCF89E
:101180003146FFF79BF860620B48019D01F01CFEA1
:101190000121FFF7D1F80099FFF753F83946FFF71F
:1011A0004CF82946FEF7F4FF3146FFF787F8A062B6
:1011B000FEBD0000DA0F4940DA0F493F040300206A
:1011C000FEB50D46FFF77AF801462648FFF776F898
:1011D00005F09EFD01460090FFF733F804460190AC
:1011E000214801F0F1FD0121FFF7A6F80099FFF772
:1011F00028F87F27FF053946FEF7CAFF2146FEF78C
:10120000C7FF1A4C06462564002D29DD314601989A
:10121000FFF754F805460121E064FFF78DF8656596
:10122000206539460198FFF704F80121FFF784F89B
:101230003146FFF743F860640B48019D01F0C4FD9F
:101240000121FFF779F80099FEF7FBFF3946FEF719
:10125000F4FF2946FEF79CFF3146FFF72FF8A06404
:10126000FEBD0000DA0F4940DA0F493F04030020B9
:1012700030B5827801240178002A15D08B080E4AF7
:101280009B009A1813688907C90EFF258D40AB4350
:101290004578AD072D0E8D401D4315600078C006C2
:1012A000C00E8440054804E0C806C00E84400348D0
:1012B0008030046030BD000000E400E000E100E0A8
:1012C00070B5FF2500210446AD05C943FFF734F88A
:1012D00006460F4960100C1A21463046FEF7B1FF52
:1012E0002146FEF7AEFF2946FEF7A7FF2146FEF78F
:1012F000A8FF044601463046FEF7A3FF2146FEF74D
:10130000A0FF2946FEF799FF2146FEF79AFF70BD20
:10131000DF59375F044A0029516901D0014300E0D9
:10132000814351617047000000100240044A0029C7
:10133000D16901D0014300E08143D16170470000D1
:1013400000100240044A0029916901D0014300E0E5
:10135000814391617047000000100240F8B5464E8D
:101360000446716800200C22444D114005D0042928
:1013700003D0082903D00C2918D0256018E0716823
:10138000706803228902D2030F0F1040BF1C00288F
:1013900009D0F06A0107090F2846491CFEF7C8FE6C
:1013A0007843206004E036487843FAE73549216005
:1013B0007168354F0906090F7B5C21680A46DA40DF
:1013C000626073685B055B0FFB5CDA40A260336BA5
:1013D000DB0501D42D4B05E073685B0401D4530891
:1013E00000E09308E360336B5F06294B03D4284F7A
:1013F0001237276100E02361376BFF0601D4656176
:1014000000E06161376BBF070ED0376BBF07BF0FBE
:10141000012F0BD0376BBF07BF0F022F08D0376BE0
:10142000FF43BF0706D006E0A26104E0A16102E02D
:10143000A36100E0A561376BBF03BF0F0FD0326B14
:101440009203920F012A0CD0316B8903890F022974
:1014500009D0316B8903890F032906D006E0E261C8
:1014600004E0E16102E0E36100E0E561316B09065F
:1014700000D404482062F8BD0010024000127A0037
:1014800000093D00006CDC0294030020809FD50021
:101490000080000004490A6B10239A430A630A6B18
:1014A00002430A6370470000001002400CB50020A0
:1014B0000090019013491120086013484168416071
:1014C0004168416041687B22D20391434160416899
:1014D0000522D20411434160016801221206114322
:1014E000016001688901FCD5416889088900416073
:1014F000416802221143416041680907890F0229AE
:10150000FAD10CBD002002400010024070470000DC
:1015100010B5144801680122114301604168124A64
:10152000114041600168114A1140016001680122C7
:1015300092049143016041683F221204914341604B
:10154000C16A09090901C162016BFF22543291434A
:101550000163416B49084900416300218160FFF745
:10156000A5FF10BD001002400CB8FF08FFFFF6FEFB
:1015700080220029018801D0114300E091430180BD
:1015800070470029018802D00122114301E0490877
:1015900049000180704740300029818803D0012232
:1015A000D203114301E04904490C81807047002AAD
:1015B000828901D00A4300E08A438281704700009B
:1015C00070B5028C520852000284048C8288038B0E
:1015D0007025AB439B080D889B001D4302239C4351
:1015E0008E894B882643104C3343A04208D00F4CC1
:1015F000A04205D00E4CA04202D00E4CA0420DD10C
:101600000824A343CC891C4304239C438B88234395
:10161000094C22400C8A14434A8A22438280058363
:1016200089684163038470BD002C01400040014083
:101630000044014000480140FFFC0000028B0823E9
:101640009A430A430283704770B5028C10239A4371
:101650000284048C8288038B1A4D2B400D782D0652
:101660002D0C1D4320239C438B891B051E0C4B888E
:1016700026431B051B0C144C3343A04202D0134ECF
:10168000B04219D1124E32400E8AB604360C3243A3
:10169000A04211D18024A343CC892405240C1C43EF
:1016A00040239C438B881B051B0C2343094C224081
:1016B0004C8AA404240C22438280058389688163B8
:1016C000038470BDFF8C0000002C014000400140ED
:1016D000FFFB0000FFF70000028B034B09021A40DA
:1016E0001143018370470000FFF7000030B5028C02
:1016F000124B1A400284058C8288838B104C234045
:101700000C782406240C1C430E4B1D400B7B1B073E
:101710001B0C2B438D782D072D0C1D430A4B984233
:1017200005D10A4B13400A8A9205120C1A43828093
:10173000848389680164058430BD0000FFEF0000E8
:10174000FF8C0000FFDF0000002C0140FFBF000005
:10175000002101804180818081608181C18101827D
:10176000418270474162704710B50288144B98421D
:1017700006D00124A407A04202D0124CA04203D1FB
:101780007024A2434C8822430F4CA04203D00F4C3C
:1017900022400C89224302804A68C2620A8802857C
:1017A000984208D00A4A904205D00A4A904202D094
:1017B000094A904201D1897A01860121818210BDB6
:1017C000002C01400004004000100040FFFC00001D
:1017D0000040014000440140004801400021C9434D
:1017E00041600021018001814180817270470000C9
:1017F00010B5074C00212046FFF794F90C21204634
:10180000FFF712FA01212046FFF78CF910BD000006
:1018100044000240F0B5012106464C0495B0204634
:10182000FFF784FD01212046FFF774FD0221684681
:101830000172002484720125C572032141720420C3
:101840000927FF06019001A93846FFF77CFA01221B
:1018500002213846FFF7AFFA0E960C260F9410942B
:10186000119413940EA92748129600F0B7F801219D
:10187000244800F0A9F80121224800F070F8402126
:10188000204800F065F81C2168460170447085709E
:10189000FFF7EEFC01210846FFF73CFD1A4F3846E2
:1018A000FFF74CF917480794283003901748049025
:1018B0001020059080200890400106960C90099415
:1018C0000A940B9403A90D943846FFF78FF901226F
:1018D00002213846FFF782F901228021094800F0F1
:1018E00048F86803FFF712F900213846FFF71AF9A4
:1018F0000B216846017044708570FFF7B9FC15B084
:10190000F0BD000000440040440002406C04002090
:1019100070B50D4D0D4C2946204600F039F80028D1
:1019200003D02946204600F015F80821204600F093
:1019300028F8012806D10821204600F009F82046A1
:1019400000F09AF870BD0000050105000044004059
:1019500001627047090C01228A4002627047002927
:10196000016802D00122114301E0490849000160E9
:101970007047002A826801D00A4300E08A438260EF
:1019800070470246D26900200A4200D00120704709
:1019900030B50A04130E01252A4600248A40012B83
:1019A0000ED0022B0ED08368090C1340C0698D4005
:1019B0002840002B02D0002800D00124204630BD52
:1019C0000368F1E74368EFE708220029816801D046
:1019D000114300E0914381607047000030B5044638
:1019E000006889B00D46400840002060606803210F
:1019F00009038843A9680143616020681A49EA68BD
:101A00000840696811432A69024311432160A068B4
:101A100003210902884369690143A1606846FFF711
:101A20009DFC1248844201D1069805E0104884428A
:101A300001D1079800E0029821680904296800D5BF
:101A40004000FEF775FB2A6852088A4200D8401C05
:101A50002168090404D50107064A490F10400843CC
:101A6000A08109B030BD0000F3E9FFFF003801405C
:101A700000440040F0FF0000808CC005C00D70479E
:101A80000146034888600348C86008467047000064
:101A90000AD7A33C249A843D014603488860034842
:101AA000C8600846704700000AD7A33C249A843DCA
:101AB0000021016070472021020C01D01021104646
:101AC000020A01D010460839020901D01046091F48
:101AD000820801D01046891E420801D0881E704736
:101AE000081A7047F0B4040C8BB2264682B25E43EB
:101AF0000D0C1046370C58433604801900217941EB
:101B000016466E43370C36048019794126466E43DB
:101B10008919F0BC704730B47446641E2578641C83
:101B2000AB4200D21D46635D5B00E31830BC184732
:101B30004100080200D004200A0E01D00122104307
:101B4000090EFF2901D102210843012800D10520F7
:101B50007047FF2140000906884201D101207047EB
:101B600000207047FFB581B01C4617460E0007D015
:101B7000019D02E02846B047ED192046641EF9D2C7
:101B8000019805B0F0BD10B50121FEF7D5FB10BDE1
:101B900010B500210846FEF791FB10BD5E2110B57F
:101BA000C9430807FEF7C8FB10BD0000F0B50E469C
:101BB00014465100FF22120687B0914203D311163A
:101BC000316007B0F0BD01202502C0070543E00DDC
:101BD0007838C206D20E2020871A6000000E7838AE
:101BE000401181004D4878440B189C464358002A08
:101BF00014D06046406893400146F8400343604675
:101C0000806891408646F8400143039160467146E2
:101C1000C0689140F84001430F4603E060464168C8
:101C20000391876818462946FFF75CFF02910490EC
:101C300029460398FFF756FF039106903846294638
:101C4000FFF750FF0F460698029B3D18049A039930
:101C5000BD4201D2012700E000278818C019002FDB
:101C600002D0884202D903E0884201D2012100E07B
:101C7000002159180A4620329709C20C89065203DE
:101C800040033760114301900846FEF761FB029064
:101C90000198FEF768FB1221C943FEF74DFB019046
:101CA0002846FEF760FB2521C943FEF745FB00905F
:101CB00001990298FEF76CFA0099FEF769FA012182
:101CC000C9024018050B2D0328460299FEF7B1FA08
:101CD0000199FEF7AEFA0099FEF7AFFA1049FEF748
:101CE000B0FA00900F492846FEF7ABFA0099FEF7CC
:101CF0004FFA00900C492846FEF7A3FA0099FEF728
:101D000047FA002C00DB5CE701210907C91B3160A1
:101D10000121C907484007B0F0BD00006E54000023
:101D2000DB0FC92F22AAFD290000C92F02E008C835
:101D3000121F08C1002AFAD170477047002001E045
:101D400001C1121F002AFBD1704700000149086041
:101D500070470000AC03002010B5032310220B498C
:101D60000B48FFF7FFFE0A480323102209493030D1
:101D7000FFF7F8FE08480021016005480323082208
:101D800006496030FFF7EEFE10BD0000811A000822
:101D900024060020991A0008DC010020B11A00086E
:101DA000F8B5154E7F20C005374600251837B060BE
:101DB00000F028F80024A000395880190F4A02F0DA
:101DC000FAFA641C032CF6DB01F0D6FEFF20F53096
:101DD0006D1C8542ECDB7F21C905B068FEF729FA4E
:101DE000074D0024B060A0008019294602F0BCFA1B
:101DF000641C032CF7DBF8BDB40500201F856B3F86
:101E00000000FA43F0B587B006236A463B216820FC
:101E100002F0A4F8009801990002401800B2404274
:101E2000FEF796FA0546029803990002401800B2A0
:101E3000114E4042FEF78CFA0446049805990002C0
:101E4000401800B2FEF784FA01460120C007414065
:101E500045404440B16030C60B270024FF43083E94
:101E6000A50070593946FEF767FA641C7051032CBF
:101E7000F6DB07B0F0BD0000CC05002070B594B0D3
:101E8000402006900320694608770024CC7709207B
:101E900006A9C006FEF757FF01214802FFF752FAD4
:101EA00001210846FFF736FA294808902948099089
:101EB00002200B9080200D9040000E900A9480002C
:101EC0000F90202010900C940002234D119008A92F
:101ED00012942846FEF78AFE1D4E0221403E3046EF
:101EE000FEF770FD01213046FEF762FD6846FEF701
:101EF000A4FD012069460094087104200590029415
:101F000004943046FEF77EFD012107224904304645
:101F1000FEF740FD072240213046FEF73BFD012041
:101F2000FEF794FD3046FEF755FD01213046FEF7E1
:101F300036FD3046FEF77CFD01212846FEF7F2FD16
:101F400006480088FEF70FFA0249486014B070BDD9
:101F5000402401406403002008000240BAF7FF1F3C
:101F600010B50B49002803D0012808D0002010BD6F
:101F70000888FEF7F8F90749FEF763F910BD4888AD
:101F8000FEF7F1F9014602484068FEF797F910BDE7
:101F9000640300203333113CF0B58400304887B02F
:101FA00005597F2168004008C9050290FEF745F9F0
:101FB00006462946FEF745F9294930390968019155
:101FC000FEF73FF9059029460298FEF73AF92449B1
:101FD000203909680091FEF734F907462048083097
:101FE00001592846FEF725F91D490490283909684A
:101FF000FEF727F93146FEF724F91A4909680391DB
:10200000FEF71FF90599FEF7C3F815490646103982
:102010000851083904980968FEF713F90299FEF788
:1020200010F90399FEF70DF93946FEF7B1F80C499E
:102030000839085101463046FEF7AAF8084E103616
:10204000305130460838055100990198FEF7A0F844
:102050000146A01902F088F9305907B0F0BD000020
:102060001402002048020020F8B505460C4648003E
:1020700000D1294C01210026C9078D4203D94C40CB
:102080004D408126F605002C09DC204648402C46B0
:102090000546012189073046FEF77AF806462146B3
:1020A0002846FEF7F5F910D821462846FEF7C1F874
:1020B000074621462846FEF76BF804467F213D4639
:1020C000C9053046FEF764F8064621462846FEF765
:1020D000F5F804461149FEF7B4F81149FEF758F82F
:1020E0002146FEF7AEF80F49FEF752F82146FEF7FB
:1020F000A8F804460C493046FEF7A3F82146FEF73F
:1021000047F80A49884202DD0949FEF792F8094971
:10211000FEF797F8F8BD0000567C0A2A4BC887BD29
:102120007EAE36BE42DA833FDB0F493FDB0F4940CC
:10213000DB0FC940E12E654270B5184C206C0028B9
:1021400004D00025012809D0256470BD0120E0627B
:1021500004F072FA206C401C206470BD172004F05B
:102160000AFFC00608D58F21002004F029FF25644E
:10217000E56202F063FD70BD01F0FEFC216D401AC6
:1021800007498842F7D9E12004F0D4FE8F210020CE
:1021900004F016FF2564E56270BD0000C000002059
:1021A0001027000070B5002506462C46A0003058C8
:1021B0000146FEF746F82946FDF7EAFF641CE4B243
:1021C0000546032CF2D3FFF77BF801467F20C005BC
:1021D000FEF774F870BD0000F8B51D4D0C216E6857
:1021E000074632464A431B49184853182A68940048
:1021F0001959002F02D0491C195102E0491E1648F6
:102200001951002E06D1002A01D0012A02D10F490E
:10221000FEF717F80021C943FEF78EF8AE68315972
:10222000FDF7B6FF002800DD30512968002902D1F2
:10223000002800DD706068680C225043054A890060
:1022400080184058002800DA4042F8BDCDCCCC3D83
:102250002C020020D8060020CDCCCCBD30B5002209
:1022600007239C1A6418203C855CE47FA54201D0BA
:10227000002030BD521C072AF3DB012030BD0000D6
:10228000FEB5072004F077FE0007400F0026072860
:1022900001D0022000E0304601247B4D002870D0A0
:1022A000286900281DD001F067FC07460F217748F8
:1022B00004F04BFE00F06AFE00285AD0A86C401CC7
:1022C000A8646868002801D0FFF736FF6E63AE632C
:1022D00068696F65AF652E632866E86A002846D096
:1022E00047E00F21694804F030FE684B1868A428C5
:1022F00001D0A32845D1A32802D165486C60A8620B
:102300006148197E44300170197F4170198C8170C9
:10231000998CC1705F495C4F8868C9680090012042
:10232000019164378100595C6A4611543A18203A89
:10233000401CD1770628F5DB0621684604F0D9FD5C
:102340003020694608700621684604F0D2FD4E48E8
:1023500069694430415C252004F032FE2C61AC6098
:1023600001F0E8F801F008FC4B49086009E002F0D0
:1023700065FCE869401CE861092802DD0A20AC61BF
:10238000E861E86A002801D0FFF7D6FE01F0F4FB0F
:102390000746686D391AA86A82007D20C0001018AF
:1023A00081420BD92869002808D06F65A86B0028E6
:1023B00001D1286E686102F041FCAC63E96AA86B48
:1023C000084319D1686B0090052815D228690028A8
:1023D00012D0686D7D21381AC90088420CD9A96ACB
:1023E000FDF7A6FE01460098401C814204D302F08E
:1023F00025FC686B401C6863A86D391A2748814228
:1024000006D927482C63066046608660C66002E0F5
:10241000286B002803D0686A002802D011E06C62A3
:102420000FE0286A1F49381A88420AD916482E61D7
:10243000062175306C6204F05CFD0021052004F07B
:10244000BFFD01F099FBE96D411A1448814219D989
:10245000A86CAE64E86401F08FFBE865EC6CE00FFB
:1024600000194010FDF774FF0F49104A08609042B0
:1024700000DD0A60641E272C01D8012000E0002046
:102480000B490860FEBD0000C00000207805002058
:1024900088130000307000086C00002040420F00DC
:1024A00048050020C0E1E4008400002000007F43D4
:1024B0007000002000B504F019F900BDF0B57F20D0
:1024C0008BB0C0050490FE48807B002802D13F20DD
:1024D0000006049000252C46FA48AE008059FA4FB9
:1024E0004200FA495208B8518A4201DCBC510FE05F
:1024F0000122D207904204D87F22D2050023009205
:1025000003E0F34A0023F349009202F03FFBB85185
:102510006D1C032DE0DB03F063FAEF480068FDF764
:1025200022FFE94D074629680498FDF78AFE3946DF
:10253000FDF787FEE94E3146FDF783FE019069689D
:102540000498FDF77EFE3946FDF77BFE3146FDF728
:1025500078FE0290E2480068FDF705FF0746A9688B
:102560000498FDF76EFE3946FDF76BFE3146FDF728
:1025700068FE0390DB480C3D0278DB49002AD04A14
:10258000DA4FDB4EDB48D27845D0002A02D009680A
:10259000002912D001990160029941600399002736
:1025A0008160D348BE008159D2488059FDF741FE71
:1025B0007F1CA851032FF4DB44E00021C24804F043
:1025C00005FB03997868FDF73CFE0490012138680B
:1025D000C90748400399FDF734FE05900399B86890
:1025E000FDF72FFE00270690C348BE008159C3485F
:1025F00081513846FFF7D0FC04A98959FDF7C8FD81
:10260000BB498959FDF715FE7F1CA851012FEBDD51
:10261000B7488168DAE0002A02D00968002931D081
:102620000199016002994160039900278160B048D7
:10263000BE008159AF488059FDF7FBFD7F1CA851B2
:10264000032FF4DB03F0C8FE002003F06FF8012035
:1026500003F06CF8022003F069F89948A849027861
:10266000A84BA9480127A94E002A7DD0954AD568D4
:10267000A74A954202DD0268002A76D0096801293E
:10268000FBD086E10021904804F0A0FA974F03990F
:102690007868FDF7D6FD049001213868C9074840E5
:1026A0000399FDF7CEFD0590B86803990746FDF73D
:1026B000C8FD069097480990974808909748009061
:1026C0007F489749027AC079002A7DD0002814D02B
:1026D00003C94700490049087F0838460791FDF7BC
:1026E000D7FE00D9079F08993846FDF7C7FE16D8D0
:1026F00038460899FDF7E2FD13E00120C007874244
:1027000037D87D4801687D4801600020FFF744FC10
:102710000499FDF73DFD3168FDF78BFD4DE07F200D
:10272000C005089068480099006847007F0838464F
:10273000FDF7A4FE05D838460099FDF7BFFD074612
:1027400001E07F27FF0508990998FDF77AFD0090C1
:1027500074483946FDF775FD0099FDF719FD0746E8
:1027600062488168012001E007E10EE1C007814273
:1027700002D931680198CFE75F4801685F4801607E
:1027800031680198FDF755FD3946FDF75AFD009077
:102790007F203946C005FDF74CFD07460020FFF7B6
:1027A000FBFB0499FDF7F4FC3168FDF742FD394667
:1027B000FDF747FD0099FDF7EBFC28607168029872
:1027C000FDF737FD686000E005E0B1680698FDF7A9
:1027D00030FDA86036E7002870D07F200027C005B4
:1027E0000999FDF726FD0A904D4903C940004D00A7
:1027F0006D08400806462946FDF74AFE00D83546D2
:1028000028460899FDF73AFE04D828460899FDF7AE
:1028100055FD01E07F20C00507902B48BD004059C1
:102820000099460076083046FDF728FE05D8304668
:102830000099FDF743FD064601E07F26F60507995E
:102840000998FDF7FEFC079031460A98FDF7F9FC60
:102850000799FDF79DFC0790244881680120C00777
:1028600081420AD92248415901A84059FDF7E1FCAB
:10287000014615480C3841515DE01F4841591F4839
:1028800041511B48415901A84059FDF7D2FC079915
:10289000FDF7D7FC06467F20C0050799FDF7C9FC68
:1028A00007903846FFF778FB04A94959FDF770FCFB
:1028B0000F494959FDF7BDFC079935E047E0000095
:1028C0007804002048050020FC0300200AD7233CA0
:1028D000000080BF0AD723BCC002002035FA8E3C1E
:1028E000C4020020AC020020B8010020AC0100208E
:1028F000C005002044070020FC0500201402002031
:10290000800000209400002098000020000000209B
:10291000CDCCCC3D9A99993E00005C423333733F55
:10292000080600203333333FFDF78BFC3146FDF7BB
:102930002FFCFE4948517F1C012F00DC54E7FC4866
:1029400081680698FDF775FCF84988607AE60027EB
:10295000F848BE008159F84881513846FFF71CFB02
:1029600004A98959FDF714FCF1498959FDF761FC67
:102970007F1CA851012FEBDD4AE6F04A1C6012686B
:10298000012A00D10C60F4611FE0ED4909780029AB
:1029900002D01F60076002E0EA491C600F60F76127
:1029A0001968002911D0380013D0E7492846FDF7EF
:1029B00048FCE649FDF7ECFBB061E548854218DDCF
:1029C000E4480168002913D013E0E249B4610C60C7
:1029D00004E0E1498D4203DADE48B461046008E0B6
:1029E0002846FDF726FCDD49FDF72BFCB061D948F0
:1029F0000760DB480079002819D0DA49B461DA4B66
:102A00000868984211D2D94A90420EDA4868984232
:102A10000BD2904209DA8868984206D2904204DAD2
:102A2000C868002801DD904201DBC6480760D04835
:102A3000D04900780968084303D1C448B16981428C
:102A400023DA7068002807D001F096F87168401A00
:102A5000C949884200D974600025E8B2002103F01A
:102A600079F86D1C032DF8DDC44D00212A46C448B9
:102A700001F0A1FCC2482A460021001D01F09BFC88
:102A8000B461376034620BB0F0BD0020306001F0FB
:102A900073F87060BB480068002802D0BA48C0686C
:102AA000B061BA480024006801283FD1B848BA4D47
:102AB0000168B848814205DAFDF7BBFB2946FDF7FE
:102AC000C0FB0446B5480168B548814205DAFDF708
:102AD000B0FB2946FDF7B5FB04467F20C0058442C4
:102AE00001DD044601E0002C07DDAE492046FDF77C
:102AF000A8FB7169FDF74CFB03E094497069FDF791
:102B000098FB3F2109067061884201DD716105E093
:102B10000121C907884201D90020706120467169EE
:102B2000FDF736FBB169FDF788FBB0619E489F4F0A
:102B300000680890002804D10121B868C9074840FE
:102B4000B8603868009001468D48083880690646AC
:102B5000FDF76FFB09907D682946FDF76AFBBC68AD
:102B60002146FDF715FB079030460099FDF710FB55
:102B700006462946FDF75DFB2146FDF75AFB059009
:102B800029460998FDF704FB2146FDF752FB069004
:102B900030462946FDF7FCFA2146FDF7F9FA049084
:102BA0000898002803D10120C0074440BC600020E1
:102BB000401C0328FCDD0020644F044604AE009056
:102BC000A50070590099FDF763FC01D2705900907F
:102BD00070593946FDF752FC00D27759641C042C19
:102BE000EEDB7F21C9050098FDF723FB3F252D066D
:102BF000A84200DD2846624C083CA168FDF748FC6D
:102C000004D26B49A068FDF7C3FA03E06949A068E4
:102C1000FDF70FFB4D4FA060A84201DDA56003E06A
:102C20006549884200D9A16055480121083880686B
:102C3000C907884200D961484549FDF702FB0028D1
:102C40000DDD3946FDF7A4FA07460024A5007059AA
:102C50003946FDF7EEFA641C7051042CF6DB3D4852
:102C6000006801281ED100252C46A700F0592946EE
:102C7000FDF704FC00D2F559641C042CF5DB504828
:102C8000854201D9054603E00120C007854209D9E4
:102C90000024A700F0592946FDF7CBFA641CF05137
:102CA000042CF6DB364800210838294F0D467F1EDC
:102CB0000162AC0030590121C907884202D90020C5
:102CC000305104E07F21C905884200DD31513D4883
:102CD0003159FDF7B6FA3946FDF75AFA2049305115
:102CE0000978002904D0EAB20146104602F032FF0A
:102CF00030590121C907884202D90020305104E02F
:102D00007F21C905884200DD315131591C4C083CF6
:102D1000206AFDF73DFA6D1C2062032DC9DD0121FB
:102D2000C943206AFDF708FB2062ACE6F0030020EF
:102D3000C0050020FC05002014020020D80000205F
:102D4000AC0200204C00002077BE7F3F6F12833A18
:102D5000CDCCCC3D90000020CDCC4C3D9932873F6E
:102D60007804002048050020A4707DBFA4707D3F3A
:102D7000A6020020F000002040420F00EC51383F36
:102D800008000020C0010020140600208800002058
:102D900030000020CDCC2C4000004040340000200A
:102DA0003333534017B7D1388C0000203807002048
:102DB0000AD7A33B0AD7233CCDCCCCBD17B7D1B89B
:102DC000CDCC4CBE6666663FF0B5024604464E4B1F
:102DD00083B040006946984209D2732109068842AF
:102DE00002D20020C04300E00020009030E05000FC
:102DF000464B400898426CD245491046FDF721FAEF
:102E0000FDF7A2FB0746FDF7B5FA8007800F00909B
:102E100040493846FDF715FA01903F493846FDF71D
:102E200010FA06463D493846FDF70BFA05463C497F
:102E30003846FDF706FA2146FDF7FFF92946FDF76A
:102E4000F8F93146FDF7F5F90199FDF7F2F9044675
:102E500025467F27009CFF05002C3EDBE007314E16
:102E6000294608461BD0FDF7ECF907462E49FDF729
:102E7000E8F92E49FDF7E1F93946FDF7E2F92C4969
:102E8000FDF786F93946FDF7DCF92946FDF7D9F952
:102E90002946FDF77DF9A10718D503B0F0BDFDF770
:102EA000D0F905462349FDF7CCF92349FDF770F920
:102EB0002946FDF7C6F92149FDF76AF92946FDF7CC
:102EC000C0F93946FDF764F9A107E6D5704003B0B3
:102ED000F0BD1046FEF76AFEB9E7FF21680009065B
:102EE000884202D2384603B0F0BD884206D10120A4
:102EF000FEF72CFFFEF74CFE03B0F0BD2846FEF7B0
:102F000042FE03B0F0BD0000B61F927E490E494656
:102F100083F9223F1A61342C0020A23300A0FD392E
:102F20000000C93F00000080336D4C39DA82083C54
:102F3000A0AA2ABEB93AB2BACA9F2A3DDDFFFFBE97
:102F4000F3B5074681B0102001F0EAFD041E1BD046
:102F50000020207102986071E4600125A46026467B
:102F60007F1C0EE0102001F0DBFD00280CD0057165
:102F700002994171C6608460B0606D1C0646EDB276
:102F8000E060BD42EED32046FEBD0000F8B5664DC0
:102F90002868A5287DD1002108468200AA58401C37
:102FA00051180E28F9DBC8B2A96B8842F2D15E48ED
:102FB000103002F0ABFB5D4E30605B48183002F021
:102FC000A5FB70605848283002F0A0FBB060288C48
:102FD000696A8007800D4018FDF7BAF95449FDF77A
:102FE00030F95449F0600978534C00291BD05349FB
:102FF0000978002904D15249884201DD012000E00E
:1030000000202070287A4107C90FE1724106C90FDC
:103010002173C107C90FE1708106C90FC006217273
:10302000C00FE07130E04748007800280BD0287BC3
:103030000006C00F2070287A0107C90FC007E17091
:10304000C00FA0710AE0287A0107C90F2170297BFF
:10305000C0070906C90FA171C00FE070287A810668
:10306000C90F2172C106C90F8007E171C00FA0709E
:10307000287B8106C90F4007E172C00FA072686803
:10308000FA2807D0002060702F480078012803D06C
:1030900003E046E00120F6E7A071E0782B4D002820
:1030A00026D0207A2A4F0028E07904D0002804D1C5
:1030B0003946306803E000280AD02946306802F01B
:1030C00079FD30602946706802F074FD706004E09C
:1030D0003946306802F06EFD30603946B06802F063
:1030E00069FDB0600020064601231A4A1A4D0CE023
:1030F0002946306802F05EFD30602946706802F0B3
:1031000059FD70601549B068E9E716542F5C215CE1
:103110008F4200D013542954401C0E28F5DB0120A7
:10312000F8BD0020F8BD000078050020480500200B
:10313000F7FF7F3AAC02002078040020A6020020AE
:103140000AD7233CAF020020AE020020CDCC4C3F7A
:10315000CDCC0C3F68050020580500209A99193FF6
:1031600010B50020FFF738F810BD08B5C100081AE7
:103170000090411E009101D30846FAE708BD000007
:1031800006460024E0B2002102F0E4FC641C032C9B
:10319000F8DD0B4DAF0000240CE0FF2001F0DBF860
:1031A0002846FFF7E2FFFF2001F0CCF82846FFF7A2
:1031B000DCFF641CB442F0DB3846FFF7D6FFEAE7D9
:1031C000400D030010B50349FCF7E2FF00F004F8DE
:1031D00010BD0000DB0FC93F70B50446134E144DFF
:1031E00003E03146FCF7D4FF0446AC42F9D8114D58
:1031F000AC4204DD3146FDF71CF80446F8E7012037
:10320000C0070D490D4D8442204605D9FDF719F838
:103210002946FCF7BDFF04E0FDF713F82946FDF74A
:103220000CF82146FDF70DF870BD0000DB0FC9401A
:10323000DB0F49C0DB0F49407B81CF3E83F9A23FC2
:1032400010B5FDF75FFD0124E4062046FDF7FCFC08
:103250000E48FDF7F9FC042817D0FDF725FD0021E5
:103260002046FDF729FD0021A01CFDF725FD0021CA
:10327000201DFDF721FD0021A01DFDF71DFD0021F2
:103280000348FDF719FDFDF70FFD10BD007C000898
:1032900008000008FEB500273D460024681CFDF725
:1032A00057F801900E49A8000E58601CFDF750F821
:1032B0000090A10071580198FCF7C3FF0099FCF73A
:1032C000C0FF0849FCF7BDFF3946FCF761FF641CED
:1032D0000746032CE9DB6D1C032DDEDBFEBD000081
:1032E000940200208D976E3F10B5FFF7D3FF014980
:1032F000086010BD9C000020F8B50020012400F0FB
:1033000041FA724DA8427DD1FF2000F03BFAA8425D
:1033100078D12046022500F03DFA6D4948600968E1
:10332000FDF7ACF811D100260024B70028466D1C2B
:1033300000F030FA6749A200C959641C8850032C78
:10334000F4DB761C032EEFDB00E00B2528466D1C1A
:1033500000F020FA604C206028466D1C00F01AFA3C
:10336000606028466D1C00F015FAA06028466D1CB0
:1033700000F010FAFDF717F85849086028466D1C50
:1033800000F008FAFDF70FF85549086028466D1C53
:1033900000F0F8F953490870284600F0F3F9C0B27C
:1033A000514900240870272800D90C70262000F00D
:1033B000E9F9C0B24D490128087000D90C702720E6
:1033C00000F0E0F9C0B24A490128087000D90C7039
:1033D000282000F0D7F9C0B246490128087000D96A
:1033E0000C70292000F0CEF9434908702A2000F023
:1033F000C9F9424908702B2000F0C4F9404908700F
:103400002C2000E060E000F0BDF93E4908702D205E
:1034100000F0B8F93C4908702F2000F0B3F93B499F
:103420000870302000F0AEF939490870312000F002
:10343000A9F938490870342000F0A4F900220346A5
:103440001146CC0018462041C0B27F2800D9012285
:10345000491C0429F5DB002A28D12F4901200860E6
:103460002E490860322000F08DF92D4C2071322059
:1034700000F088F92B49000A0860332000F082F937
:1034800002460021CB00104618416054491C042913
:10349000F8DB342000F076F9234A03460021CC0003
:1034A000184620415054491C0429F8DB362000F00E
:1034B00071F9FCF75FFF1D490860372000F06AF9D9
:1034C000FCF758FF1A490860F8BD00000100AA1275
:1034D0009C00002094020020B4050020C0020020BF
:1034E000C4020020A1020020A2020020AE0200209F
:1034F000AF020020AC020020AD020020B10200208B
:10350000A8020020A9020020AA020020AB0200208D
:10351000B0020020A0020020C8000020CC00002043
:1035200024010020C40000200401002088000020A5
:103530008C000020F8B500F031F900F011F90020FE
:1035400001245F4903F0E6FC5E4920460225096834
:1035500000F028F900260024B7005B48A100C059FC
:10356000415828466D1C00F01DF9641C032CF4DB47
:10357000761C032EEFDB554C28466D1C216800F0AD
:1035800011F928466D1C616800F00CF928466D1C85
:10359000A16800F007F94E480068FCF7E4FE014618
:1035A00028466D1C00F0FEF84A480068FCF7DBFE78
:1035B000014628466D1C00F0F5F8474928466D1C69
:1035C000097803F0A7FC45480178284603F0A2FCDF
:1035D00043480178262003F09DFC424801782720CB
:1035E00003F098FC40480178282003F093FC3F4802
:1035F0000178292003F08EFC3D4801782A2003F051
:1036000089FC3C4801782B2003F084FC3A4801787F
:103610002C2003F07FFC394801782D2003F07AFC40
:10362000374801782F2003F075FC364801783020A8
:1036300003F070FC34480178312003F06BFC334810
:10364000006800281FD03348314C006821790002FF
:103650000143322003F05EFC2046FCF77FFD0102AF
:10366000E078090A00060143332003F053FC2A489E
:10367000FCF774FD01022848090AC07800060143DE
:10368000342003F047FC25487F240068E405002827
:1036900001D0214600E00021362000F083F82048C8
:1036A0000068002801D0214600E00021372000F00A
:1036B00079F80349FF2003F02DFC00F05FF8F8BD16
:1036C0000100AA129C00002094020020B4050020F2
:1036D000C0020020C4020020A1020020A20200209B
:1036E000AE020020AF020020AC020020AD0200209C
:1036F000B1020020A8020020A9020020AA02002096
:10370000AB020020B0020020A0020020C800002070
:1037100024010020C40000200401002088000020B3
:103720008C000020F8B515461C4606460F46FDF7EE
:10373000A1F8000F02280BD0002D01D0012000E0DD
:1037400000202043400005494008081AC00F02D05D
:1037500030463946F8BD28462146F8BD0000F07FC6
:1037600010B50548FDF770FA042803D0FDF79CFA60
:10377000012010BD002010BD007C000810B5FDF731
:1037800093FA10BD0249800040180068704700009D
:10379000007C000800B5FFF7F5FF00BD10B5FDF790
:1037A000B1FA10BD10B503F0B5FB10BDF8B5154664
:1037B0001C4606460F46FDF75DF8000F08280BD0A3
:1037C000002D01D0012000E00020204340000549E9
:1037D0004008081AC00F02D030463946F8BD2846C6
:1037E0002146F8BD0000F07F30B53F4C2178814282
:1037F00077D006216218203AD27F6254491E0129EF
:10380000F8DA207039493848FEF728FD7F2500286E
:1038100002D06570032030BD34493348C91DFEF71E
:103820001DFD002802D06570042030BD2F492E48B0
:103830000E31FEF713FD002802D06570012030BD67
:103840002A4929481531FEF709FD002802D0657084
:10385000022030BD25492448C91FFEF7FFFC00287F
:1038600002D06570092030BD20491F480E39FEF78F
:10387000F5FC002802D065700A2030BD1B491A48AB
:103880001539FEF7EBFC002802D065700B2030BD27
:10389000164915481C31FEF7E1FC002802D065707E
:1038A000052030BD114910482331FEF7D7FC002810
:1038B00002D06570062030BD0C490B482A31FEF756
:1038C000CDFC002802D06570072030BD07490648AE
:1038D0003131FEF7C3FC002803D06570082030BDED
:1038E000FFE70020FBE70000B8000020F76F0008AA
:1038F000F8B500F08FF8040072D001253C4E012C81
:103900001ED13068002834D03A480560002030606D
:10391000FFF710FEFFF7F0FC002002460C270346DD
:103920007B43354F0021DB198F00491CDA510329F5
:10393000FADB401C0328F1DB00F01EF92F49086078
:1039400002212F4F0B2C19D0022C1ED00A2C28D06C
:103950002C48042C2DD0032C2FD0072C00DB3560F5
:10396000052C2FD0062C30D0072C3AD0082C3BD079
:103970002EE000F03DF9FEF713FAC9E7224A11E004
:103980001060081A38603560E9E7204A106800289E
:1039900005D000201060081A386035601BE0012057
:1039A000F8E71B4A1068002801D00020E8E7012052
:1039B000E6E705710F4805600AE00E490D60002139
:1039C000017105E001F01EF901E001F00DF9386028
:1039D0003068002804D03868002801D10548056007
:1039E000F8BD00F049FCF2E7FFF7BAFBEFE7000093
:1039F000A40000204C000020D80600206C0000200D
:103A000050000020780400208C000020C800002016
:103A10008800002070B53748374C0068002864D013
:103A2000364B37481A685100490881420BDA9D68C5
:103A30006D006D08854206DA5D686D006D0885428F
:103A400001DA00202FE02F4DAA4202D89E68AE4234
:103A500006D95E6876007608864201DA012022E007
:103A6000294EB24202DC9A68B24206DD5A68520020
:103A70005208824201DA022015E05A68AA4208D9A7
:103A8000814206DA9D686D006D08854201DA0320E7
:103A900009E0B24208DD814206DA99684900490826
:103AA000814201DA0420206000F066F806CC083C70
:103AB000914200D0E060E268801A144A90420FD927
:103AC000002904D1124A904201D90C2005E0114A84
:103AD000904204D97F2903D0FF20A06000E0A160BC
:103AE0006160A068FFF780FE70BD7F20A06060600D
:103AF000002070BD00000020A80000204805002024
:103B0000CDCC4C3E333333BF3333333FA08601003B
:103B100060AE0A0020A1070070B5134C134A60681C
:103B200000231349904206D90D7D012D03D10D6E5E
:103B3000AD680D660B750F4DA84206DD4E7D012E5A
:103B400003D10E6EF6680E664B750123A84203DAA8
:103B5000904201D24B750B752068A84203DA90425F
:103B600001D28B75CB7570BD480500209A9919BF9D
:103B7000A00200209A99193F00B503F097F900BD03
:103B80001CB5232001214004FDF7C4FB0120694638
:103B9000087100208871C8710320487102200090CC
:103BA0000920C006FDF7CFF81CBDF0B5012185B096
:103BB0004804FDF7AFFB0120C002009000246846D6
:103BC00004710125C571032609274671FF06694660
:103BD0003846FDF7B8F82803029068460473C573A9
:103BE000467302A93846FDF7AEF805B0F0BD0000F7
:103BF000F0B591B0FFF7C0FF0F9005460B900A900B
:103C000000208100574B0CAA5B58401C53500328DE
:103C1000F7DB8DE00A980A95281A099001D1012056
:103C2000099006236A464321682000F097F900981E
:103C300001990002401800B2FCF78AFB0790029835
:103C400003990002401800B2FCF782FB069004982A
:103C500005990002401800B2FCF77AFB424E08902A
:103C6000307800F01BFB20464049FCF761FA4048E1
:103C7000814201D9012100E000213068C207D20F42
:103C8000914201D0401C3060374801780907090F84
:103C900000260160B4000CAF06A839590059FCF7A2
:103CA000F7FB04D238593349FCF772FA385106A8A9
:103CB00039590059FCF7E2FB04D238592D49FCF779
:103CC000B8FA3851E0192C4900F04EFB38592B490D
:103CD00040004008FCF75CFA014606AF3859400046
:103CE0004008FCF7D5FB06D2FFF746FF0B901E48B5
:103CF000012101600BE00998FCF735FB204900F039
:103D000097FB024617483959201800F054FB761CDF
:103D1000032EBFDB7D24E400FFF72EFF401BA042F3
:103D200003D20A20FFF721FAF6E7FFF725FF054641
:103D30000B982C1A1348844205D20F981249281A5E
:103D4000884200D266E70B98291A0E48814207D2B2
:103D50000020044A01468300401CD1500328FADBAE
:103D600011B0F0BDD80500209401002024F400001B
:103D7000127A0000CDCCCC3D000048440000C8427F
:103D80000024F44880841E00C0E1E40010B58AB02D
:103D900002206946087101208871C8710320164C01
:103DA00000902046FCF7CFFF012200212046FDF7BE
:103DB00002F8012211462046FCF7FDFF01214805CB
:103DC000FDF7B4FA1020FDF765FB0C4802900020C7
:103DD0000F2104910390AB21094C059007900691A7
:103DE000089002A92046FDF71FF801212046FDF7A3
:103DF00000F80AB010BD0000001400481808700058
:103E000000540040F8B517461E460446012200F053
:103E10003BF80920800200906004010C0123F2B2FB
:103E20005B061248FDF738F8114D0020287018E0A5
:103E3000002408E0641C600B05D00E490868401C93
:103E400008600020F8BD04210848FCF7E6FF0028C0
:103E5000F0D00648FDF71AF829788A00B850491CB6
:103E600029702878B042E3DB0120F8BD00540040FF
:103E7000880300206C03002008B501236A46FFF781
:103E8000C1FF009808BD0000F7B582B017460024B6
:103E90001C4D1D4E02E0641C600B24D10121C9039E
:103EA0003046FCF7BAFF0128F5D00120400300900E
:103EB0000298FAB24004010C00233046FCF7ECFFF4
:103EC00002E0641C600B0ED102213046FCF7A5FF16
:103ED0000028F6D00398C1B23046FCF7DAFF08E0BC
:103EE000641C600B05D02868401C2860002005B0C9
:103EF000F0BD01213046FCF790FF0028F0D00120F2
:103F0000F5E700006C0300200054004070B5154632
:103F100000240222FFF7B8FFE9B20C4D2846FCF757
:103F2000B8FF07E0641C600B04D009490868401C16
:103F3000086070BD40212846FCF76FFF0028F1D0D3
:103F400001212846FCF75FFF70BD000000540040CF
:103F50006C03002010B5FFF719FF10BD10B5FFF777
:103F600051FF10BD10B5FFF787FF10BD10B5FFF76B
:103F7000CDFF10BDF0B5A24CA24D91B021682868CC
:103F8000FCF757F9A04E0746306061686868FCF797
:103F900050F97060A168A868FCF74BF9B06038462A
:103FA000FCF79EFF30607068FCF7DAFF7060B06865
:103FB000FDF716F8B0609549684602F091FF944805
:103FC000002400680AAF03909248A5004059039965
:103FD000FCF737F9641C7851032CF5DB0B98FEF7DE
:103FE000F3FE03900B9802F0BBFB07900A98FEF7D4
:103FF000EBFE0D9001250A98ED07684002F0B0FB3A
:1040000004460C98FEF7E0FE06900C98684002F01B
:10401000A7FB049003990698FCF713F908900D99F3
:104020000698FCF70EF9074603990498FCF709F97E
:10403000059006990798FCF704F90E9004990798E3
:10404000FCF7FFF809900D9804996840FCF7F9F81F
:104050000F9021460E98FCF7F4F80599FCF798F8B4
:10406000109021460998FCF7ECF80899FCF7E5F860
:10407000069007980D996840FCF7E3F807902146F1
:104080000898FCF7DEF80999FCF7D7F805462146B1
:104090000598FCF7D6F80E99FCF77AF80490039986
:1040A0000D98FCF7CEF82946584D0890A868059061
:1040B000FCF7C7F80990686810990390FCF7C1F8FD
:1040C00039460D902F683846FCF7BBF80D99FCF780
:1040D0005FF80999FCF75CF8009004990598FCF7E3
:1040E000B0F8049006990398FCF7ABF806903846B0
:1040F0000F99FCF7A6F80699FCF74AF80499FCF723
:1041000047F8019008990598FCF79BF804900799E7
:104110000398FCF796F8039021463846FCF791F88F
:104120000399FCF735F80499FCF732F802906946D8
:10413000284602F0D5FE3448FEF734F836497F228F
:104140000968D205002926D03449354B41189942D7
:1041500042D2014600241046FCF7B0F80390A700B5
:10416000F159FCF76EF8641CF051032C01DA039846
:10417000F5E727483F210906006800F06BF907467C
:104180000024A000315840193A4600F014F9641C8C
:10419000032CF6DB20E0014600241046FCF78EF8E5
:1041A0000390A700F159FCF74CF8641CF051032C64
:1041B00001DA0398F5E716483F210906006800F088
:1041C00049F907460024A000315840193A4600F04A
:1041D000F2F8641C032CF6DB1248017A002902D1A4
:1041E000C07900280AD0A9682868FDF73DFF0E4C69
:1041F0002060A9686868FDF737FF606011B0F0BD06
:10420000B4050020CC050020F0050020AC01002002
:1042100068000020C005002000000020CCCCCCC0ED
:10422000323373007804002008060020F8B5002619
:104230000D4FFDF7E7FD0024A5000C4879594059C2
:10424000FBF7F7FF01460A480A4A281800F0B3F8BE
:10425000641C032CF0DB7D20C000FEF786FF761C7B
:10426000642EE6DBF8BD0000B4050020CC0500207C
:10427000AC0100209A99593F10B50120FDF7ACFF21
:1042800010BD0EB500226B461A805A8001911A812A
:104290009A726946FDF768FA0EBD000070B50646D1
:1042A000FFF76AFC194C21692061451A3046FCF77A
:1042B0005AF81749FBF7C5FF064601212046890732
:1042C0000C3000F051F82846FCF74DF80546304612
:1042D0006168FBF7AEFF2946FBF7B3FF0D49FBF71B
:1042E000B0FFE168FBF754FF0B49E060884205DD51
:1042F000FF2000F030F87F20C00503E0FF2000F031
:1043000021F800206060002070BD00004401002002
:104310008988883D6F12833A48E1FA3E70B50D46B0
:104320000446FFF729FC2146FBF702FF6C432009F6
:10433000814203D90F2000F00EF870BD0F2000F06D
:1043400001F870BD10B5C00704D009200221C006D5
:10435000FCF748FD10BD10B5C00704D009200221AC
:10436000C006FCF741FD10BD70B504460120C00732
:104370000D4645400E462068FCF78AF800D22660BC
:1043800028462168FCF784F800D2256070BD1CB572
:1043900001214804FCF7BEFF02200090002069467E
:1043A00009240871E4062046FCF7CDFC02212046D2
:1043B000FCF71AFD1CBD70B505460C467F2016465D
:1043C0001146C005FBF735FF2146FBF73AFF0446CF
:1043D00031462868FBF735FF2146FBF7D9FE2860F8
:1043E00070BD0000F3B5104E104F8C0083B03159F2
:1043F0007869FBF726FF019030460C38055938697B
:104400002946FBF71EFF0090B9690398FBF719FFD7
:104410000099FBF7BDFE0199FBF70BFF31463551C3
:104420000C39085105B0F0BD740700202C020020A3
:1044300010B5FBF743FF7F24E4052146FBF7FDFEA3
:10444000A04201DD204610BD0121C9078842FAD9EA
:10445000002010BD10B5FBF7F4FE7F24E4052146D3
:10446000FBF7EBFEA04201DD204610BD0121C9078C
:104470008842FAD9002010BDF8B5164A09018C18F7
:1044800005462768A1686068FBF782FE0090E16836
:10449000FBF77EFE01467F20C005FBF70FFF00996A
:1044A000FBF7CFFE064639462846FBF7C2FE3146EB
:1044B000FBF7C7FE3946FBF76BFE05467F2031460A
:1044C000C005FBF7B6FE0099FBF7BBFE25606060F8
:1044D0002846F8BD24060020F8B5164A09018C18B4
:1044E00005462768A1686068FBF752FE0090E16806
:1044F000FBF74EFE01467F20C005FBF7DFFE00996B
:10450000FBF79FFE064639462846FBF792FE3146EA
:10451000FBF797FE3946FBF73BFE05467F20314609
:10452000C005FBF786FE0099FBF78BFE25606060F7
:104530002846F8BD540600201CB57D24E400204622
:10454000FEF713FEF84A9169012739439161F74854
:1045500001681022114301602046FEF706FEFFF7B6
:1045600024FBF348FEF701FE0925ED06F902284673
:10457000FCF731FC002805D039032846FCF72BFC5A
:1045800000280BD1FEF75CFE7D20C000FEF7EDFD9C
:10459000E8484168006880F308888847FDF78AFF8B
:1045A00002F0B2FB02212846FCF715FC002500288A
:1045B00003D1E1480560FEF7BDFFFFF7E1FAFF20F8
:1045C000FFF7C9FE02F076FA02F05AFC00F046FB53
:1045D0004B208001FDF71EF9D548FEF7C6FDFFF719
:1045E000B9FC01F03BFA0021084601F0B3FA0021C2
:1045F000012001F0AFFA0021032001F0ABFA002105
:10460000022001F0A7FA02F07FF902F06BF900280E
:1046100058D0FDF733FCC9488773FEF765FEFEF7F7
:104620006BFE01F079FFC748C54900260164C34C01
:10463000AA200C3C2070552060700720A07001203B
:10464000E070C1480521007820712046FCF70CFA83
:104650006071A571E57125726572A572E572FDF74D
:10466000C7F8BA48761C8642E1DBB64E002400202B
:10467000FDF776FC7169FBF7E4FD07460120FDF7C5
:104680006FFC0146AF48B24A1430FFF794FEAD48C4
:10469000AF4A39460C30FFF78EFEAC48641C8442AA
:1046A000E5DBAC4FF068062401902046FBF750FE96
:1046B000014600900198FBF701FEB84204DD009826
:1046C000306204E0042039E0641E002CEDDC316A25
:1046D0000198FBF7F3FDA049884201DA02202DE0A2
:1046E000FCF7EAFBFFF784FA01F02CFBFFF79EFDD5
:1046F0009A480068002801D007201FE0FFF73CFA25
:10470000B064FFF739FA8F4C0646A06C301AFBF7FD
:104710002AFE6064002802DC7F20C00560649049A6
:10472000FBF78FFD8F496064884201DD062005E0BC
:104730008A48A6640068142802DD0820FEF720FDE0
:1047400002F020F9FDF7BAFEFFF714FC0020FDF798
:1047500007FC7C4C6169FBF774FD07460120FDF7FF
:10476000FFFB014620467A4A1430FFF724FE7E48BC
:10477000774A016820461830FFF71DFE7B49206A02
:10478000FBF75FFD00907A4A6846E168FFF713FE89
:1047900020466F4A39460C30FFF70DFE0121C94310
:1047A0000098FBF7C9FD07467249E068FBF749FD31
:1047B0003946FBF73EFD60650746A4696E488442B2
:1047C0005CDD6048406B0190FBF7C2FD6A49FBF776
:1047D00038FD2146FBF735FD3946FBF7D9FC019939
:1047E00007468C005549703108515648C06B002867
:1047F00008D00020534B30398200401C8F500C28C9
:10480000FADBDD634D485D4910300059FBF719FDB7
:1048100001904A48403001593846FBF70AFD01999A
:10482000FBF7B6FC454940310F513039085101467C
:10483000FBF707FD414F0146A037E019504AFFF74B
:10484000BAFD40483F49406B401C48630C2815DBCB
:104850004D633868002401903848A700A030C05943
:104860000199FBF70BFE06D23448A030C0590190E5
:104870003448611C8163641C0C2CEDDB314CE06915
:10488000002802D03C48A06500E0A5653D49A06D28
:10489000FBF77EFC0746A06BFBF75AFD3649FBF79A
:1048A000D0FCA169FBF7CDFC616DFBF771FC3946CB
:1048B000FBF7E4FD03D33449E068884202DA0120C3
:1048C000E06100E0E561A06BFBF742FD2A49FBF7E0
:1048D000B8FCA169FBF7B5FC616DFBF759FC2061E1
:1048E0002A480068002805D029480078002801D10E
:1048F000FEF7FEFF1348C069002801D0082108E038
:1049000024480068002806D023480068002804D006
:104910000F21224860E00C215DE00A4CE06C002889
:104920003ED00F2157E0000000100240000001407F
:10493000A086010000C4FF1FC800002078040020EA
:104940008122000824000020A20200208813000019
:10495000492E7F3FCDCC6C40333353406C03002055
:10496000BD3786350AD7A33C200000206666864006
:1049700029EA7F3F0000A03FCDCCCC3D42F27C3FF6
:1049800067B17F3FCDCC4C40CDCC2C400000002007
:10499000A6020020D0000020F000002020A1070087
:1049A00056488079002807D00027A06A002816D032
:1049B000206B002802D004E00127F6E7FFF7DCF8BF
:1049C0002063FFF7D9F8216B411A4D48814201D984
:1049D000A562256308214B48FFF7A0FC2DE04A485B
:1049E000C06A002820D0FFF7C7F804464648006B8D
:1049F00000280AD14448002F046303D0FF20FFF7AA
:104A0000A1FC02E0FF20FFF7A6FC3F48016B621A01
:104A10003B498A4203D9C16A0563491EC162006BE2
:104A2000211A3A48814208D9002F03D0FF20FFF70E
:104A300092FC02E0FF20FFF785FC01F071FA01F023
:104A40001FF9314C206C804760683149401C606020
:104A5000E068FBF7F6FBFBF78DFCA060E06C00283C
:104A600011D0FFF789F8616A411A254881420BD9B4
:104A7000206D002805D000202065FFF77DF86062DA
:104A800002E00120F8E7256500F01AF921480078D6
:104A9000002803D02048007800280AD01748007A60
:104AA00020707D24E400FFF767F8801BA042FAD352
:104AB00027E612482178007A8842F2D01749207000
:104AC0000878401CC0B208700F2801D9082008706F
:104AD0000A4CAA200C3C2070552060700720A07062
:104AE0000120E0700878207105212046FBF7BCFF0B
:104AF0006071A571FCF77CFED3E70000780400200C
:104B000020A10700A086010024000020E0930400FB
:104B10000000C842AC020020A6020020A202002031
:104B2000F0B50B30C108C900144F0026144A0FE03D
:104B300003688B420BD38B4205D95C1A4318456836
:104B400030C3083B00E04368136002C004E0021D6C
:104B500010680028ECD13046002803D138680028BE
:104B600001D00020F0BD064A06481060064A121A1D
:104B7000D208D20044C001203860D7E7A803002043
:104B8000A40300200C080020080C0020FFB581B011
:104B900007460E4610460A9DFBF74BFB0446284687
:104BA0000499FBF746FB054631463846FBF741FBC7
:104BB0002946FBF746FB2146FBF780FB0499FBF7F0
:104BC000E7FA05B0F0BD000010B5064908680028F6
:104BD00007D000200860091D08710920C006FCF7F5
:104BE000B2F810BD7003002005490868022804D0FF
:104BF00001DA02200860401C70470020FAE700003C
:104C00002C0200200C494868002804D0012807D055
:104C100002280AD10BE0084844308860012003E0F4
:104C200005485030886002204860401C70470248A8
:104C3000383088600020F7E72C02002010B50649C4
:104C4000087D401C8007800F48614431095C2520A5
:104C500002F0B6F910BD0000C000002010B5002120
:104C60000720FEF76DF9154C0121A062E0620920D2
:104C7000FEF766F92063606302210420FEF760F905
:104C8000A063E06303210020FEF75AF9206460640A
:104C900004210320FEF754F9A064E06405210420F8
:104CA000FEF74EF92065606506210320FEF748F9FE
:104CB000A065E065A06A206610BD0000A00200208B
:104CC000F8B5FE4DFE49A86901260024884204DAA1
:104CD000401CA8610620A87104E0E879002801D1F1
:104CE000EE71AC71A879F74F0300FCF714FF0805CB
:104CF000FDFCFBFAF9F8F779F34AF0489168037B79
:104D00008C465168D0681268002B6AD0EF4DAC45D4
:104D100037D9EF4B984234DAB94232DDED4882425E
:104D20002FD29A422DDAE54AEB4D96710020810090
:104D30006B58116B401C0B608968C0B2116303286B
:104D4000F5D3E64D002081006B58116B401C0B60C1
:104D50008968C0B211630328F5D3E14D00208100BA
:104D60006B58116B401C0B608968C0B2116303283B
:104D7000F5D3506B1063D06B9063907810715078BE
:104D8000D070D84E3068C8282AD3CC490F208A79F1
:104D9000D54D12011043D54A287010786870D44858
:104DA000AC700088030AEB702871487C6871D07879
:104DB000A871D0480068FBF7F6FAE8712C72CE486B
:104DC0006C720078A872EC7200202A5CE97A401CB0
:104DD0008918C0B2E9720B28F7D3FCF709FD3460DB
:104DE000F8BDC24B1B78002B49D1B84DAC4546D914
:104DF000B74B984243DDC14DA84240DAB9423EDD8F
:104E0000B44882423BD29A4239DAAC4AB24D9671EA
:104E1000002081006B58116B401C0B608968C0B288
:104E200011630328F5D3AD4D002081006B58116B41
:104E3000401C0B608968C0B211630328F5D3A84DEC
:104E4000002081006B58116B401C0B608968C0B258
:104E500011630328F5D3994B00201C331D5C916B23
:104E6000401C0D708968C0B291630428F6D3506B62
:104E70001063D06B9063907810715078D070994F18
:104E80003868C828ACD38D490F208979964D09011F
:104E90000843964E2870307868709548AC7000884A
:104EA000010AE970287193480068FBF77CFA687181
:104EB000317AF279490092001143F2781143A971D5
:104EC000E8712C728C486C720078A872EC72002029
:104ED000E97A2A5C8918E972401C06E09FE3F7E250
:104EE00052E2F2E192E179E006E0C0B20B28EFD3A2
:104EF000FCF77EFC3C60F8BDFEF70EFE72480068D1
:104F0000B84248DDA87D012845D1286E007903000C
:104F1000FCF701FE0805090E12161A1E3B40686BCD
:104F20002866022002E0E86B28660320A87131E0C1
:104F3000686C28660420F9E7E86C28660520F5E728
:104F4000686D28660620F1E7E86D28660720EDE722
:104F5000AC71E86A28662C756C75FEF7EBFAFEF703
:104F6000CBF9674E00210C230A4600205A439219C0
:104F70008300401CD4500328FADB491C0329F2DBD0
:104F8000FEF7FAFD5F49086004E0AC71E86A286644
:104F90002C756C75AC75534E3068C828ABD3AA79A4
:104FA0000F205149120110430870286E0079487093
:104FB000A87C8870E87CC8700C714C718C71CC71C5
:104FC0000C724C728C72CC7200200B5CCA7A401C42
:104FD000D218C0B2CA720B28F7D3FEE6FEF79CFDCA
:104FE00039480068B84233DDA87D012830D12F6EE2
:104FF0003879092826D244493868FBF7C9F838605F
:10500000686B2863344A0020296B86000B68935133
:105010008968401C29630328F6DB304A002086009B
:105020000B6893518968401C29630328F7DB2C4ADD
:10503000002086000B6893518968401C296303286F
:10504000F7DB04E0AE71686B2863E86A2866AC752C
:105050001D4801681D48814259D9E87D012856D173
:105060002E6E3079092828D227493068FBF7E1F8FD
:105070003060002800DC3460686B2863164A00202A
:10508000296B86000B6893518968401C29630328AB
:10509000F6DB124A002086000B6893518968401C99
:1050A00029630328F7DB0E4A002086000B68935122
:1050B0008968401C29630328F7DB27E0A002002051
:1050C0004A0600009A99193F480500209A9919BF8D
:1050D0009A99993E9A9999BE640200207002002024
:1050E0007C020020280000206C04002078040020AE
:1050F0002C00002084000020740000203333333F54
:10510000D80600206C0000200AD7233CEC75FD4F28
:105110003868C82800D2EEE6A9790F200901FA4EB6
:1051200008433070286EF94D00797070F84928688E
:10513000FBF787F8FBF78EF901F0A0F9FBF76CF9A4
:10514000B070F3496868FBF77CF8FBF783F901F06E
:1051500095F9FBF761F9F070ED49A868FBF771F874
:10516000FBF778F901F08AF9FBF756F9E94D307150
:10517000E7492868FBF765F8FBF76CF901F07EF961
:10518000FBF74AF97071E2496868FBF75AF8FBF7D8
:1051900061F901F073F9FBF73FF9B071DC49A868D8
:1051A000FBF74FF8FBF756F901F068F9FBF734F914
:1051B000D94DF071D6492868FBF743F8FBF74AF957
:1051C00001F05CF9FBF728F93072D1496868FBF708
:1051D00038F8FBF73FF901F051F9FBF71DF9707250
:1051E000CB49A868FBF72DF8FBF734F901F046F935
:1051F000FBF712F9B072F4720020325CF17A401CB5
:105200008918C0B2F1720B28F7D371E6FEF784FC5F
:10521000C2480068B84212DDA87D01280FD1286E6F
:105220000079002831D0012837D002283DD003284A
:1052300043D0AE71E86BA863E86A2866AC75B14EDE
:105240003068C82800D256E6AA790F20AE4912016C
:1052500010430870286E00794870287B8870687B3E
:10526000C870A87B0871E87B48718C71CC710C7296
:105270004C728C72CC7200200B5CCA7A401CD21823
:10528000C0B2CA720B28F7D3A7E5287B002802D04A
:1052900000202873D2E70120FBE7687B401CC0B2E6
:1052A00068730128CAD96C73C8E7A87B002802D0AC
:1052B0000020A873C2E70120FBE7E87B002802D0AA
:1052C0000020E873BAE70120FBE7FEF725FC934BCB
:1052D0001868B8420ADDA97D012907D19049C9782B
:1052E000002902D0AE71E96A2966AC75854F39682C
:1052F000C829A8D3AA790F21834E12011143317016
:10530000296E1D46097971708149FAF79AFFFBF7FA
:10531000A1F801F0B3F8FBF77FF8B0707C4968683A
:10532000FAF78FFFFBF796F801F0A8F8FBF774F88F
:10533000F0707749A868FAF784FFFBF78BF801F063
:105340009DF8FBF769F830717149E868FAF779FF61
:10535000FBF780F801F092F8FBF75EF87071704887
:105360000178B171C178F171017A3172C0797072CE
:10537000B472F4720020325CF17A401C8918C0B219
:10538000F1720B28F7D3B3E5FEF7C6FB634800685C
:10539000B84261DDA87D01285ED1286E0079002821
:1053A00006D001280DD0022815D0032853D14FE094
:1053B0002879401CC0B22871272800D92C716E7141
:1053C00049E0E878401CC0B2E870012800D9EC70D0
:1053D000022068713FE06879022816D1E978697087
:1053E000494F6C71AA203870552078700520B8702C
:1053F000FE70397101463846FBF736FB7871BC7197
:10540000FC713C727C72BC72FC726879012816D106
:105410002879A8703C4F6C71AA2139705521797098
:105420000721B970FE70387105213846FBF71CFB67
:105430007871BC71FC713C727C72BC72FC72FEF7BC
:1054400079F8FEF799FB37490860FCF7D1F902E0DB
:10545000AE71E86A2866AC7530480168324881420E
:1054600010D9E87D01280DD1286E0079002808D1D7
:105470002879002801D128202871C0B2401E287147
:105480006E71EC751F4E3068C82800D233E5AA79DA
:105490000F201D49120110430870286E00794870D2
:1054A000A87888706878C8700C7128794871E87895
:1054B0008871CC710C724C728C72CC7200200B5CB7
:1054C000CA7A401CD218C0B2CA720B28F7D384E43F
:1054D000FEF722FB11480068B84246DDA97D01298C
:1054E00043D1296E09790B00FCF715FB0504202830
:1054F00030393E00297A491CC9B22972202933D992
:105500002C7231E0280000206C040020640200208E
:105510000000C842700200207C02002048050020E4
:10552000780400206C0000209A9919BF697A491C00
:10553000C9B26972202917D96C7215E0A97A491C81
:10554000C9B2A97220290FD9AC720DE0297C491C7F
:10555000C9B22974282907D91C21297404E0AE7125
:10556000696D2965E96A2966AC75644988422FD955
:10557000E87D01282CD1286E20210079002806D052
:1055800001280CD0022812D0032820D117E0287A55
:10559000002802D0401E287219E0297217E0687AAC
:1055A000002802D0401E687211E069720FE0A87AEC
:1055B000002802D0401EA87209E0A97207E0287CEA
:1055C000401EC0B228741C2801D228202874EC7513
:1055D0004B4E3068C82800D28DE4AA790F20494983
:1055E000120110430870286E00794870287A88707C
:1055F000687AC870A87A08714C71E87A8871287C3A
:10560000C8710C724C728C72CC7200200B5CCA7A1E
:10561000401CD218C0B2CA720B28F7D3DDE4FEF7E3
:105620007BFA39480168B94223DDA87D012820D1E1
:10563000286E0079002806D0012808D002280AD058
:10564000032815D10FE0286A0A30286210E0686A42
:105650000A3068620CE02878002802D00020287008
:1056600006E00120FBE7AE71E86DA865E86A2866F0
:10567000AC752248814219D9E87D012816D1286EDF
:105680000079002804D0012806D002280DD107E0B7
:10569000286A0A38286208E0686A0A38686204E002
:1056A0002878002828D000202870EC75144E306827
:1056B000C82891D3AA790F2012491201104308700B
:1056C000286E00794870288C020A8A70C870A88CED
:1056D000020A0A71487128788871CC710C724C7278
:1056E0008C72CC7200200B5CCA7A401CD218C0B2FB
:1056F000CA720B28F7D370E40120D5E79A9919BF35
:10570000280000206C0400204805002010B54168E6
:1057100000788007800DFF38FF3802380818FAF744
:1057200017FE0821C943FAF707FE10BDF0B506467B
:105730009D4A9F48D3789D4900689E4FB4008FB022
:10574000002B02D0127A002A11D0002803D0385939
:10575000FAF777FD3851022E19DA964918310859AF
:10576000C207401CD20F0851002A07D00FE00028C2
:10577000EDD1914800680028E9D0ECE78D4831462A
:105780004830005901F002FA8A490C3108518B481F
:105790000025015987483C300059FAF76FFE04D1C3
:1057A00087480059002800DD01258448012100595F
:1057B000C90748407F493C310959FAF75FFE06D1D5
:1057C0007F4801590120C007814200D90125022EDE
:1057D0000BDA78480C3001593C300059FAF729FDB2
:1057E000400078494008884228DC002D26D17148C5
:1057F0000221543000590090FAF79EFD6D49603146
:105800000959FAF7C5FC6E490D592946FAF7C0FC4B
:105810006D49FAF716FD6D490959FAF712FD6C4901
:105820000968FAF70EFD3959FAF7B2FC61493851A7
:1058300060310098085108460C3805515F480C301B
:1058400001595C482018FEF78FFD60481830075951
:105850005B4839460059FAF7F4FC5C490C390959A0
:105860000091FAF7EEFC534D7F2101903C35C905BC
:105870003846FAF7DEFC0099FAF7E3FC5549095976
:105880000391FAF7DEFC0199FAF782FC49490959BC
:10589000FAF77EFC28514D480C3000590290002840
:1058A00001DC285972E04C480AA9027807A8002AAE
:1058B00006D0464A243A12590251444A183A05E0A1
:1058C0003C4A603A125902513A4A543A12590A5122
:1058D00000597F22D205009090420859019001465C
:1058E00004AF104608DAFAF7A4FC0D903B48019982
:1058F0000059400040080BE0FAF79BFC0D9000991E
:105900000198FAF7DBFC0146344800594000400892
:10591000FAF797FC0D99FAF73BFC385125482430EB
:1059200001590398FAF785FC0299FAF78AFC27498E
:105930004439C9690D91FAF784FC0E901D48303046
:1059400001591830025901921046FAF772FC029977
:10595000FAF777FC0099FAF774FC3959FAF771FCF9
:105960000D99FAF76EFC0E99FAF763FC1149019A4A
:1059700030310A510F4A0399243211513146FEF752
:1059800031FD01462859FAF703FC28510F494439E3
:10599000C968FAF756FC2851084801596019FEF702
:1059A000E3FC28590FB0F0BD7804002048E17A3FAD
:1059B00000000020FC06002090000020407000083D
:1059C000F0030020CDCCCC3D7EAA2A3E7002002000
:1059D00068000020C0050020A0020020FC03002079
:1059E000F8B5144801681448FAF768FC134CE061F4
:1059F0001348016813480068FAF760FC7F25124ECF
:105A0000ED053346114A12490095FFF7BFF8E060F3
:105A1000B04201DDE66002E0A84200DAE5600D4830
:105A2000C078002804D00C49E068FAF70AFCE0606E
:105A3000F8BD00006800002017B7513B2C02002081
:105A40004400002030000020713DAA3F6666764089
:105A500000002040780400206666663FFEB50225FF
:105A600069460D710320487100248C71CC710121AD
:105A70000846FBF75BFC334F6E0739463046FEF7AE
:105A800000FC01210220FBF751FC39462E4F38461D
:105A9000FEF7F7FB2D4860210180012141808481C0
:105AA00009020182846080200924E406009069468E
:105AB0002046FBF748F9012207212046FBF77BF936
:105AC00022493846FBF7C0FDA803009069462046EE
:105AD000FBF739F902220F212046FBF76CF91B492D
